{
  "_format": "hh-sol-artifact-1",
  "contractName": "Pair",
  "sourceName": "contracts/Tokens/Pair.sol",
  "abi": [
    {
      "inputs": [],
      "stateMutability": "nonpayable",
      "type": "constructor"
    },
    {
      "anonymous": false,
      "inputs": [
        {
          "indexed": true,
          "internalType": "address",
          "name": "owner",
          "type": "address"
        },
        {
          "indexed": true,
          "internalType": "address",
          "name": "spender",
          "type": "address"
        },
        {
          "indexed": false,
          "internalType": "uint256",
          "name": "value",
          "type": "uint256"
        }
      ],
      "name": "Approval",
      "type": "event"
    },
    {
      "anonymous": false,
      "inputs": [
        {
          "indexed": true,
          "internalType": "address",
          "name": "sender",
          "type": "address"
        },
        {
          "indexed": false,
          "internalType": "uint256",
          "name": "amount0",
          "type": "uint256"
        },
        {
          "indexed": false,
          "internalType": "uint256",
          "name": "amount1",
          "type": "uint256"
        },
        {
          "indexed": true,
          "internalType": "address",
          "name": "to",
          "type": "address"
        }
      ],
      "name": "Burn",
      "type": "event"
    },
    {
      "anonymous": false,
      "inputs": [
        {
          "indexed": true,
          "internalType": "address",
          "name": "sender",
          "type": "address"
        },
        {
          "indexed": false,
          "internalType": "uint256",
          "name": "amount0",
          "type": "uint256"
        },
        {
          "indexed": false,
          "internalType": "uint256",
          "name": "amount1",
          "type": "uint256"
        }
      ],
      "name": "Mint",
      "type": "event"
    },
    {
      "anonymous": false,
      "inputs": [
        {
          "indexed": true,
          "internalType": "address",
          "name": "sender",
          "type": "address"
        },
        {
          "indexed": false,
          "internalType": "uint256",
          "name": "amount0In",
          "type": "uint256"
        },
        {
          "indexed": false,
          "internalType": "uint256",
          "name": "amount1In",
          "type": "uint256"
        },
        {
          "indexed": false,
          "internalType": "uint256",
          "name": "amount0Out",
          "type": "uint256"
        },
        {
          "indexed": false,
          "internalType": "uint256",
          "name": "amount1Out",
          "type": "uint256"
        },
        {
          "indexed": true,
          "internalType": "address",
          "name": "to",
          "type": "address"
        }
      ],
      "name": "Swap",
      "type": "event"
    },
    {
      "anonymous": false,
      "inputs": [
        {
          "indexed": false,
          "internalType": "uint112",
          "name": "reserve0",
          "type": "uint112"
        },
        {
          "indexed": false,
          "internalType": "uint112",
          "name": "reserve1",
          "type": "uint112"
        }
      ],
      "name": "Sync",
      "type": "event"
    },
    {
      "anonymous": false,
      "inputs": [
        {
          "indexed": true,
          "internalType": "address",
          "name": "from",
          "type": "address"
        },
        {
          "indexed": true,
          "internalType": "address",
          "name": "to",
          "type": "address"
        },
        {
          "indexed": false,
          "internalType": "uint256",
          "name": "value",
          "type": "uint256"
        }
      ],
      "name": "Transfer",
      "type": "event"
    },
    {
      "inputs": [],
      "name": "DOMAIN_SEPARATOR",
      "outputs": [
        {
          "internalType": "bytes32",
          "name": "",
          "type": "bytes32"
        }
      ],
      "stateMutability": "view",
      "type": "function"
    },
    {
      "inputs": [],
      "name": "MINIMUM_LIQUIDITY",
      "outputs": [
        {
          "internalType": "uint256",
          "name": "",
          "type": "uint256"
        }
      ],
      "stateMutability": "view",
      "type": "function"
    },
    {
      "inputs": [],
      "name": "PERMIT_TYPEHASH",
      "outputs": [
        {
          "internalType": "bytes32",
          "name": "",
          "type": "bytes32"
        }
      ],
      "stateMutability": "view",
      "type": "function"
    },
    {
      "inputs": [
        {
          "internalType": "address",
          "name": "",
          "type": "address"
        },
        {
          "internalType": "address",
          "name": "",
          "type": "address"
        }
      ],
      "name": "allowance",
      "outputs": [
        {
          "internalType": "uint256",
          "name": "",
          "type": "uint256"
        }
      ],
      "stateMutability": "view",
      "type": "function"
    },
    {
      "inputs": [
        {
          "internalType": "address",
          "name": "spender",
          "type": "address"
        },
        {
          "internalType": "uint256",
          "name": "value",
          "type": "uint256"
        }
      ],
      "name": "approve",
      "outputs": [
        {
          "internalType": "bool",
          "name": "",
          "type": "bool"
        }
      ],
      "stateMutability": "nonpayable",
      "type": "function"
    },
    {
      "inputs": [
        {
          "internalType": "address",
          "name": "",
          "type": "address"
        }
      ],
      "name": "balanceOf",
      "outputs": [
        {
          "internalType": "uint256",
          "name": "",
          "type": "uint256"
        }
      ],
      "stateMutability": "view",
      "type": "function"
    },
    {
      "inputs": [
        {
          "internalType": "address",
          "name": "to",
          "type": "address"
        }
      ],
      "name": "burn",
      "outputs": [
        {
          "internalType": "uint256",
          "name": "amount0",
          "type": "uint256"
        },
        {
          "internalType": "uint256",
          "name": "amount1",
          "type": "uint256"
        }
      ],
      "stateMutability": "nonpayable",
      "type": "function"
    },
    {
      "inputs": [],
      "name": "decimals",
      "outputs": [
        {
          "internalType": "uint8",
          "name": "",
          "type": "uint8"
        }
      ],
      "stateMutability": "view",
      "type": "function"
    },
    {
      "inputs": [],
      "name": "devFee",
      "outputs": [
        {
          "internalType": "uint32",
          "name": "",
          "type": "uint32"
        }
      ],
      "stateMutability": "view",
      "type": "function"
    },
    {
      "inputs": [],
      "name": "factory",
      "outputs": [
        {
          "internalType": "address",
          "name": "",
          "type": "address"
        }
      ],
      "stateMutability": "view",
      "type": "function"
    },
    {
      "inputs": [],
      "name": "getReserves",
      "outputs": [
        {
          "internalType": "uint112",
          "name": "_reserve0",
          "type": "uint112"
        },
        {
          "internalType": "uint112",
          "name": "_reserve1",
          "type": "uint112"
        },
        {
          "internalType": "uint32",
          "name": "_blockTimestampLast",
          "type": "uint32"
        }
      ],
      "stateMutability": "view",
      "type": "function"
    },
    {
      "inputs": [
        {
          "internalType": "address",
          "name": "_token0",
          "type": "address"
        },
        {
          "internalType": "address",
          "name": "_token1",
          "type": "address"
        }
      ],
      "name": "initialize",
      "outputs": [],
      "stateMutability": "nonpayable",
      "type": "function"
    },
    {
      "inputs": [],
      "name": "kLast",
      "outputs": [
        {
          "internalType": "uint256",
          "name": "",
          "type": "uint256"
        }
      ],
      "stateMutability": "view",
      "type": "function"
    },
    {
      "inputs": [
        {
          "internalType": "address",
          "name": "to",
          "type": "address"
        }
      ],
      "name": "mint",
      "outputs": [
        {
          "internalType": "uint256",
          "name": "liquidity",
          "type": "uint256"
        }
      ],
      "stateMutability": "nonpayable",
      "type": "function"
    },
    {
      "inputs": [],
      "name": "name",
      "outputs": [
        {
          "internalType": "string",
          "name": "",
          "type": "string"
        }
      ],
      "stateMutability": "view",
      "type": "function"
    },
    {
      "inputs": [
        {
          "internalType": "address",
          "name": "",
          "type": "address"
        }
      ],
      "name": "nonces",
      "outputs": [
        {
          "internalType": "uint256",
          "name": "",
          "type": "uint256"
        }
      ],
      "stateMutability": "view",
      "type": "function"
    },
    {
      "inputs": [
        {
          "internalType": "address",
          "name": "owner",
          "type": "address"
        },
        {
          "internalType": "address",
          "name": "spender",
          "type": "address"
        },
        {
          "internalType": "uint256",
          "name": "value",
          "type": "uint256"
        },
        {
          "internalType": "uint256",
          "name": "deadline",
          "type": "uint256"
        },
        {
          "internalType": "uint8",
          "name": "v",
          "type": "uint8"
        },
        {
          "internalType": "bytes32",
          "name": "r",
          "type": "bytes32"
        },
        {
          "internalType": "bytes32",
          "name": "s",
          "type": "bytes32"
        }
      ],
      "name": "permit",
      "outputs": [],
      "stateMutability": "nonpayable",
      "type": "function"
    },
    {
      "inputs": [],
      "name": "price0CumulativeLast",
      "outputs": [
        {
          "internalType": "uint256",
          "name": "",
          "type": "uint256"
        }
      ],
      "stateMutability": "view",
      "type": "function"
    },
    {
      "inputs": [],
      "name": "price1CumulativeLast",
      "outputs": [
        {
          "internalType": "uint256",
          "name": "",
          "type": "uint256"
        }
      ],
      "stateMutability": "view",
      "type": "function"
    },
    {
      "inputs": [
        {
          "internalType": "uint32",
          "name": "_devFee",
          "type": "uint32"
        }
      ],
      "name": "setDevFee",
      "outputs": [],
      "stateMutability": "nonpayable",
      "type": "function"
    },
    {
      "inputs": [
        {
          "internalType": "uint32",
          "name": "_swapFee",
          "type": "uint32"
        }
      ],
      "name": "setSwapFee",
      "outputs": [],
      "stateMutability": "nonpayable",
      "type": "function"
    },
    {
      "inputs": [
        {
          "internalType": "address",
          "name": "to",
          "type": "address"
        }
      ],
      "name": "skim",
      "outputs": [],
      "stateMutability": "nonpayable",
      "type": "function"
    },
    {
      "inputs": [
        {
          "internalType": "uint256",
          "name": "amount0Out",
          "type": "uint256"
        },
        {
          "internalType": "uint256",
          "name": "amount1Out",
          "type": "uint256"
        },
        {
          "internalType": "address",
          "name": "to",
          "type": "address"
        },
        {
          "internalType": "bytes",
          "name": "data",
          "type": "bytes"
        }
      ],
      "name": "swap",
      "outputs": [],
      "stateMutability": "nonpayable",
      "type": "function"
    },
    {
      "inputs": [],
      "name": "swapFee",
      "outputs": [
        {
          "internalType": "uint32",
          "name": "",
          "type": "uint32"
        }
      ],
      "stateMutability": "view",
      "type": "function"
    },
    {
      "inputs": [],
      "name": "symbol",
      "outputs": [
        {
          "internalType": "string",
          "name": "",
          "type": "string"
        }
      ],
      "stateMutability": "view",
      "type": "function"
    },
    {
      "inputs": [],
      "name": "sync",
      "outputs": [],
      "stateMutability": "nonpayable",
      "type": "function"
    },
    {
      "inputs": [],
      "name": "token0",
      "outputs": [
        {
          "internalType": "address",
          "name": "",
          "type": "address"
        }
      ],
      "stateMutability": "view",
      "type": "function"
    },
    {
      "inputs": [],
      "name": "token1",
      "outputs": [
        {
          "internalType": "address",
          "name": "",
          "type": "address"
        }
      ],
      "stateMutability": "view",
      "type": "function"
    },
    {
      "inputs": [],
      "name": "totalSupply",
      "outputs": [
        {
          "internalType": "uint256",
          "name": "",
          "type": "uint256"
        }
      ],
      "stateMutability": "view",
      "type": "function"
    },
    {
      "inputs": [
        {
          "internalType": "address",
          "name": "to",
          "type": "address"
        },
        {
          "internalType": "uint256",
          "name": "value",
          "type": "uint256"
        }
      ],
      "name": "transfer",
      "outputs": [
        {
          "internalType": "bool",
          "name": "",
          "type": "bool"
        }
      ],
      "stateMutability": "nonpayable",
      "type": "function"
    },
    {
      "inputs": [
        {
          "internalType": "address",
          "name": "from",
          "type": "address"
        },
        {
          "internalType": "address",
          "name": "to",
          "type": "address"
        },
        {
          "internalType": "uint256",
          "name": "value",
          "type": "uint256"
        }
      ],
      "name": "transferFrom",
      "outputs": [
        {
          "internalType": "bool",
          "name": "",
          "type": "bool"
        }
      ],
      "stateMutability": "nonpayable",
      "type": "function"
    }
  ],
  "bytecode": "0x6080604052600c805463ffffffff60201b1963ffffffff19909116605617166401000000001790556001600d5534801561003857600080fd5b50604080518082018252600a815269476c6f62616c204c507360b01b6020918201528151808301835260018152603160f81b9082015281517f8b73c3c69bb8fe3d512ecc4cf759cc79239f7b179b0ffacaa9a75d522b39400f818301527f9d8930d4ab7dc7e9cc9c7bf27d183a4f187e422ab31c6c1784e8056620491d36818401527fc89efdaa54c0f20c7adf612882df0950f5a951637e0307cdcb4c672f298b8bc660608201524660808201523060a0808301919091528351808303909101815260c09091019092528151910120600355600580546001600160a01b0319163317905561255b8061012b6000396000f3fe608060405234801561001057600080fd5b50600436106101e55760003560e01c80636827e7641161010f578063ba9a7a56116100a2578063d505accf11610071578063d505accf146105c4578063d6d788c314610615578063dd62ed3e14610638578063fff6cae914610666576101e5565b8063ba9a7a5614610586578063bc25cf771461058e578063c45a0155146105b4578063d21220a7146105bc576101e5565b80637ecebe00116100de5780637ecebe00146104ed57806389afcb441461051357806395d89b4114610552578063a9059cbb1461055a576101e5565b80636827e764146104915780636a6278421461049957806370a08231146104bf5780637464fc3d146104e5576101e5565b806323b872dd11610187578063485cc95511610156578063485cc9551461043257806354cf2aeb146104605780635909c0d5146104815780635a3d549314610489576101e5565b806323b872dd146103ce57806330adf81f14610404578063313ce5671461040c5780633644e5151461042a576101e5565b80630902f1ac116101c35780630902f1ac14610318578063095ea7b3146103505780630dfe16811461039057806318160ddd146103b4576101e5565b8063022c0d9f146101ea57806303c150b01461027857806306fdde031461029b575b600080fd5b6102766004803603608081101561020057600080fd5b8135916020810135916001600160a01b03604083013516919081019060808101606082013564010000000081111561023757600080fd5b82018360208201111561024957600080fd5b8035906020019184600183028401116401000000008311171561026b57600080fd5b50909250905061066e565b005b6102766004803603602081101561028e57600080fd5b503563ffffffff16610b8d565b6102a3610cbb565b6040805160208082528351818301528351919283929083019185019080838360005b838110156102dd5781810151838201526020016102c5565b50505050905090810190601f16801561030a5780820380516001836020036101000a031916815260200191505b509250505060405180910390f35b610320610ce1565b604080516001600160701b03948516815292909316602083015263ffffffff168183015290519081900360600190f35b61037c6004803603604081101561036657600080fd5b506001600160a01b038135169060200135610d0b565b604080519115158252519081900360200190f35b610398610d22565b604080516001600160a01b039092168252519081900360200190f35b6103bc610d31565b60408051918252519081900360200190f35b61037c600480360360608110156103e457600080fd5b506001600160a01b03813581169160208101359091169060400135610d37565b6103bc610dcb565b610414610def565b6040805160ff9092168252519081900360200190f35b6103bc610df4565b6102766004803603604081101561044857600080fd5b506001600160a01b0381358116916020013516610dfa565b610468610e7f565b6040805163ffffffff9092168252519081900360200190f35b6103bc610e8b565b6103bc610e91565b610468610e97565b6103bc600480360360208110156104af57600080fd5b50356001600160a01b0316610eab565b6103bc600480360360208110156104d557600080fd5b50356001600160a01b0316611188565b6103bc61119a565b6103bc6004803603602081101561050357600080fd5b50356001600160a01b03166111a0565b6105396004803603602081101561052957600080fd5b50356001600160a01b03166111b2565b6040805192835260208301919091528051918290030190f35b6102a3611547565b61037c6004803603604081101561057057600080fd5b506001600160a01b038135169060200135611569565b6103bc611576565b610276600480360360208110156105a457600080fd5b50356001600160a01b031661157c565b6103986116ef565b6103986116fe565b610276600480360360e08110156105da57600080fd5b506001600160a01b03813581169160208101359091169060408101359060608101359060ff6080820135169060a08101359060c0013561170d565b6102766004803603602081101561062b57600080fd5b503563ffffffff1661190d565b6103bc6004803603604081101561064e57600080fd5b506001600160a01b0381358116916020013516611a30565b610276611a4d565b600d546001146106ba576040805162461bcd60e51b815260206004820152601260248201527111db1bd8985b14185a5c8e881313d0d2d15160721b604482015290519081900360640190fd5b6000600d55841515806106cd5750600084115b6107085760405162461bcd60e51b81526004018080602001828103825260268152602001806124466026913960400191505060405180910390fd5b600080610713610ce1565b5091509150816001600160701b0316871080156107385750806001600160701b031686105b6107735760405162461bcd60e51b81526004018080602001828103825260228152602001806124db6022913960400191505060405180910390fd5b60065460075460009182916001600160a01b039182169190811690891682148015906107b15750806001600160a01b0316896001600160a01b031614155b6107fb576040805162461bcd60e51b8152602060048201526016602482015275476c6f62616c506169723a20494e56414c49445f544f60501b604482015290519081900360640190fd5b8a1561080c5761080c828a8d611bb0565b891561081d5761081d818a8c611bb0565b86156108cf57886001600160a01b0316631074dda1338d8d8c8c6040518663ffffffff1660e01b815260040180866001600160a01b03168152602001858152602001848152602001806020018281038252848482818152602001925080828437600081840152601f19601f8201169050808301925050509650505050505050600060405180830381600087803b1580156108b657600080fd5b505af11580156108ca573d6000803e3d6000fd5b505050505b604080516370a0823160e01b815230600482015290516001600160a01b038416916370a08231916024808301926020929190829003018186803b15801561091557600080fd5b505afa158015610929573d6000803e3d6000fd5b505050506040513d602081101561093f57600080fd5b5051604080516370a0823160e01b815230600482015290519195506001600160a01b038316916370a0823191602480820192602092909190829003018186803b15801561098b57600080fd5b505afa15801561099f573d6000803e3d6000fd5b505050506040513d60208110156109b557600080fd5b5051925060009150506001600160701b0385168a900383116109d85760006109e7565b89856001600160701b03160383035b9050600089856001600160701b0316038311610a04576000610a13565b89856001600160701b03160383035b90506000821180610a245750600081115b610a5f5760405162461bcd60e51b815260040180806020018281038252602581526020018061248d6025913960400191505060405180910390fd5b600c5463ffffffff90811690600090610a9390610a809086908590611d4a16565b610a8d88620186a0611d4a565b90611daa565b90506000610aa4610a808585611d4a565b9050610acb6402540be400610ac56001600160701b038c8116908c16611d4a565b90611d4a565b610ad58383611d4a565b1015610b18576040805162461bcd60e51b815260206004820152600d60248201526c476c6f62616c506169723a204b60981b604482015290519081900360640190fd5b505050610b2784848888611e07565b60408051838152602081018390528082018d9052606081018c905290516001600160a01b038b169133917fd78ad95fa46c994b6551d0da85fc275fe613ce37657fb8d5e3d130840159d8229181900360800190a350506001600d55505050505050505050565b60008163ffffffff1611610be3576040805162461bcd60e51b81526020600482015260186024820152770476c6f62616c506169723a206c6f776572207468656e20360441b604482015290519081900360640190fd5b6005546001600160a01b03163314610c3a576040805162461bcd60e51b815260206004820152601560248201527423b637b130b62830b4b91d102327a92124a22222a760591b604482015290519081900360640190fd5b6101f48163ffffffff161115610c93576040805162461bcd60e51b8152602060048201526019602482015278476c6f62616c506169723a20464f5242494444454e5f46454560381b604482015290519081900360640190fd5b600c805463ffffffff9092166401000000000267ffffffff0000000019909216919091179055565b6040518060400160405280600a815260200169476c6f62616c204c507360b01b81525081565b6008546001600160701b0380821692600160701b830490911691600160e01b900463ffffffff1690565b6000610d18338484611fc7565b5060015b92915050565b6006546001600160a01b031681565b60005481565b6001600160a01b038316600090815260026020908152604080832033845290915281205460001914610db6576001600160a01b0384166000908152600260209081526040808320338452909152902054610d919083611daa565b6001600160a01b03851660009081526002602090815260408083203384529091529020555b610dc1848484612029565b5060019392505050565b7f6e71edae12b1b97f4d1f60370fef10105fa2faae0126114a169c64845d6126c981565b601281565b60035481565b6005546001600160a01b03163314610e51576040805162461bcd60e51b815260206004820152601560248201527423b637b130b62830b4b91d102327a92124a22222a760591b604482015290519081900360640190fd5b600680546001600160a01b039384166001600160a01b03199182161790915560078054929093169116179055565b600c5463ffffffff1681565b60095481565b600a5481565b600c54640100000000900463ffffffff1681565b6000600d54600114610ef9576040805162461bcd60e51b815260206004820152601260248201527111db1bd8985b14185a5c8e881313d0d2d15160721b604482015290519081900360640190fd5b6000600d81905580610f09610ce1565b50600654604080516370a0823160e01b815230600482015290519395509193506000926001600160a01b03909116916370a08231916024808301926020929190829003018186803b158015610f5d57600080fd5b505afa158015610f71573d6000803e3d6000fd5b505050506040513d6020811015610f8757600080fd5b5051600754604080516370a0823160e01b815230600482015290519293506000926001600160a01b03909216916370a0823191602480820192602092909190829003018186803b158015610fda57600080fd5b505afa158015610fee573d6000803e3d6000fd5b505050506040513d602081101561100457600080fd5b50519050600061101d836001600160701b038716611daa565b90506000611034836001600160701b038716611daa565b9050600061104287876120d7565b60005490915080611079576110656103e8610a8d6110608787611d4a565b612230565b985061107460006103e8612282565b6110bc565b6110b96001600160701b0389166110908684611d4a565b8161109757fe5b046001600160701b0389166110ac8685611d4a565b816110b357fe5b0461230c565b98505b600089116110fb5760405162461bcd60e51b81526004018080602001828103825260298152602001806124b26029913960400191505060405180910390fd5b6111058a8a612282565b61111186868a8a611e07565b811561113b57600854611137906001600160701b0380821691600160701b900416611d4a565b600b555b6040805185815260208101859052815133927f4c209b5fc8ad50758f13e2e1088ba56a560dff690a1c6fef26394f4c03821c4f928290030190a250506001600d5550949695505050505050565b60016020526000908152604090205481565b600b5481565b60046020526000908152604090205481565b600080600d54600114611201576040805162461bcd60e51b815260206004820152601260248201527111db1bd8985b14185a5c8e881313d0d2d15160721b604482015290519081900360640190fd5b6000600d81905580611211610ce1565b50600654600754604080516370a0823160e01b815230600482015290519496509294506001600160a01b039182169391169160009184916370a08231916024808301926020929190829003018186803b15801561126d57600080fd5b505afa158015611281573d6000803e3d6000fd5b505050506040513d602081101561129757600080fd5b5051604080516370a0823160e01b815230600482015290519192506000916001600160a01b038516916370a08231916024808301926020929190829003018186803b1580156112e557600080fd5b505afa1580156112f9573d6000803e3d6000fd5b505050506040513d602081101561130f57600080fd5b50513060009081526001602052604081205491925061132e88886120d7565b6000549091508061133f8487611d4a565b8161134657fe5b049a50806113548486611d4a565b8161135b57fe5b04995060008b11801561136e575060008a115b6113a95760405162461bcd60e51b81526004018080602001828103825260298152602001806124fd6029913960400191505060405180910390fd5b6113b33084612322565b6113be878d8d611bb0565b6113c9868d8c611bb0565b604080516370a0823160e01b815230600482015290516001600160a01b038916916370a08231916024808301926020929190829003018186803b15801561140f57600080fd5b505afa158015611423573d6000803e3d6000fd5b505050506040513d602081101561143957600080fd5b5051604080516370a0823160e01b815230600482015290519196506001600160a01b038816916370a0823191602480820192602092909190829003018186803b15801561148557600080fd5b505afa158015611499573d6000803e3d6000fd5b505050506040513d60208110156114af57600080fd5b505193506114bf85858b8b611e07565b81156114e9576008546114e5906001600160701b0380821691600160701b900416611d4a565b600b555b604080518c8152602081018c905281516001600160a01b038f169233927fdccd412f0b1252819cb1fd330b93224ca42612892bb3f4f789976e6d81936496929081900390910190a35050505050505050506001600d81905550915091565b604051806040016040528060068152602001650474c422d4c560d41b81525081565b6000610d18338484612029565b6103e881565b600d546001146115c8576040805162461bcd60e51b815260206004820152601260248201527111db1bd8985b14185a5c8e881313d0d2d15160721b604482015290519081900360640190fd5b6000600d55600654600754600854604080516370a0823160e01b815230600482015290516001600160a01b039485169490931692611671928592879261166c926001600160701b03169185916370a0823191602480820192602092909190829003018186803b15801561163a57600080fd5b505afa15801561164e573d6000803e3d6000fd5b505050506040513d602081101561166457600080fd5b505190611daa565b611bb0565b6116e5818461166c6008600e9054906101000a90046001600160701b03166001600160701b0316856001600160a01b03166370a08231306040518263ffffffff1660e01b815260040180826001600160a01b0316815260200191505060206040518083038186803b15801561163a57600080fd5b50506001600d5550565b6005546001600160a01b031681565b6007546001600160a01b031681565b42841015611755576040805162461bcd60e51b815260206004820152601060248201526f14185b98d85ad94e881156141254915160821b604482015290519081900360640190fd5b6003546001600160a01b0380891660008181526004602090815260408083208054600180820190925582517f6e71edae12b1b97f4d1f60370fef10105fa2faae0126114a169c64845d6126c98186015280840196909652958d166060860152608085018c905260a085019590955260c08085018b90528151808603909101815260e08501825280519083012061190160f01b6101008601526101028501969096526101228085019690965280518085039096018652610142840180825286519683019690962095839052610162840180825286905260ff89166101828501526101a284018890526101c28401879052519193926101e280820193601f1981019281900390910190855afa158015611870573d6000803e3d6000fd5b5050604051601f1901519150506001600160a01b038116158015906118a65750886001600160a01b0316816001600160a01b0316145b6118f7576040805162461bcd60e51b815260206004820152601a60248201527f50616e63616b653a20494e56414c49445f5349474e4154555245000000000000604482015290519081900360640190fd5b611902898989611fc7565b505050505050505050565b60008163ffffffff1611611963576040805162461bcd60e51b81526020600482015260186024820152770476c6f62616c506169723a206c6f776572207468656e20360441b604482015290519081900360640190fd5b6005546001600160a01b031633146119ba576040805162461bcd60e51b815260206004820152601560248201527423b637b130b62830b4b91d102327a92124a22222a760591b604482015290519081900360640190fd5b620186a08163ffffffff161115611a14576040805162461bcd60e51b8152602060048201526019602482015278476c6f62616c506169723a20464f5242494444454e5f46454560381b604482015290519081900360640190fd5b600c805463ffffffff191663ffffffff92909216919091179055565b600260209081526000928352604080842090915290825290205481565b600d54600114611a99576040805162461bcd60e51b815260206004820152601260248201527111db1bd8985b14185a5c8e881313d0d2d15160721b604482015290519081900360640190fd5b6000600d55600654604080516370a0823160e01b81523060048201529051611ba9926001600160a01b0316916370a08231916024808301926020929190829003018186803b158015611aea57600080fd5b505afa158015611afe573d6000803e3d6000fd5b505050506040513d6020811015611b1457600080fd5b5051600754604080516370a0823160e01b815230600482015290516001600160a01b03909216916370a0823191602480820192602092909190829003018186803b158015611b6157600080fd5b505afa158015611b75573d6000803e3d6000fd5b505050506040513d6020811015611b8b57600080fd5b50516008546001600160701b0380821691600160701b900416611e07565b6001600d55565b604080518082018252601981527f7472616e7366657228616464726573732c75696e74323536290000000000000060209182015281516001600160a01b0385811660248301526044808301869052845180840390910181526064909201845291810180516001600160e01b031663a9059cbb60e01b1781529251815160009460609489169392918291908083835b60208310611c5d5780518252601f199092019160209182019101611c3e565b6001836020036101000a0380198251168184511680821785525050505050509050019150506000604051808303816000865af19150503d8060008114611cbf576040519150601f19603f3d011682016040523d82523d6000602084013e611cc4565b606091505b5091509150818015611cf2575080511580611cf25750808060200190516020811015611cef57600080fd5b50515b611d43576040805162461bcd60e51b815260206004820152601b60248201527f476c6f62616c506169723a205452414e534645525f4641494c45440000000000604482015290519081900360640190fd5b5050505050565b600082611d5957506000610d1c565b82820282848281611d6657fe5b0414611da35760405162461bcd60e51b815260040180806020018281038252602181526020018061246c6021913960400191505060405180910390fd5b9392505050565b600082821115611e01576040805162461bcd60e51b815260206004820152601e60248201527f536166654d6174683a207375627472616374696f6e206f766572666c6f770000604482015290519081900360640190fd5b50900390565b6001600160701b038411801590611e2557506001600160701b038311155b611e6d576040805162461bcd60e51b8152602060048201526014602482015273476c6f62616c506169723a204f564552464c4f5760601b604482015290519081900360640190fd5b60085463ffffffff42811691600160e01b90048116820390811615801590611e9d57506001600160701b03841615155b8015611eb157506001600160701b03831615155b15611f1c578063ffffffff16611ed985611eca866123b4565b6001600160e01b0316906123c6565b600980546001600160e01b03929092169290920201905563ffffffff8116611f0484611eca876123b4565b600a80546001600160e01b0392909216929092020190555b600880546dffffffffffffffffffffffffffff19166001600160701b03888116919091176dffffffffffffffffffffffffffff60701b1916600160701b8883168102919091176001600160e01b0316600160e01b63ffffffff871602179283905560408051848416815291909304909116602082015281517f1c411e9a96e071241c2f21f7726b17ae89e3cab4c78be50e062b03a9fffbbad1929181900390910190a1505050505050565b6001600160a01b03808416600081815260026020908152604080832094871680845294825291829020859055815185815291517f8c5be1e5ebec7d5bd14f71427d1e84f3dd0314c0f7b2291e5b200ac8c7c3b9259281900390910190a3505050565b6001600160a01b03831660009081526001602052604090205461204c9082611daa565b6001600160a01b03808516600090815260016020526040808220939093559084168152205461207b90826123eb565b6001600160a01b0380841660008181526001602090815260409182902094909455805185815290519193928716927fddf252ad1be2c89b69c2b068fc378daa952ba7f163c4a11628f55a4df523b3ef92918290030190a3505050565b600080600560009054906101000a90046001600160a01b03166001600160a01b031663017e7e586040518163ffffffff1660e01b815260040160206040518083038186803b15801561212857600080fd5b505afa15801561213c573d6000803e3d6000fd5b505050506040513d602081101561215257600080fd5b5051600b546001600160a01b03821615801594509192509061221c57801561221757600061218f6110606001600160701b03888116908816611d4a565b9050600061219c83612230565b9050808211156122145760006121be6121b58484611daa565b60005490611d4a565b600c549091506000906121f09084906121ea90879063ffffffff640100000000909104811690611d4a16565b906123eb565b905060008183816121fd57fe5b0490508015612210576122108782612282565b5050505b50505b612228565b8015612228576000600b555b505092915050565b60006003821115612273575080600160028204015b8181101561226d5780915060028182858161225c57fe5b04018161226557fe5b049050612245565b5061227d565b811561227d575060015b919050565b60005461228f90826123eb565b60009081556001600160a01b0383168152600160205260409020546122b490826123eb565b6001600160a01b03831660008181526001602090815260408083209490945583518581529351929391927fddf252ad1be2c89b69c2b068fc378daa952ba7f163c4a11628f55a4df523b3ef9281900390910190a35050565b600081831061231b5781611da3565b5090919050565b6001600160a01b0382166000908152600160205260409020546123459082611daa565b6001600160a01b0383166000908152600160205260408120919091555461236c9082611daa565b60009081556040805183815290516001600160a01b038516917fddf252ad1be2c89b69c2b068fc378daa952ba7f163c4a11628f55a4df523b3ef919081900360200190a35050565b6001600160701b0316600160701b0290565b60006001600160701b0382166001600160e01b038416816123e357fe5b049392505050565b600082820183811015611da3576040805162461bcd60e51b815260206004820152601b60248201527f536166654d6174683a206164646974696f6e206f766572666c6f770000000000604482015290519081900360640190fdfe476c6f62616c506169723a20494e53554646494349454e545f4f55545055545f414d4f554e54536166654d6174683a206d756c7469706c69636174696f6e206f766572666c6f77476c6f62616c506169723a20494e53554646494349454e545f494e5055545f414d4f554e54476c6f62616c506169723a20494e53554646494349454e545f4c49515549444954595f4d494e544544476c6f62616c506169723a20494e53554646494349454e545f4c4951554944495459476c6f62616c506169723a20494e53554646494349454e545f4c49515549444954595f4255524e4544a26469706673582212208b23cb2cad5bdcf5948ae50fd4ca63d9d6b52d27a2c84d7e545e803d921f600664736f6c634300060c0033",
  "linkReferences": {},
  "deployedLinkReferences": {}
}