{
  "_format": "hh-sol-artifact-1",
  "contractName": "Router",
  "sourceName": "contracts/Router.sol",
  "abi": [
    {
      "inputs": [
        {
          "internalType": "address",
          "name": "_factory",
          "type": "address"
        },
        {
          "internalType": "address",
          "name": "_WETH",
          "type": "address"
        }
      ],
      "stateMutability": "nonpayable",
      "type": "constructor"
    },
    {
      "anonymous": false,
      "inputs": [
        {
          "indexed": true,
          "internalType": "address",
          "name": "previousOwner",
          "type": "address"
        },
        {
          "indexed": true,
          "internalType": "address",
          "name": "newOwner",
          "type": "address"
        }
      ],
      "name": "OwnershipTransferred",
      "type": "event"
    },
    {
      "inputs": [],
      "name": "WETH",
      "outputs": [
        {
          "internalType": "address",
          "name": "",
          "type": "address"
        }
      ],
      "stateMutability": "view",
      "type": "function"
    },
    {
      "inputs": [
        {
          "internalType": "address",
          "name": "tokenA",
          "type": "address"
        },
        {
          "internalType": "address",
          "name": "tokenB",
          "type": "address"
        },
        {
          "internalType": "uint256",
          "name": "amountADesired",
          "type": "uint256"
        },
        {
          "internalType": "uint256",
          "name": "amountBDesired",
          "type": "uint256"
        },
        {
          "internalType": "uint256",
          "name": "amountAMin",
          "type": "uint256"
        },
        {
          "internalType": "uint256",
          "name": "amountBMin",
          "type": "uint256"
        },
        {
          "internalType": "address",
          "name": "to",
          "type": "address"
        },
        {
          "internalType": "uint256",
          "name": "deadline",
          "type": "uint256"
        }
      ],
      "name": "addLiquidity",
      "outputs": [
        {
          "internalType": "uint256",
          "name": "amountA",
          "type": "uint256"
        },
        {
          "internalType": "uint256",
          "name": "amountB",
          "type": "uint256"
        },
        {
          "internalType": "uint256",
          "name": "liquidity",
          "type": "uint256"
        }
      ],
      "stateMutability": "nonpayable",
      "type": "function"
    },
    {
      "inputs": [
        {
          "internalType": "address",
          "name": "token",
          "type": "address"
        },
        {
          "internalType": "uint256",
          "name": "amountTokenDesired",
          "type": "uint256"
        },
        {
          "internalType": "uint256",
          "name": "amountTokenMin",
          "type": "uint256"
        },
        {
          "internalType": "uint256",
          "name": "amountETHMin",
          "type": "uint256"
        },
        {
          "internalType": "address",
          "name": "to",
          "type": "address"
        },
        {
          "internalType": "uint256",
          "name": "deadline",
          "type": "uint256"
        }
      ],
      "name": "addLiquidityETH",
      "outputs": [
        {
          "internalType": "uint256",
          "name": "amountToken",
          "type": "uint256"
        },
        {
          "internalType": "uint256",
          "name": "amountETH",
          "type": "uint256"
        },
        {
          "internalType": "uint256",
          "name": "liquidity",
          "type": "uint256"
        }
      ],
      "stateMutability": "payable",
      "type": "function"
    },
    {
      "inputs": [],
      "name": "factory",
      "outputs": [
        {
          "internalType": "address",
          "name": "",
          "type": "address"
        }
      ],
      "stateMutability": "view",
      "type": "function"
    },
    {
      "inputs": [
        {
          "internalType": "uint256",
          "name": "amountOut",
          "type": "uint256"
        },
        {
          "internalType": "uint256",
          "name": "reserveIn",
          "type": "uint256"
        },
        {
          "internalType": "uint256",
          "name": "reserveOut",
          "type": "uint256"
        },
        {
          "internalType": "uint256",
          "name": "swapFee",
          "type": "uint256"
        }
      ],
      "name": "getAmountIn",
      "outputs": [
        {
          "internalType": "uint256",
          "name": "amountIn",
          "type": "uint256"
        }
      ],
      "stateMutability": "pure",
      "type": "function"
    },
    {
      "inputs": [
        {
          "internalType": "uint256",
          "name": "amountIn",
          "type": "uint256"
        },
        {
          "internalType": "uint256",
          "name": "reserveIn",
          "type": "uint256"
        },
        {
          "internalType": "uint256",
          "name": "reserveOut",
          "type": "uint256"
        },
        {
          "internalType": "uint256",
          "name": "swapFee",
          "type": "uint256"
        }
      ],
      "name": "getAmountOut",
      "outputs": [
        {
          "internalType": "uint256",
          "name": "amountOut",
          "type": "uint256"
        }
      ],
      "stateMutability": "pure",
      "type": "function"
    },
    {
      "inputs": [
        {
          "internalType": "uint256",
          "name": "amountOut",
          "type": "uint256"
        },
        {
          "internalType": "address[]",
          "name": "path",
          "type": "address[]"
        }
      ],
      "name": "getAmountsIn",
      "outputs": [
        {
          "internalType": "uint256[]",
          "name": "amounts",
          "type": "uint256[]"
        }
      ],
      "stateMutability": "view",
      "type": "function"
    },
    {
      "inputs": [
        {
          "internalType": "uint256",
          "name": "amountIn",
          "type": "uint256"
        },
        {
          "internalType": "address[]",
          "name": "path",
          "type": "address[]"
        }
      ],
      "name": "getAmountsOut",
      "outputs": [
        {
          "internalType": "uint256[]",
          "name": "amounts",
          "type": "uint256[]"
        }
      ],
      "stateMutability": "view",
      "type": "function"
    },
    {
      "inputs": [],
      "name": "owner",
      "outputs": [
        {
          "internalType": "address",
          "name": "",
          "type": "address"
        }
      ],
      "stateMutability": "view",
      "type": "function"
    },
    {
      "inputs": [
        {
          "internalType": "uint256",
          "name": "amountA",
          "type": "uint256"
        },
        {
          "internalType": "uint256",
          "name": "reserveA",
          "type": "uint256"
        },
        {
          "internalType": "uint256",
          "name": "reserveB",
          "type": "uint256"
        }
      ],
      "name": "quote",
      "outputs": [
        {
          "internalType": "uint256",
          "name": "amountB",
          "type": "uint256"
        }
      ],
      "stateMutability": "pure",
      "type": "function"
    },
    {
      "inputs": [
        {
          "internalType": "address",
          "name": "tokenA",
          "type": "address"
        },
        {
          "internalType": "address",
          "name": "tokenB",
          "type": "address"
        },
        {
          "internalType": "uint256",
          "name": "liquidity",
          "type": "uint256"
        },
        {
          "internalType": "uint256",
          "name": "amountAMin",
          "type": "uint256"
        },
        {
          "internalType": "uint256",
          "name": "amountBMin",
          "type": "uint256"
        },
        {
          "internalType": "address",
          "name": "to",
          "type": "address"
        },
        {
          "internalType": "uint256",
          "name": "deadline",
          "type": "uint256"
        }
      ],
      "name": "removeLiquidity",
      "outputs": [
        {
          "internalType": "uint256",
          "name": "amountA",
          "type": "uint256"
        },
        {
          "internalType": "uint256",
          "name": "amountB",
          "type": "uint256"
        }
      ],
      "stateMutability": "nonpayable",
      "type": "function"
    },
    {
      "inputs": [
        {
          "internalType": "address",
          "name": "token",
          "type": "address"
        },
        {
          "internalType": "uint256",
          "name": "liquidity",
          "type": "uint256"
        },
        {
          "internalType": "uint256",
          "name": "amountTokenMin",
          "type": "uint256"
        },
        {
          "internalType": "uint256",
          "name": "amountETHMin",
          "type": "uint256"
        },
        {
          "internalType": "address",
          "name": "to",
          "type": "address"
        },
        {
          "internalType": "uint256",
          "name": "deadline",
          "type": "uint256"
        }
      ],
      "name": "removeLiquidityETH",
      "outputs": [
        {
          "internalType": "uint256",
          "name": "amountToken",
          "type": "uint256"
        },
        {
          "internalType": "uint256",
          "name": "amountETH",
          "type": "uint256"
        }
      ],
      "stateMutability": "nonpayable",
      "type": "function"
    },
    {
      "inputs": [
        {
          "internalType": "address",
          "name": "token",
          "type": "address"
        },
        {
          "internalType": "uint256",
          "name": "liquidity",
          "type": "uint256"
        },
        {
          "internalType": "uint256",
          "name": "amountTokenMin",
          "type": "uint256"
        },
        {
          "internalType": "uint256",
          "name": "amountETHMin",
          "type": "uint256"
        },
        {
          "internalType": "address",
          "name": "to",
          "type": "address"
        },
        {
          "internalType": "uint256",
          "name": "deadline",
          "type": "uint256"
        }
      ],
      "name": "removeLiquidityETHSupportingFeeOnTransferTokens",
      "outputs": [
        {
          "internalType": "uint256",
          "name": "amountETH",
          "type": "uint256"
        }
      ],
      "stateMutability": "nonpayable",
      "type": "function"
    },
    {
      "inputs": [
        {
          "internalType": "address",
          "name": "token",
          "type": "address"
        },
        {
          "internalType": "uint256",
          "name": "liquidity",
          "type": "uint256"
        },
        {
          "internalType": "uint256",
          "name": "amountTokenMin",
          "type": "uint256"
        },
        {
          "internalType": "uint256",
          "name": "amountETHMin",
          "type": "uint256"
        },
        {
          "internalType": "address",
          "name": "to",
          "type": "address"
        },
        {
          "internalType": "uint256",
          "name": "deadline",
          "type": "uint256"
        },
        {
          "internalType": "bool",
          "name": "approveMax",
          "type": "bool"
        },
        {
          "internalType": "uint8",
          "name": "v",
          "type": "uint8"
        },
        {
          "internalType": "bytes32",
          "name": "r",
          "type": "bytes32"
        },
        {
          "internalType": "bytes32",
          "name": "s",
          "type": "bytes32"
        }
      ],
      "name": "removeLiquidityETHWithPermit",
      "outputs": [
        {
          "internalType": "uint256",
          "name": "amountToken",
          "type": "uint256"
        },
        {
          "internalType": "uint256",
          "name": "amountETH",
          "type": "uint256"
        }
      ],
      "stateMutability": "nonpayable",
      "type": "function"
    },
    {
      "inputs": [
        {
          "internalType": "address",
          "name": "token",
          "type": "address"
        },
        {
          "internalType": "uint256",
          "name": "liquidity",
          "type": "uint256"
        },
        {
          "internalType": "uint256",
          "name": "amountTokenMin",
          "type": "uint256"
        },
        {
          "internalType": "uint256",
          "name": "amountETHMin",
          "type": "uint256"
        },
        {
          "internalType": "address",
          "name": "to",
          "type": "address"
        },
        {
          "internalType": "uint256",
          "name": "deadline",
          "type": "uint256"
        },
        {
          "internalType": "bool",
          "name": "approveMax",
          "type": "bool"
        },
        {
          "internalType": "uint8",
          "name": "v",
          "type": "uint8"
        },
        {
          "internalType": "bytes32",
          "name": "r",
          "type": "bytes32"
        },
        {
          "internalType": "bytes32",
          "name": "s",
          "type": "bytes32"
        }
      ],
      "name": "removeLiquidityETHWithPermitSupportingFeeOnTransferTokens",
      "outputs": [
        {
          "internalType": "uint256",
          "name": "amountETH",
          "type": "uint256"
        }
      ],
      "stateMutability": "nonpayable",
      "type": "function"
    },
    {
      "inputs": [
        {
          "internalType": "address",
          "name": "tokenA",
          "type": "address"
        },
        {
          "internalType": "address",
          "name": "tokenB",
          "type": "address"
        },
        {
          "internalType": "uint256",
          "name": "liquidity",
          "type": "uint256"
        },
        {
          "internalType": "uint256",
          "name": "amountAMin",
          "type": "uint256"
        },
        {
          "internalType": "uint256",
          "name": "amountBMin",
          "type": "uint256"
        },
        {
          "internalType": "address",
          "name": "to",
          "type": "address"
        },
        {
          "internalType": "uint256",
          "name": "deadline",
          "type": "uint256"
        },
        {
          "internalType": "bool",
          "name": "approveMax",
          "type": "bool"
        },
        {
          "internalType": "uint8",
          "name": "v",
          "type": "uint8"
        },
        {
          "internalType": "bytes32",
          "name": "r",
          "type": "bytes32"
        },
        {
          "internalType": "bytes32",
          "name": "s",
          "type": "bytes32"
        }
      ],
      "name": "removeLiquidityWithPermit",
      "outputs": [
        {
          "internalType": "uint256",
          "name": "amountA",
          "type": "uint256"
        },
        {
          "internalType": "uint256",
          "name": "amountB",
          "type": "uint256"
        }
      ],
      "stateMutability": "nonpayable",
      "type": "function"
    },
    {
      "inputs": [],
      "name": "renounceOwnership",
      "outputs": [],
      "stateMutability": "nonpayable",
      "type": "function"
    },
    {
      "inputs": [
        {
          "internalType": "address",
          "name": "_swapFeeReward",
          "type": "address"
        }
      ],
      "name": "setSwapFeeReward",
      "outputs": [],
      "stateMutability": "nonpayable",
      "type": "function"
    },
    {
      "inputs": [
        {
          "internalType": "uint256",
          "name": "amountOut",
          "type": "uint256"
        },
        {
          "internalType": "address[]",
          "name": "path",
          "type": "address[]"
        },
        {
          "internalType": "address",
          "name": "to",
          "type": "address"
        },
        {
          "internalType": "uint256",
          "name": "deadline",
          "type": "uint256"
        }
      ],
      "name": "swapETHForExactTokens",
      "outputs": [
        {
          "internalType": "uint256[]",
          "name": "amounts",
          "type": "uint256[]"
        }
      ],
      "stateMutability": "payable",
      "type": "function"
    },
    {
      "inputs": [
        {
          "internalType": "uint256",
          "name": "amountOutMin",
          "type": "uint256"
        },
        {
          "internalType": "address[]",
          "name": "path",
          "type": "address[]"
        },
        {
          "internalType": "address",
          "name": "to",
          "type": "address"
        },
        {
          "internalType": "uint256",
          "name": "deadline",
          "type": "uint256"
        }
      ],
      "name": "swapExactETHForTokens",
      "outputs": [
        {
          "internalType": "uint256[]",
          "name": "amounts",
          "type": "uint256[]"
        }
      ],
      "stateMutability": "payable",
      "type": "function"
    },
    {
      "inputs": [
        {
          "internalType": "uint256",
          "name": "amountOutMin",
          "type": "uint256"
        },
        {
          "internalType": "address[]",
          "name": "path",
          "type": "address[]"
        },
        {
          "internalType": "address",
          "name": "to",
          "type": "address"
        },
        {
          "internalType": "uint256",
          "name": "deadline",
          "type": "uint256"
        }
      ],
      "name": "swapExactETHForTokensSupportingFeeOnTransferTokens",
      "outputs": [],
      "stateMutability": "payable",
      "type": "function"
    },
    {
      "inputs": [
        {
          "internalType": "uint256",
          "name": "amountIn",
          "type": "uint256"
        },
        {
          "internalType": "uint256",
          "name": "amountOutMin",
          "type": "uint256"
        },
        {
          "internalType": "address[]",
          "name": "path",
          "type": "address[]"
        },
        {
          "internalType": "address",
          "name": "to",
          "type": "address"
        },
        {
          "internalType": "uint256",
          "name": "deadline",
          "type": "uint256"
        }
      ],
      "name": "swapExactTokensForETH",
      "outputs": [
        {
          "internalType": "uint256[]",
          "name": "amounts",
          "type": "uint256[]"
        }
      ],
      "stateMutability": "nonpayable",
      "type": "function"
    },
    {
      "inputs": [
        {
          "internalType": "uint256",
          "name": "amountIn",
          "type": "uint256"
        },
        {
          "internalType": "uint256",
          "name": "amountOutMin",
          "type": "uint256"
        },
        {
          "internalType": "address[]",
          "name": "path",
          "type": "address[]"
        },
        {
          "internalType": "address",
          "name": "to",
          "type": "address"
        },
        {
          "internalType": "uint256",
          "name": "deadline",
          "type": "uint256"
        }
      ],
      "name": "swapExactTokensForETHSupportingFeeOnTransferTokens",
      "outputs": [],
      "stateMutability": "nonpayable",
      "type": "function"
    },
    {
      "inputs": [
        {
          "internalType": "uint256",
          "name": "amountIn",
          "type": "uint256"
        },
        {
          "internalType": "uint256",
          "name": "amountOutMin",
          "type": "uint256"
        },
        {
          "internalType": "address[]",
          "name": "path",
          "type": "address[]"
        },
        {
          "internalType": "address",
          "name": "to",
          "type": "address"
        },
        {
          "internalType": "uint256",
          "name": "deadline",
          "type": "uint256"
        }
      ],
      "name": "swapExactTokensForTokens",
      "outputs": [
        {
          "internalType": "uint256[]",
          "name": "amounts",
          "type": "uint256[]"
        }
      ],
      "stateMutability": "nonpayable",
      "type": "function"
    },
    {
      "inputs": [
        {
          "internalType": "uint256",
          "name": "amountIn",
          "type": "uint256"
        },
        {
          "internalType": "uint256",
          "name": "amountOutMin",
          "type": "uint256"
        },
        {
          "internalType": "address[]",
          "name": "path",
          "type": "address[]"
        },
        {
          "internalType": "address",
          "name": "to",
          "type": "address"
        },
        {
          "internalType": "uint256",
          "name": "deadline",
          "type": "uint256"
        }
      ],
      "name": "swapExactTokensForTokensSupportingFeeOnTransferTokens",
      "outputs": [],
      "stateMutability": "nonpayable",
      "type": "function"
    },
    {
      "inputs": [],
      "name": "swapFeeReward",
      "outputs": [
        {
          "internalType": "address",
          "name": "",
          "type": "address"
        }
      ],
      "stateMutability": "view",
      "type": "function"
    },
    {
      "inputs": [
        {
          "internalType": "uint256",
          "name": "amountOut",
          "type": "uint256"
        },
        {
          "internalType": "uint256",
          "name": "amountInMax",
          "type": "uint256"
        },
        {
          "internalType": "address[]",
          "name": "path",
          "type": "address[]"
        },
        {
          "internalType": "address",
          "name": "to",
          "type": "address"
        },
        {
          "internalType": "uint256",
          "name": "deadline",
          "type": "uint256"
        }
      ],
      "name": "swapTokensForExactETH",
      "outputs": [
        {
          "internalType": "uint256[]",
          "name": "amounts",
          "type": "uint256[]"
        }
      ],
      "stateMutability": "nonpayable",
      "type": "function"
    },
    {
      "inputs": [
        {
          "internalType": "uint256",
          "name": "amountOut",
          "type": "uint256"
        },
        {
          "internalType": "uint256",
          "name": "amountInMax",
          "type": "uint256"
        },
        {
          "internalType": "address[]",
          "name": "path",
          "type": "address[]"
        },
        {
          "internalType": "address",
          "name": "to",
          "type": "address"
        },
        {
          "internalType": "uint256",
          "name": "deadline",
          "type": "uint256"
        }
      ],
      "name": "swapTokensForExactTokens",
      "outputs": [
        {
          "internalType": "uint256[]",
          "name": "amounts",
          "type": "uint256[]"
        }
      ],
      "stateMutability": "nonpayable",
      "type": "function"
    },
    {
      "inputs": [
        {
          "internalType": "address",
          "name": "newOwner",
          "type": "address"
        }
      ],
      "name": "transferOwnership",
      "outputs": [],
      "stateMutability": "nonpayable",
      "type": "function"
    },
    {
      "stateMutability": "payable",
      "type": "receive"
    }
  ],
  "bytecode": "0x60c06040523480156200001157600080fd5b5060405162004e4238038062004e42833981810160405260408110156200003757600080fd5b50805160209091015160006200004c620000b5565b600080546001600160a01b0319166001600160a01b0383169081178255604051929350917f8be0079c531659141344cd1fd0a4f28419497f9722a3daafe3b4186f6b6457e0908290a3506001600160601b0319606092831b8116608052911b1660a052620000b9565b3390565b60805160601c60a05160601c614c5b620001e7600039806101d65280610e0c5280610e475280610f29528061114752806114d1528061165c5280611abf5280611b9a5280611c745280611d425280611e885280611f10528061215d52806121e05280612294528061236052806123f55280612469528061294c5280612c2c5280612c825280612cb65280612d2a5280612eb85280612ffb5280613083525080610fb7528061108e528061120d52806112465280611381528061155f528061163a52806117aa5280611dd55280611f42528061208f528061249b52806126d952806128d152806128fa528061292a5280612a975280612c605280612f4b52806130b55280613a285280613a6b5280613f3552806141bb52806144e5528061459e52806146515250614c5b6000f3fe6080604052600436106101c65760003560e01c80638da5cb5b116100f7578063c45a015511610095578063f2fde38b11610064578063f2fde38b14610c8f578063f305d71914610cc2578063fb3bdb4114610d08578063fbbeedf114610d8c576101ff565b8063c45a015514610ad2578063d06ca61f14610ae7578063ded9382a14610b9c578063e8e3370014610c0f576101ff565b8063ad615dec116100d1578063ad615dec14610968578063af2979eb1461099e578063b6f9de95146109f1578063baa2abde14610a75576101ff565b80638da5cb5b1461090d578063a3ddb30b1461093e578063ad5c464814610953576101ff565b8063571fd01211610164578063715018a61161013e578063715018a614610748578063791ac9471461075d5780637ff36ab5146107f35780638803dbee14610877576101ff565b8063571fd012146106035780635b0d59841461063f5780635c11d795146106b2576101ff565b80632195995c116101a05780632195995c1461040b57806338ed1739146104895780634a25d94a1461051f57806352707d8c146105b5576101ff565b806302751cec1461020457806318cbafe5146102705780631f00ca7414610356576101ff565b366101ff57336001600160a01b037f000000000000000000000000000000000000000000000000000000000000000016146101fd57fe5b005b600080fd5b34801561021057600080fd5b50610257600480360360c081101561022757600080fd5b506001600160a01b0381358116916020810135916040820135916060810135916080820135169060a00135610dbf565b6040805192835260208301919091528051918290030190f35b34801561027c57600080fd5b50610306600480360360a081101561029357600080fd5b813591602081013591810190606081016040820135600160201b8111156102b957600080fd5b8201836020820111156102cb57600080fd5b803590602001918460208302840111600160201b831117156102ec57600080fd5b91935091506001600160a01b038135169060200135610ed9565b60408051602080825283518183015283519192839290830191858101910280838360005b8381101561034257818101518382015260200161032a565b505050509050019250505060405180910390f35b34801561036257600080fd5b506103066004803603604081101561037957600080fd5b81359190810190604081016020820135600160201b81111561039a57600080fd5b8201836020820111156103ac57600080fd5b803590602001918460208302840111600160201b831117156103cd57600080fd5b919080806020026020016040519081016040528093929190818152602001838360200280828437600092019190915250929550611206945050505050565b34801561041757600080fd5b50610257600480360361016081101561042f57600080fd5b506001600160a01b038135811691602081013582169160408201359160608101359160808201359160a08101359091169060c08101359060e081013515159060ff610100820135169061012081013590610140013561123c565b34801561049557600080fd5b50610306600480360360a08110156104ac57600080fd5b813591602081013591810190606081016040820135600160201b8111156104d257600080fd5b8201836020820111156104e457600080fd5b803590602001918460208302840111600160201b8311171561050557600080fd5b91935091506001600160a01b038135169060200135611336565b34801561052b57600080fd5b50610306600480360360a081101561054257600080fd5b813591602081013591810190606081016040820135600160201b81111561056857600080fd5b82018360208201111561057a57600080fd5b803590602001918460208302840111600160201b8311171561059b57600080fd5b91935091506001600160a01b038135169060200135611481565b3480156105c157600080fd5b506105f1600480360360808110156105d857600080fd5b508035906020810135906040810135906060013561160d565b60408051918252519081900360200190f35b34801561060f57600080fd5b506105f16004803603608081101561062657600080fd5b5080359060208101359060408101359060600135611624565b34801561064b57600080fd5b506105f1600480360361014081101561066357600080fd5b506001600160a01b0381358116916020810135916040820135916060810135916080820135169060a08101359060c081013515159060ff60e08201351690610100810135906101200135611632565b3480156106be57600080fd5b506101fd600480360360a08110156106d557600080fd5b813591602081013591810190606081016040820135600160201b8111156106fb57600080fd5b82018360208201111561070d57600080fd5b803590602001918460208302840111600160201b8311171561072e57600080fd5b91935091506001600160a01b038135169060200135611740565b34801561075457600080fd5b506101fd6119bd565b34801561076957600080fd5b506101fd600480360360a081101561078057600080fd5b813591602081013591810190606081016040820135600160201b8111156107a657600080fd5b8201836020820111156107b857600080fd5b803590602001918460208302840111600160201b831117156107d957600080fd5b91935091506001600160a01b038135169060200135611a71565b6103066004803603608081101561080957600080fd5b81359190810190604081016020820135600160201b81111561082a57600080fd5b82018360208201111561083c57600080fd5b803590602001918460208302840111600160201b8311171561085d57600080fd5b91935091506001600160a01b038135169060200135611cfa565b34801561088357600080fd5b50610306600480360360a081101561089a57600080fd5b813591602081013591810190606081016040820135600160201b8111156108c057600080fd5b8201836020820111156108d257600080fd5b803590602001918460208302840111600160201b831117156108f357600080fd5b91935091506001600160a01b038135169060200135612044565b34801561091957600080fd5b5061092261213d565b604080516001600160a01b039092168252519081900360200190f35b34801561094a57600080fd5b5061092261214c565b34801561095f57600080fd5b5061092261215b565b34801561097457600080fd5b506105f16004803603606081101561098b57600080fd5b508035906020810135906040013561217f565b3480156109aa57600080fd5b506105f1600480360360c08110156109c157600080fd5b506001600160a01b0381358116916020810135916040820135916060810135916080820135169060a00135612194565b6101fd60048036036080811015610a0757600080fd5b81359190810190604081016020820135600160201b811115610a2857600080fd5b820183602082011115610a3a57600080fd5b803590602001918460208302840111600160201b83111715610a5b57600080fd5b91935091506001600160a01b03813516906020013561231a565b348015610a8157600080fd5b50610257600480360360e0811015610a9857600080fd5b506001600160a01b038135811691602081013582169160408201359160608101359160808201359160a08101359091169060c0013561268b565b348015610ade57600080fd5b506109226128cf565b348015610af357600080fd5b5061030660048036036040811015610b0a57600080fd5b81359190810190604081016020820135600160201b811115610b2b57600080fd5b820183602082011115610b3d57600080fd5b803590602001918460208302840111600160201b83111715610b5e57600080fd5b9190808060200260200160405190810160405280939291908181526020018383602002808284376000920191909152509295506128f3945050505050565b348015610ba857600080fd5b506102576004803603610140811015610bc057600080fd5b506001600160a01b0381358116916020810135916040820135916060810135916080820135169060a08101359060c081013515159060ff60e08201351690610100810135906101200135612920565b348015610c1b57600080fd5b50610c716004803603610100811015610c3357600080fd5b506001600160a01b038135811691602081013582169160408201359160608101359160808201359160a08101359160c0820135169060e00135612a34565b60408051938452602084019290925282820152519081900360600190f35b348015610c9b57600080fd5b506101fd60048036036020811015610cb257600080fd5b50356001600160a01b0316612b67565b610c71600480360360c0811015610cd857600080fd5b506001600160a01b0381358116916020810135916040820135916060810135916080820135169060a00135612bdd565b61030660048036036080811015610d1e57600080fd5b81359190810190604081016020820135600160201b811115610d3f57600080fd5b820183602082011115610d5157600080fd5b803590602001918460208302840111600160201b83111715610d7257600080fd5b91935091506001600160a01b038135169060200135612e70565b348015610d9857600080fd5b506101fd60048036036020811015610daf57600080fd5b50356001600160a01b03166131e9565b6000808242811015610e06576040805162461bcd60e51b81526020600482015260156024820152600080516020614a96833981519152604482015290519081900360640190fd5b610e35897f00000000000000000000000000000000000000000000000000000000000000008a8a8a308a61268b565b9093509150610e45898685613275565b7f00000000000000000000000000000000000000000000000000000000000000006001600160a01b0316632e1a7d4d836040518263ffffffff1660e01b815260040180828152602001915050600060405180830381600087803b158015610eab57600080fd5b505af1158015610ebf573d6000803e3d6000fd5b50505050610ecd85836133df565b50965096945050505050565b60608142811015610f1f576040805162461bcd60e51b81526020600482015260156024820152600080516020614a96833981519152604482015290519081900360640190fd5b6001600160a01b037f00000000000000000000000000000000000000000000000000000000000000001686866000198101818110610f5957fe5b905060200201356001600160a01b03166001600160a01b031614610fb2576040805162461bcd60e51b815260206004820152601a6024820152600080516020614a76833981519152604482015290519081900360640190fd5b6110107f0000000000000000000000000000000000000000000000000000000000000000898888808060200260200160405190810160405280939291908181526020018383602002808284376000920191909152506134d792505050565b9150868260018451038151811061102357fe5b602002602001015110156110685760405162461bcd60e51b8152600401808060200182810382526028815260200180614b8d6028913960400191505060405180910390fd5b6111068686600081811061107857fe5b905060200201356001600160a01b0316336110ec7f00000000000000000000000000000000000000000000000000000000000000008a8a60008181106110ba57fe5b905060200201356001600160a01b03168b8b60018181106110d757fe5b905060200201356001600160a01b0316613657565b856000815181106110f957fe5b6020026020010151613779565b611145828787808060200260200160405190810160405280939291908181526020018383602002808284376000920191909152503092506138d6915050565b7f00000000000000000000000000000000000000000000000000000000000000006001600160a01b0316632e1a7d4d8360018551038151811061118457fe5b60200260200101516040518263ffffffff1660e01b815260040180828152602001915050600060405180830381600087803b1580156111c257600080fd5b505af11580156111d6573d6000803e3d6000fd5b505050506111fb84836001855103815181106111ee57fe5b60200260200101516133df565b509695505050505050565b60606112337f00000000000000000000000000000000000000000000000000000000000000008484613bb6565b90505b92915050565b600080600061126c7f00000000000000000000000000000000000000000000000000000000000000008f8f613657565b905060008761127b578c61127f565b6000195b6040805163d505accf60e01b815233600482015230602482015260448101839052606481018c905260ff8a16608482015260a4810189905260c4810188905290519192506001600160a01b0384169163d505accf9160e48082019260009290919082900301818387803b1580156112f557600080fd5b505af1158015611309573d6000803e3d6000fd5b5050505061131c8f8f8f8f8f8f8f61268b565b809450819550505050509b509b9950505050505050505050565b6060814281101561137c576040805162461bcd60e51b81526020600482015260156024820152600080516020614a96833981519152604482015290519081900360640190fd5b6113da7f0000000000000000000000000000000000000000000000000000000000000000898888808060200260200160405190810160405280939291908181526020018383602002808284376000920191909152506134d792505050565b915086826001845103815181106113ed57fe5b602002602001015110156114325760405162461bcd60e51b8152600401808060200182810382526028815260200180614b8d6028913960400191505060405180910390fd5b6114428686600081811061107857fe5b6111fb828787808060200260200160405190810160405280939291908181526020018383602002808284376000920191909152508992506138d6915050565b606081428110156114c7576040805162461bcd60e51b81526020600482015260156024820152600080516020614a96833981519152604482015290519081900360640190fd5b6001600160a01b037f0000000000000000000000000000000000000000000000000000000000000000168686600019810181811061150157fe5b905060200201356001600160a01b03166001600160a01b03161461155a576040805162461bcd60e51b815260206004820152601a6024820152600080516020614a76833981519152604482015290519081900360640190fd5b6115b87f000000000000000000000000000000000000000000000000000000000000000089888880806020026020016040519081016040528093929190818152602001838360200280828437600092019190915250613bb692505050565b915086826000815181106115c857fe5b602002602001015111156110685760405162461bcd60e51b8152600401808060200182810382526024815260200180614bd96024913960400191505060405180910390fd5b600061161b85858585613d15565b95945050505050565b600061161b85858585613dfa565b6000806116807f00000000000000000000000000000000000000000000000000000000000000008d7f0000000000000000000000000000000000000000000000000000000000000000613657565b905060008661168f578b611693565b6000195b6040805163d505accf60e01b815233600482015230602482015260448101839052606481018b905260ff8916608482015260a4810188905260c4810187905290519192506001600160a01b0384169163d505accf9160e48082019260009290919082900301818387803b15801561170957600080fd5b505af115801561171d573d6000803e3d6000fd5b5050505061172f8d8d8d8d8d8d612194565b9d9c50505050505050505050505050565b8042811015611784576040805162461bcd60e51b81526020600482015260156024820152600080516020614a96833981519152604482015290519081900360640190fd5b6117f98585600081811061179457fe5b905060200201356001600160a01b0316336117f37f0000000000000000000000000000000000000000000000000000000000000000898960008181106117d657fe5b905060200201356001600160a01b03168a8a60018181106110d757fe5b8a613779565b60008585600019810181811061180b57fe5b905060200201356001600160a01b03166001600160a01b03166370a08231856040518263ffffffff1660e01b815260040180826001600160a01b0316815260200191505060206040518083038186803b15801561186757600080fd5b505afa15801561187b573d6000803e3d6000fd5b505050506040513d602081101561189157600080fd5b505160408051602088810282810182019093528882529293506118d3929091899189918291850190849080828437600092019190915250889250613ede915050565b8661197682888860001981018181106118e857fe5b905060200201356001600160a01b03166001600160a01b03166370a08231886040518263ffffffff1660e01b815260040180826001600160a01b0316815260200191505060206040518083038186803b15801561194457600080fd5b505afa158015611958573d6000803e3d6000fd5b505050506040513d602081101561196e57600080fd5b5051906142f0565b10156119b35760405162461bcd60e51b8152600401808060200182810382526028815260200180614b8d6028913960400191505060405180910390fd5b5050505050505050565b6119c561434d565b6000546001600160a01b03908116911614611a27576040805162461bcd60e51b815260206004820181905260248201527f4f776e61626c653a2063616c6c6572206973206e6f7420746865206f776e6572604482015290519081900360640190fd5b600080546040516001600160a01b03909116907f8be0079c531659141344cd1fd0a4f28419497f9722a3daafe3b4186f6b6457e0908390a3600080546001600160a01b0319169055565b8042811015611ab5576040805162461bcd60e51b81526020600482015260156024820152600080516020614a96833981519152604482015290519081900360640190fd5b6001600160a01b037f00000000000000000000000000000000000000000000000000000000000000001685856000198101818110611aef57fe5b905060200201356001600160a01b03166001600160a01b031614611b48576040805162461bcd60e51b815260206004820152601a6024820152600080516020614a76833981519152604482015290519081900360640190fd5b611b588585600081811061179457fe5b611b96858580806020026020016040519081016040528093929190818152602001838360200280828437600092019190915250309250613ede915050565b60007f00000000000000000000000000000000000000000000000000000000000000006001600160a01b03166370a08231306040518263ffffffff1660e01b815260040180826001600160a01b0316815260200191505060206040518083038186803b158015611c0557600080fd5b505afa158015611c19573d6000803e3d6000fd5b505050506040513d6020811015611c2f57600080fd5b5051905086811015611c725760405162461bcd60e51b8152600401808060200182810382526028815260200180614b8d6028913960400191505060405180910390fd5b7f00000000000000000000000000000000000000000000000000000000000000006001600160a01b0316632e1a7d4d826040518263ffffffff1660e01b815260040180828152602001915050600060405180830381600087803b158015611cd857600080fd5b505af1158015611cec573d6000803e3d6000fd5b505050506119b384826133df565b60608142811015611d40576040805162461bcd60e51b81526020600482015260156024820152600080516020614a96833981519152604482015290519081900360640190fd5b7f00000000000000000000000000000000000000000000000000000000000000006001600160a01b031686866000818110611d7757fe5b905060200201356001600160a01b03166001600160a01b031614611dd0576040805162461bcd60e51b815260206004820152601a6024820152600080516020614a76833981519152604482015290519081900360640190fd5b611e2e7f0000000000000000000000000000000000000000000000000000000000000000348888808060200260200160405190810160405280939291908181526020018383602002808284376000920191909152506134d792505050565b91508682600184510381518110611e4157fe5b60200260200101511015611e865760405162461bcd60e51b8152600401808060200182810382526028815260200180614b8d6028913960400191505060405180910390fd5b7f00000000000000000000000000000000000000000000000000000000000000006001600160a01b031663d0e30db083600081518110611ec257fe5b60200260200101516040518263ffffffff1660e01b81526004016000604051808303818588803b158015611ef557600080fd5b505af1158015611f09573d6000803e3d6000fd5b50505050507f00000000000000000000000000000000000000000000000000000000000000006001600160a01b031663a9059cbb611f6e7f0000000000000000000000000000000000000000000000000000000000000000898960008181106117d657fe5b84600081518110611f7b57fe5b60200260200101516040518363ffffffff1660e01b815260040180836001600160a01b0316815260200182815260200192505050602060405180830381600087803b158015611fc957600080fd5b505af1158015611fdd573d6000803e3d6000fd5b505050506040513d6020811015611ff357600080fd5b5051611ffb57fe5b61203a828787808060200260200160405190810160405280939291908181526020018383602002808284376000920191909152508992506138d6915050565b5095945050505050565b6060814281101561208a576040805162461bcd60e51b81526020600482015260156024820152600080516020614a96833981519152604482015290519081900360640190fd5b6120e87f000000000000000000000000000000000000000000000000000000000000000089888880806020026020016040519081016040528093929190818152602001838360200280828437600092019190915250613bb692505050565b915086826000815181106120f857fe5b602002602001015111156114325760405162461bcd60e51b8152600401808060200182810382526024815260200180614bd96024913960400191505060405180910390fd5b6000546001600160a01b031690565b6001546001600160a01b031681565b7f000000000000000000000000000000000000000000000000000000000000000081565b600061218c848484614351565b949350505050565b600081428110156121da576040805162461bcd60e51b81526020600482015260156024820152600080516020614a96833981519152604482015290519081900360640190fd5b612209887f0000000000000000000000000000000000000000000000000000000000000000898989308961268b565b90508092505061229288858a6001600160a01b03166370a08231306040518263ffffffff1660e01b815260040180826001600160a01b0316815260200191505060206040518083038186803b15801561226157600080fd5b505afa158015612275573d6000803e3d6000fd5b505050506040513d602081101561228b57600080fd5b5051613275565b7f00000000000000000000000000000000000000000000000000000000000000006001600160a01b0316632e1a7d4d836040518263ffffffff1660e01b815260040180828152602001915050600060405180830381600087803b1580156122f857600080fd5b505af115801561230c573d6000803e3d6000fd5b505050506111fb84836133df565b804281101561235e576040805162461bcd60e51b81526020600482015260156024820152600080516020614a96833981519152604482015290519081900360640190fd5b7f00000000000000000000000000000000000000000000000000000000000000006001600160a01b03168585600081811061239557fe5b905060200201356001600160a01b03166001600160a01b0316146123ee576040805162461bcd60e51b815260206004820152601a6024820152600080516020614a76833981519152604482015290519081900360640190fd5b60003490507f00000000000000000000000000000000000000000000000000000000000000006001600160a01b031663d0e30db0826040518263ffffffff1660e01b81526004016000604051808303818588803b15801561244e57600080fd5b505af1158015612462573d6000803e3d6000fd5b50505050507f00000000000000000000000000000000000000000000000000000000000000006001600160a01b031663a9059cbb6124c77f0000000000000000000000000000000000000000000000000000000000000000898960008181106117d657fe5b836040518363ffffffff1660e01b815260040180836001600160a01b0316815260200182815260200192505050602060405180830381600087803b15801561250e57600080fd5b505af1158015612522573d6000803e3d6000fd5b505050506040513d602081101561253857600080fd5b505161254057fe5b60008686600019810181811061255257fe5b905060200201356001600160a01b03166001600160a01b03166370a08231866040518263ffffffff1660e01b815260040180826001600160a01b0316815260200191505060206040518083038186803b1580156125ae57600080fd5b505afa1580156125c2573d6000803e3d6000fd5b505050506040513d60208110156125d857600080fd5b5051604080516020898102828101820190935289825292935061261a9290918a918a918291850190849080828437600092019190915250899250613ede915050565b87611976828989600019810181811061262f57fe5b905060200201356001600160a01b03166001600160a01b03166370a08231896040518263ffffffff1660e01b815260040180826001600160a01b0316815260200191505060206040518083038186803b15801561194457600080fd5b60008082428110156126d2576040805162461bcd60e51b81526020600482015260156024820152600080516020614a96833981519152604482015290519081900360640190fd5b60006126ff7f00000000000000000000000000000000000000000000000000000000000000008c8c613657565b604080516323b872dd60e01b81523360048201526001600160a01b03831660248201819052604482018d9052915192935090916323b872dd916064808201926020929091908290030181600087803b15801561275a57600080fd5b505af115801561276e573d6000803e3d6000fd5b505050506040513d602081101561278457600080fd5b50506040805163226bf2d160e21b81526001600160a01b03888116600483015282516000938493928616926389afcb44926024808301939282900301818787803b1580156127d157600080fd5b505af11580156127e5573d6000803e3d6000fd5b505050506040513d60408110156127fb57600080fd5b508051602090910151909250905060006128158e8e6143f7565b509050806001600160a01b03168e6001600160a01b03161461283857818361283b565b82825b90975095508a87101561287f5760405162461bcd60e51b8152600401808060200182810382526023815260200180614b6a6023913960400191505060405180910390fd5b898610156128be5760405162461bcd60e51b8152600401808060200182810382526023815260200180614aff6023913960400191505060405180910390fd5b505050505097509795505050505050565b7f000000000000000000000000000000000000000000000000000000000000000081565b60606112337f000000000000000000000000000000000000000000000000000000000000000084846134d7565b60008060006129707f00000000000000000000000000000000000000000000000000000000000000008e7f0000000000000000000000000000000000000000000000000000000000000000613657565b905060008761297f578c612983565b6000195b6040805163d505accf60e01b815233600482015230602482015260448101839052606481018c905260ff8a16608482015260a4810189905260c4810188905290519192506001600160a01b0384169163d505accf9160e48082019260009290919082900301818387803b1580156129f957600080fd5b505af1158015612a0d573d6000803e3d6000fd5b50505050612a1f8e8e8e8e8e8e610dbf565b909f909e509c50505050505050505050505050565b60008060008342811015612a7d576040805162461bcd60e51b81526020600482015260156024820152600080516020614a96833981519152604482015290519081900360640190fd5b612a8b8c8c8c8c8c8c6144d5565b90945092506000612abd7f00000000000000000000000000000000000000000000000000000000000000008e8e613657565b9050612acb8d338388613779565b612ad78c338387613779565b806001600160a01b0316636a627842886040518263ffffffff1660e01b815260040180826001600160a01b03168152602001915050602060405180830381600087803b158015612b2657600080fd5b505af1158015612b3a573d6000803e3d6000fd5b505050506040513d6020811015612b5057600080fd5b5051949d939c50939a509198505050505050505050565b612b6f61434d565b6000546001600160a01b03908116911614612bd1576040805162461bcd60e51b815260206004820181905260248201527f4f776e61626c653a2063616c6c6572206973206e6f7420746865206f776e6572604482015290519081900360640190fd5b612bda81614766565b50565b60008060008342811015612c26576040805162461bcd60e51b81526020600482015260156024820152600080516020614a96833981519152604482015290519081900360640190fd5b612c548a7f00000000000000000000000000000000000000000000000000000000000000008b348c8c6144d5565b90945092506000612ca67f00000000000000000000000000000000000000000000000000000000000000008c7f0000000000000000000000000000000000000000000000000000000000000000613657565b9050612cb48b338388613779565b7f00000000000000000000000000000000000000000000000000000000000000006001600160a01b031663d0e30db0856040518263ffffffff1660e01b81526004016000604051808303818588803b158015612d0f57600080fd5b505af1158015612d23573d6000803e3d6000fd5b50505050507f00000000000000000000000000000000000000000000000000000000000000006001600160a01b031663a9059cbb82866040518363ffffffff1660e01b815260040180836001600160a01b0316815260200182815260200192505050602060405180830381600087803b158015612d9f57600080fd5b505af1158015612db3573d6000803e3d6000fd5b505050506040513d6020811015612dc957600080fd5b5051612dd157fe5b806001600160a01b0316636a627842886040518263ffffffff1660e01b815260040180826001600160a01b03168152602001915050602060405180830381600087803b158015612e2057600080fd5b505af1158015612e34573d6000803e3d6000fd5b505050506040513d6020811015612e4a57600080fd5b5051925034841015612e6257612e62338534036133df565b505096509650969350505050565b60608142811015612eb6576040805162461bcd60e51b81526020600482015260156024820152600080516020614a96833981519152604482015290519081900360640190fd5b7f00000000000000000000000000000000000000000000000000000000000000006001600160a01b031686866000818110612eed57fe5b905060200201356001600160a01b03166001600160a01b031614612f46576040805162461bcd60e51b815260206004820152601a6024820152600080516020614a76833981519152604482015290519081900360640190fd5b612fa47f000000000000000000000000000000000000000000000000000000000000000088888880806020026020016040519081016040528093929190818152602001838360200280828437600092019190915250613bb692505050565b91503482600081518110612fb457fe5b60200260200101511115612ff95760405162461bcd60e51b8152600401808060200182810382526024815260200180614bd96024913960400191505060405180910390fd5b7f00000000000000000000000000000000000000000000000000000000000000006001600160a01b031663d0e30db08360008151811061303557fe5b60200260200101516040518263ffffffff1660e01b81526004016000604051808303818588803b15801561306857600080fd5b505af115801561307c573d6000803e3d6000fd5b50505050507f00000000000000000000000000000000000000000000000000000000000000006001600160a01b031663a9059cbb6130e17f0000000000000000000000000000000000000000000000000000000000000000898960008181106117d657fe5b846000815181106130ee57fe5b60200260200101516040518363ffffffff1660e01b815260040180836001600160a01b0316815260200182815260200192505050602060405180830381600087803b15801561313c57600080fd5b505af1158015613150573d6000803e3d6000fd5b505050506040513d602081101561316657600080fd5b505161316e57fe5b6131ad828787808060200260200160405190810160405280939291908181526020018383602002808284376000920191909152508992506138d6915050565b816000815181106131ba57fe5b602002602001015134111561203a5761203a33836000815181106131da57fe5b602002602001015134036133df565b6131f161434d565b6000546001600160a01b03908116911614613253576040805162461bcd60e51b815260206004820181905260248201527f4f776e61626c653a2063616c6c6572206973206e6f7420746865206f776e6572604482015290519081900360640190fd5b600180546001600160a01b0319166001600160a01b0392909216919091179055565b604080516001600160a01b038481166024830152604480830185905283518084039091018152606490920183526020820180516001600160e01b031663a9059cbb60e01b178152925182516000946060949389169392918291908083835b602083106132f25780518252601f1990920191602091820191016132d3565b6001836020036101000a0380198251168184511680821785525050505050509050019150506000604051808303816000865af19150503d8060008114613354576040519150601f19603f3d011682016040523d82523d6000602084013e613359565b606091505b5091509150818015613387575080511580613387575080806020019051602081101561338457600080fd5b50515b6133d8576040805162461bcd60e51b815260206004820152601f60248201527f5472616e7366657248656c7065723a205452414e534645525f4641494c454400604482015290519081900360640190fd5b5050505050565b604080516000808252602082019092526001600160a01b0384169083906040518082805190602001908083835b6020831061342b5780518252601f19909201916020918201910161340c565b6001836020036101000a03801982511681845116808217855250505050505090500191505060006040518083038185875af1925050503d806000811461348d576040519150601f19603f3d011682016040523d82523d6000602084013e613492565b606091505b50509050806134d25760405162461bcd60e51b8152600401808060200182810382526023815260200180614b476023913960400191505060405180910390fd5b505050565b6060600282511015613530576040805162461bcd60e51b815260206004820152601b60248201527f476c6f62616c4c6962726172793a20494e56414c49445f504154480000000000604482015290519081900360640190fd5b815167ffffffffffffffff8111801561354857600080fd5b50604051908082528060200260200182016040528015613572578160200160208202803683370190505b509050828160008151811061358357fe5b60200260200101818152505060005b600183510381101561364f576000806135d5878685815181106135b157fe5b60200260200101518786600101815181106135c857fe5b6020026020010151614806565b9150915061362b8484815181106135e857fe5b602002602001015183836136268b8a898151811061360257fe5b60200260200101518b8a6001018151811061361957fe5b60200260200101516148d9565b613d15565b84846001018151811061363a57fe5b60209081029190910101525050600101613592565b509392505050565b600080600061366685856143f7565b9150915085828260405160200180836001600160a01b031660601b8152601401826001600160a01b031660601b81526014019250505060405160208183030381529060405280519060200120876001600160a01b0316635855a25a6040518163ffffffff1660e01b815260040160206040518083038186803b1580156136eb57600080fd5b505afa1580156136ff573d6000803e3d6000fd5b505050506040513d602081101561371557600080fd5b5051604080516001600160f81b031960208083019190915260609590951b6bffffffffffffffffffffffff19166021820152603581019390935260558084019290925280518084039092018252607590920190915280519101209695505050505050565b604080516001600160a01b0385811660248301528481166044830152606480830185905283518084039091018152608490920183526020820180516001600160e01b03166323b872dd60e01b17815292518251600094606094938a169392918291908083835b602083106137fe5780518252601f1990920191602091820191016137df565b6001836020036101000a0380198251168184511680821785525050505050509050019150506000604051808303816000865af19150503d8060008114613860576040519150601f19603f3d011682016040523d82523d6000602084013e613865565b606091505b5091509150818015613893575080511580613893575080806020019051602081101561389057600080fd5b50515b6138ce5760405162461bcd60e51b8152600401808060200182810382526024815260200180614bb56024913960400191505060405180910390fd5b505050505050565b60005b6001835103811015613bb0576000808483815181106138f457fe5b602002602001015185846001018151811061390b57fe5b602002602001015191509150600061392383836143f7565b509050600087856001018151811061393757fe5b60200260200101519050600080836001600160a01b0316866001600160a01b03161461396557826000613969565b6000835b60015491935091506001600160a01b031615613a10576001546040805163152cf14360e31b81523360048201526001600160a01b0389811660248301528881166044830152606482018790529151919092169163a9678a189160848083019260209291908290030181600087803b1580156139e357600080fd5b505af11580156139f7573d6000803e3d6000fd5b505050506040513d6020811015613a0d57600080fd5b50505b600060028a51038810613a235788613a64565b613a647f0000000000000000000000000000000000000000000000000000000000000000878c8b60020181518110613a5757fe5b6020026020010151613657565b9050613a917f00000000000000000000000000000000000000000000000000000000000000008888613657565b6001600160a01b031663022c0d9f84848460006040519080825280601f01601f191660200182016040528015613ace576020820181803683370190505b506040518563ffffffff1660e01b815260040180858152602001848152602001836001600160a01b0316815260200180602001828103825283818151815260200191508051906020019080838360005b83811015613b36578181015183820152602001613b1e565b50505050905090810190601f168015613b635780820380516001836020036101000a031916815260200191505b5095505050505050600060405180830381600087803b158015613b8557600080fd5b505af1158015613b99573d6000803e3d6000fd5b5050600190990198506138d9975050505050505050565b50505050565b6060600282511015613c0f576040805162461bcd60e51b815260206004820152601b60248201527f476c6f62616c4c6962726172793a20494e56414c49445f504154480000000000604482015290519081900360640190fd5b815167ffffffffffffffff81118015613c2757600080fd5b50604051908082528060200260200182016040528015613c51578160200160208202803683370190505b5090508281600183510381518110613c6557fe5b60209081029190910101528151600019015b801561364f57600080613ca787866001860381518110613c9357fe5b60200260200101518786815181106135c857fe5b91509150613cf0848481518110613cba57fe5b60200260200101518383613ceb8b8a60018a0381518110613cd757fe5b60200260200101518b8a8151811061361957fe5b613dfa565b846001850381518110613cff57fe5b6020908102919091010152505060001901613c77565b6000808511613d555760405162461bcd60e51b8152600401808060200182810382526028815260200180614ad76028913960400191505060405180910390fd5b600084118015613d655750600083115b613da05760405162461bcd60e51b8152600401808060200182810382526025815260200180614b226025913960400191505060405180910390fd5b6000613db9613db2620186a0856142f0565b8790614958565b90506000613dc78286614958565b90506000613de283613ddc89620186a0614958565b906149b1565b9050808281613ded57fe5b0498975050505050505050565b6000808511613e3a5760405162461bcd60e51b8152600401808060200182810382526029815260200180614bfd6029913960400191505060405180910390fd5b600084118015613e4a5750600083115b613e855760405162461bcd60e51b8152600401808060200182810382526025815260200180614b226025913960400191505060405180910390fd5b6000613e9e620186a0613e988789614958565b90614958565b90506000613ebc613eb2620186a0866142f0565b613e98878a6142f0565b9050613ed36001828481613ecc57fe5b04906149b1565b979650505050505050565b60005b60018351038110156134d257600080848381518110613efc57fe5b6020026020010151858460010181518110613f1357fe5b6020026020010151915091506000613f2b83836143f7565b5090506000613f5b7f00000000000000000000000000000000000000000000000000000000000000008585613657565b9050600080600080846001600160a01b0316630902f1ac6040518163ffffffff1660e01b815260040160606040518083038186803b158015613f9c57600080fd5b505afa158015613fb0573d6000803e3d6000fd5b505050506040513d6060811015613fc657600080fd5b5080516020909101516001600160701b0391821693501690506000806001600160a01b038a811690891614613ffc578284613fff565b83835b91509150614054828b6001600160a01b03166370a082318a6040518263ffffffff1660e01b815260040180826001600160a01b0316815260200191505060206040518083038186803b15801561194457600080fd5b95506140cc8683838a6001600160a01b03166354cf2aeb6040518163ffffffff1660e01b815260040160206040518083038186803b15801561409557600080fd5b505afa1580156140a9573d6000803e3d6000fd5b505050506040513d60208110156140bf57600080fd5b505163ffffffff16613d15565b6001549095506001600160a01b031615935061417792505050576001546040805163152cf14360e31b81523360048201526001600160a01b0389811660248301528881166044830152606482018590529151919092169163a9678a189160848083019260209291908290030181600087803b15801561414a57600080fd5b505af115801561415e573d6000803e3d6000fd5b505050506040513d602081101561417457600080fd5b50505b600080856001600160a01b0316886001600160a01b03161461419b5782600061419f565b6000835b91509150600060028c51038a106141b6578a6141ea565b6141ea7f0000000000000000000000000000000000000000000000000000000000000000898e8d60020181518110613a5757fe5b604080516000808252602082019283905263022c0d9f60e01b835260248201878152604483018790526001600160a01b038086166064850152608060848501908152845160a48601819052969750908c169563022c0d9f958a958a958a9591949193919260c486019290918190849084905b8381101561427457818101518382015260200161425c565b50505050905090810190601f1680156142a15780820380516001836020036101000a031916815260200191505b5095505050505050600060405180830381600087803b1580156142c357600080fd5b505af11580156142d7573d6000803e3d6000fd5b50506001909b019a50613ee19950505050505050505050565b600082821115614347576040805162461bcd60e51b815260206004820152601e60248201527f536166654d6174683a207375627472616374696f6e206f766572666c6f770000604482015290519081900360640190fd5b50900390565b3390565b60008084116143915760405162461bcd60e51b8152600401808060200182810382526022815260200180614a546022913960400191505060405180910390fd5b6000831180156143a15750600082115b6143dc5760405162461bcd60e51b8152600401808060200182810382526025815260200180614b226025913960400191505060405180910390fd5b826143e78584614958565b816143ee57fe5b04949350505050565b600080826001600160a01b0316846001600160a01b0316141561444b5760405162461bcd60e51b8152600401808060200182810382526022815260200180614a0c6022913960400191505060405180910390fd5b826001600160a01b0316846001600160a01b03161061446b57828461446e565b83835b90925090506001600160a01b0382166144ce576040805162461bcd60e51b815260206004820152601b60248201527f476c6f62616c4c6962726172793a205a45524f5f414444524553530000000000604482015290519081900360640190fd5b9250929050565b60008060006001600160a01b03167f00000000000000000000000000000000000000000000000000000000000000006001600160a01b031663e6a439058a8a6040518363ffffffff1660e01b815260040180836001600160a01b03168152602001826001600160a01b031681526020019250505060206040518083038186803b15801561456157600080fd5b505afa158015614575573d6000803e3d6000fd5b505050506040513d602081101561458b57600080fd5b50516001600160a01b03161415614649577f00000000000000000000000000000000000000000000000000000000000000006001600160a01b031663c9c6539689896040518363ffffffff1660e01b815260040180836001600160a01b03168152602001826001600160a01b0316815260200192505050602060405180830381600087803b15801561461c57600080fd5b505af1158015614630573d6000803e3d6000fd5b505050506040513d602081101561464657600080fd5b50505b6000806146777f00000000000000000000000000000000000000000000000000000000000000008b8b614806565b91509150816000148015614689575080155b1561469957879350869250614759565b60006146a6898484614351565b90508781116146f957858110156146ee5760405162461bcd60e51b8152600401808060200182810382526023815260200180614aff6023913960400191505060405180910390fd5b889450925082614757565b6000614706898486614351565b90508981111561471257fe5b878110156147515760405162461bcd60e51b8152600401808060200182810382526023815260200180614b6a6023913960400191505060405180910390fd5b94508793505b505b5050965096945050505050565b6001600160a01b0381166147ab5760405162461bcd60e51b8152600401808060200182810382526026815260200180614a2e6026913960400191505060405180910390fd5b600080546040516001600160a01b03808516939216917f8be0079c531659141344cd1fd0a4f28419497f9722a3daafe3b4186f6b6457e091a3600080546001600160a01b0319166001600160a01b0392909216919091179055565b600080600061481585856143f7565b509050614823868686613657565b50600080614832888888613657565b6001600160a01b0316630902f1ac6040518163ffffffff1660e01b815260040160606040518083038186803b15801561486a57600080fd5b505afa15801561487e573d6000803e3d6000fd5b505050506040513d606081101561489457600080fd5b5080516020909101516001600160701b0391821693501690506001600160a01b03878116908416146148c75780826148ca565b81815b90999098509650505050505050565b60006148e6848484613657565b6001600160a01b03166354cf2aeb6040518163ffffffff1660e01b815260040160206040518083038186803b15801561491e57600080fd5b505afa158015614932573d6000803e3d6000fd5b505050506040513d602081101561494857600080fd5b505163ffffffff16949350505050565b60008261496757506000611236565b8282028284828161497457fe5b04146112335760405162461bcd60e51b8152600401808060200182810382526021815260200180614ab66021913960400191505060405180910390fd5b600082820183811015611233576040805162461bcd60e51b815260206004820152601b60248201527f536166654d6174683a206164646974696f6e206f766572666c6f770000000000604482015290519081900360640190fdfe476c6f62616c4c6962726172793a204944454e544943414c5f4144445245535345534f776e61626c653a206e6577206f776e657220697320746865207a65726f2061646472657373476c6f62616c4c6962726172793a20494e53554646494349454e545f414d4f554e54476c6f62616c526f757465723a20494e56414c49445f50415448000000000000476c6f62616c526f757465723a20455850495245440000000000000000000000536166654d6174683a206d756c7469706c69636174696f6e206f766572666c6f77476c6f62616c4c6962726172793a20494e53554646494349454e545f494e5055545f414d4f554e54476c6f62616c526f757465723a20494e53554646494349454e545f425f414d4f554e54476c6f62616c4c6962726172793a20494e53554646494349454e545f4c49515549444954595472616e7366657248656c7065723a204554485f5452414e534645525f4641494c4544476c6f62616c526f757465723a20494e53554646494349454e545f415f414d4f554e54476c6f62616c526f757465723a20494e53554646494349454e545f4f55545055545f414d4f554e545472616e7366657248656c7065723a205452414e534645525f46524f4d5f4641494c4544476c6f62616c526f757465723a204558434553534956455f494e5055545f414d4f554e54476c6f62616c4c6962726172793a20494e53554646494349454e545f4f55545055545f414d4f554e54a264697066735822122009ec289af49177c0873588f522cd47112ffd90c2aa3ac516e7c3d0af5daeedd564736f6c634300060c0033",
  "linkReferences": {},
  "deployedLinkReferences": {}
}