{
  "_format": "hh-sol-artifact-1",
  "contractName": "IPO",
  "sourceName": "contracts/Tokens/IPO.sol",
  "abi": [
    {
      "inputs": [
        {
          "internalType": "contract IBEP20",
          "name": "_lpToken",
          "type": "address"
        },
        {
          "internalType": "contract IBEP20",
          "name": "_offeringToken",
          "type": "address"
        },
        {
          "internalType": "uint256",
          "name": "_startBlock",
          "type": "uint256"
        },
        {
          "internalType": "uint256",
          "name": "_endBlock",
          "type": "uint256"
        },
        {
          "internalType": "uint256",
          "name": "_lpYuklaPriceRelation",
          "type": "uint256"
        },
        {
          "internalType": "uint256",
          "name": "_raisingAmount",
          "type": "uint256"
        },
        {
          "internalType": "address",
          "name": "_adminAddress",
          "type": "address"
        }
      ],
      "stateMutability": "nonpayable",
      "type": "constructor"
    },
    {
      "anonymous": false,
      "inputs": [
        {
          "indexed": true,
          "internalType": "address",
          "name": "user",
          "type": "address"
        },
        {
          "indexed": false,
          "internalType": "uint256",
          "name": "amount",
          "type": "uint256"
        }
      ],
      "name": "Deposit",
      "type": "event"
    },
    {
      "anonymous": false,
      "inputs": [
        {
          "indexed": true,
          "internalType": "address",
          "name": "user",
          "type": "address"
        },
        {
          "indexed": false,
          "internalType": "uint256",
          "name": "offeringAmount",
          "type": "uint256"
        },
        {
          "indexed": false,
          "internalType": "uint256",
          "name": "excessAmount",
          "type": "uint256"
        }
      ],
      "name": "Harvest",
      "type": "event"
    },
    {
      "inputs": [
        {
          "internalType": "uint256",
          "name": "",
          "type": "uint256"
        }
      ],
      "name": "addressList",
      "outputs": [
        {
          "internalType": "address",
          "name": "",
          "type": "address"
        }
      ],
      "stateMutability": "view",
      "type": "function"
    },
    {
      "inputs": [],
      "name": "adminAddress",
      "outputs": [
        {
          "internalType": "address",
          "name": "",
          "type": "address"
        }
      ],
      "stateMutability": "view",
      "type": "function"
    },
    {
      "inputs": [
        {
          "internalType": "uint256",
          "name": "_amount",
          "type": "uint256"
        }
      ],
      "name": "deposit",
      "outputs": [],
      "stateMutability": "nonpayable",
      "type": "function"
    },
    {
      "inputs": [],
      "name": "endBlock",
      "outputs": [
        {
          "internalType": "uint256",
          "name": "",
          "type": "uint256"
        }
      ],
      "stateMutability": "view",
      "type": "function"
    },
    {
      "inputs": [
        {
          "internalType": "uint256",
          "name": "_lpAmount",
          "type": "uint256"
        },
        {
          "internalType": "uint256",
          "name": "_offerAmount",
          "type": "uint256"
        }
      ],
      "name": "finalWithdraw",
      "outputs": [],
      "stateMutability": "nonpayable",
      "type": "function"
    },
    {
      "inputs": [],
      "name": "getAddressListLength",
      "outputs": [
        {
          "internalType": "uint256",
          "name": "",
          "type": "uint256"
        }
      ],
      "stateMutability": "view",
      "type": "function"
    },
    {
      "inputs": [
        {
          "internalType": "address",
          "name": "_user",
          "type": "address"
        }
      ],
      "name": "getOfferingAmount",
      "outputs": [
        {
          "internalType": "uint256",
          "name": "",
          "type": "uint256"
        }
      ],
      "stateMutability": "view",
      "type": "function"
    },
    {
      "inputs": [
        {
          "internalType": "address",
          "name": "_user",
          "type": "address"
        }
      ],
      "name": "getRefundingAmount",
      "outputs": [
        {
          "internalType": "uint256",
          "name": "",
          "type": "uint256"
        }
      ],
      "stateMutability": "view",
      "type": "function"
    },
    {
      "inputs": [
        {
          "internalType": "address",
          "name": "_user",
          "type": "address"
        }
      ],
      "name": "getUserAllocation",
      "outputs": [
        {
          "internalType": "uint256",
          "name": "",
          "type": "uint256"
        }
      ],
      "stateMutability": "view",
      "type": "function"
    },
    {
      "inputs": [],
      "name": "harvest",
      "outputs": [],
      "stateMutability": "nonpayable",
      "type": "function"
    },
    {
      "inputs": [
        {
          "internalType": "address",
          "name": "_user",
          "type": "address"
        }
      ],
      "name": "hasHarvest",
      "outputs": [
        {
          "internalType": "bool",
          "name": "",
          "type": "bool"
        }
      ],
      "stateMutability": "view",
      "type": "function"
    },
    {
      "inputs": [],
      "name": "lpToken",
      "outputs": [
        {
          "internalType": "contract IBEP20",
          "name": "",
          "type": "address"
        }
      ],
      "stateMutability": "view",
      "type": "function"
    },
    {
      "inputs": [],
      "name": "lpYuklaPriceRelation",
      "outputs": [
        {
          "internalType": "uint256",
          "name": "",
          "type": "uint256"
        }
      ],
      "stateMutability": "view",
      "type": "function"
    },
    {
      "inputs": [],
      "name": "offeringToken",
      "outputs": [
        {
          "internalType": "contract IBEP20",
          "name": "",
          "type": "address"
        }
      ],
      "stateMutability": "view",
      "type": "function"
    },
    {
      "inputs": [],
      "name": "raisingAmount",
      "outputs": [
        {
          "internalType": "uint256",
          "name": "",
          "type": "uint256"
        }
      ],
      "stateMutability": "view",
      "type": "function"
    },
    {
      "inputs": [
        {
          "internalType": "uint256",
          "name": "_lpYuklaPriceRelation",
          "type": "uint256"
        }
      ],
      "name": "setLpYuklaPriceRelation",
      "outputs": [],
      "stateMutability": "nonpayable",
      "type": "function"
    },
    {
      "inputs": [
        {
          "internalType": "uint256",
          "name": "_raisingAmount",
          "type": "uint256"
        }
      ],
      "name": "setRaisingAmount",
      "outputs": [],
      "stateMutability": "nonpayable",
      "type": "function"
    },
    {
      "inputs": [],
      "name": "startBlock",
      "outputs": [
        {
          "internalType": "uint256",
          "name": "",
          "type": "uint256"
        }
      ],
      "stateMutability": "view",
      "type": "function"
    },
    {
      "inputs": [],
      "name": "totalAmount",
      "outputs": [
        {
          "internalType": "uint256",
          "name": "",
          "type": "uint256"
        }
      ],
      "stateMutability": "view",
      "type": "function"
    },
    {
      "inputs": [
        {
          "internalType": "address",
          "name": "",
          "type": "address"
        }
      ],
      "name": "userInfo",
      "outputs": [
        {
          "internalType": "uint256",
          "name": "amount",
          "type": "uint256"
        },
        {
          "internalType": "bool",
          "name": "claimed",
          "type": "bool"
        }
      ],
      "stateMutability": "view",
      "type": "function"
    }
  ],
  "bytecode": "0x608060405234801561001057600080fd5b50604051611238380380611238833981810160405260e081101561003357600080fd5b508051602082015160408301516060840151608085015160a086015160c09096015160016000818155600280546001600160a01b03998a166001600160a01b03199182161790915560038054988a16988216989098179097556004959095556005939093556007919091556006959095556008919091558054929093169116179055611174806100c46000396000f3fe608060405234801561001057600080fd5b506004361061012c5760003560e01c80639099876e116100ad578063b810fb4311610071578063b810fb43146102d8578063b920ade2146102f5578063c8c1c07e1461031b578063fc00358e14610323578063fc6f94681461032b5761012c565b80639099876e1461026b5780639c0a7669146102885780639f1b524814610290578063b6b55f25146102b3578063b7813607146102d05761012c565b80634641257d116100f45780634641257d146101d757806348cd4cb1146101df5780635fcbd285146101e757806364ce9fff1461020b57806387e97bc6146102455761012c565b8063083c6323146101315780631959a0021461014b5780631a39d8ef1461018a5780632f5105f8146101925780634225c32f146101b8575b600080fd5b610139610333565b60408051918252519081900360200190f35b6101716004803603602081101561016157600080fd5b50356001600160a01b0316610339565b6040805192835290151560208301528051918290030190f35b610139610355565b610139600480360360208110156101a857600080fd5b50356001600160a01b031661035b565b6101d5600480360360208110156101ce57600080fd5b50356103d1565b005b6101d561045e565b61013961066e565b6101ef610674565b604080516001600160a01b039092168252519081900360200190f35b6102316004803603602081101561022157600080fd5b50356001600160a01b0316610683565b604080519115158252519081900360200190f35b6101396004803603602081101561025b57600080fd5b50356001600160a01b03166106a4565b6101d56004803603602081101561028157600080fd5b503561071b565b6101396107ba565b6101d5600480360360408110156102a657600080fd5b50803590602001356107c0565b6101d5600480360360208110156102c957600080fd5b50356109bf565b6101ef610b3b565b6101ef600480360360208110156102ee57600080fd5b5035610b4a565b6101396004803603602081101561030b57600080fd5b50356001600160a01b0316610b71565b610139610baf565b610139610bb5565b6101ef610bbb565b60055481565b6009602052600090815260409020805460019091015460ff1682565b60085481565b600060065460085411610370575060006103cc565b600061037b83610b71565b905060006103a1620f424061039b84600654610bca90919063ffffffff16565b90610c2a565b6001600160a01b0385166000908152600960205260409020549091506103c79082610c91565b925050505b919050565b6001546001600160a01b0316331461041e576040805162461bcd60e51b815260206004820152600b60248201526a61646d696e3a207775743f60a81b604482015290519081900360640190fd5b6004544310610459576040805162461bcd60e51b81526020600482015260026024820152616e6f60f01b604482015290519081900360640190fd5b600655565b600260005414156104b6576040805162461bcd60e51b815260206004820152601f60248201527f5265656e7472616e637947756172643a207265656e7472616e742063616c6c00604482015290519081900360640190fd5b60026000556005544311610504576040805162461bcd60e51b815260206004820152601060248201526f6e6f7420686172766573742074696d6560801b604482015290519081900360640190fd5b3360009081526009602052604090205461055e576040805162461bcd60e51b81526020600482015260166024820152756861766520796f75207061727469636970617465643f60501b604482015290519081900360640190fd5b3360009081526009602052604090206001015460ff16156105bb576040805162461bcd60e51b81526020600482015260126024820152711b9bdd1a1a5b99c81d1bc81a185c9d995cdd60721b604482015290519081900360640190fd5b60006105c6336106a4565b905060006105d33361035b565b6003549091506105ed906001600160a01b03163384610cee565b801561060a5760025461060a906001600160a01b03163383610cee565b336000818152600960209081526040918290206001908101805460ff19169091179055815185815290810184905281517f71bab65ced2e5750775a0613be067df48ef06cf92a496ebf7663ae0660924954929181900390910190a250506001600055565b60045481565b6002546001600160a01b031681565b6001600160a01b031660009081526009602052604090206001015460ff1690565b600060065460085411156106ef5760006106bd83610b71565b90506106e7620f424061039b836106e1600754600654610bca90919063ffffffff16565b90610bca565b9150506103cc565b6007546001600160a01b03831660009081526009602052604090205461071491610bca565b90506103cc565b6001546001600160a01b03163314610768576040805162461bcd60e51b815260206004820152600b60248201526a61646d696e3a207775743f60a81b604482015290519081900360640190fd5b600081116107b5576040805162461bcd60e51b815260206004820152601560248201527405468652070726963652063616e6e6f74206265203605c1b604482015290519081900360640190fd5b600755565b60065481565b6001546001600160a01b0316331461080d576040805162461bcd60e51b815260206004820152600b60248201526a61646d696e3a207775743f60a81b604482015290519081900360640190fd5b600254604080516370a0823160e01b815230600482015290516001600160a01b03909216916370a0823191602480820192602092909190829003018186803b15801561085857600080fd5b505afa15801561086c573d6000803e3d6000fd5b505050506040513d602081101561088257600080fd5b50518211156108cd576040805162461bcd60e51b815260206004820152601260248201527106e6f7420656e6f75676820746f6b656e20360741b604482015290519081900360640190fd5b600354604080516370a0823160e01b815230600482015290516001600160a01b03909216916370a0823191602480820192602092909190829003018186803b15801561091857600080fd5b505afa15801561092c573d6000803e3d6000fd5b505050506040513d602081101561094257600080fd5b505181111561098d576040805162461bcd60e51b81526020600482015260126024820152716e6f7420656e6f75676820746f6b656e203160701b604482015290519081900360640190fd5b6002546109a4906001600160a01b03163384610cee565b6003546109bb906001600160a01b03163383610cee565b5050565b600454431180156109d1575060055443105b610a11576040805162461bcd60e51b815260206004820152600c60248201526b6e6f742069706f2074696d6560a01b604482015290519081900360640190fd5b60008111610a59576040805162461bcd60e51b815260206004820152601060248201526f06e656564205f616d6f756e74203e20360841b604482015290519081900360640190fd5b600254610a71906001600160a01b0316333084610d45565b33600090815260096020526040902054610ac857600a80546001810182556000919091527fc65a7bb8d6351c1cf70c95a316cc6a92839c986682d98bc35f958f4883f9d2a80180546001600160a01b031916331790555b33600090815260096020526040902054610ae29082610da5565b33600090815260096020526040902055600854610aff9082610da5565b60085560408051828152905133917fe1fffcc4923d04b559f4d29a8bfc6cda04eb5b0d3c460751c2402c5c5cc9109c919081900360200190a250565b6003546001600160a01b031681565b600a8181548110610b5757fe5b6000918252602090912001546001600160a01b0316905081565b6008546001600160a01b0382166000908152600960205260408120549091610ba991620f42409161039b91829064e8d4a51000610bca565b92915050565b60075481565b600a5490565b6001546001600160a01b031681565b600082610bd957506000610ba9565b82820282848281610be657fe5b0414610c235760405162461bcd60e51b815260040180806020018281038252602181526020018061111e6021913960400191505060405180910390fd5b9392505050565b6000808211610c80576040805162461bcd60e51b815260206004820152601a60248201527f536166654d6174683a206469766973696f6e206279207a65726f000000000000604482015290519081900360640190fd5b818381610c8957fe5b049392505050565b600082821115610ce8576040805162461bcd60e51b815260206004820152601e60248201527f536166654d6174683a207375627472616374696f6e206f766572666c6f770000604482015290519081900360640190fd5b50900390565b604080516001600160a01b038416602482015260448082018490528251808303909101815260649091019091526020810180516001600160e01b031663a9059cbb60e01b179052610d40908490610dff565b505050565b604080516001600160a01b0380861660248301528416604482015260648082018490528251808303909101815260849091019091526020810180516001600160e01b03166323b872dd60e01b179052610d9f908590610dff565b50505050565b600082820183811015610c23576040805162461bcd60e51b815260206004820152601b60248201527f536166654d6174683a206164646974696f6e206f766572666c6f770000000000604482015290519081900360640190fd5b6060610e54826040518060400160405280602081526020017f5361666542455032303a206c6f772d6c6576656c2063616c6c206661696c6564815250856001600160a01b0316610eb09092919063ffffffff16565b805190915015610d4057808060200190516020811015610e7357600080fd5b5051610d405760405162461bcd60e51b815260040180806020018281038252602a8152602001806110ce602a913960400191505060405180910390fd5b6060610ebf8484600085610ec7565b949350505050565b606082471015610f085760405162461bcd60e51b81526004018080602001828103825260268152602001806110f86026913960400191505060405180910390fd5b610f1185611023565b610f62576040805162461bcd60e51b815260206004820152601d60248201527f416464726573733a2063616c6c20746f206e6f6e2d636f6e7472616374000000604482015290519081900360640190fd5b60006060866001600160a01b031685876040518082805190602001908083835b60208310610fa15780518252601f199092019160209182019101610f82565b6001836020036101000a03801982511681845116808217855250505050505090500191505060006040518083038185875af1925050503d8060008114611003576040519150601f19603f3d011682016040523d82523d6000602084013e611008565b606091505b5091509150611018828286611029565b979650505050505050565b3b151590565b60608315611038575081610c23565b8251156110485782518084602001fd5b8160405162461bcd60e51b81526004018080602001828103825283818151815260200191508051906020019080838360005b8381101561109257818101518382015260200161107a565b50505050905090810190601f1680156110bf5780820380516001836020036101000a031916815260200191505b509250505060405180910390fdfe5361666542455032303a204245503230206f7065726174696f6e20646964206e6f742073756363656564416464726573733a20696e73756666696369656e742062616c616e636520666f722063616c6c536166654d6174683a206d756c7469706c69636174696f6e206f766572666c6f77a2646970667358221220c22ef418f1225e06ffe42b8fef5d6301b12081de713ab690e10501d5598a6a4164736f6c634300060c0033",
  "linkReferences": {},
  "deployedLinkReferences": {}
}