{
  "_format": "hh-sol-artifact-1",
  "contractName": "DepositoryRestriction",
  "sourceName": "contracts/Modifiers/DepositoryRestriction.sol",
  "abi": [
    {
      "anonymous": false,
      "inputs": [
        {
          "indexed": true,
          "internalType": "address",
          "name": "previousOwner",
          "type": "address"
        },
        {
          "indexed": true,
          "internalType": "address",
          "name": "newOwner",
          "type": "address"
        }
      ],
      "name": "OwnershipTransferred",
      "type": "event"
    },
    {
      "inputs": [
        {
          "internalType": "address",
          "name": "",
          "type": "address"
        }
      ],
      "name": "depositories",
      "outputs": [
        {
          "internalType": "bool",
          "name": "",
          "type": "bool"
        }
      ],
      "stateMutability": "view",
      "type": "function"
    },
    {
      "inputs": [],
      "name": "owner",
      "outputs": [
        {
          "internalType": "address",
          "name": "",
          "type": "address"
        }
      ],
      "stateMutability": "view",
      "type": "function"
    },
    {
      "inputs": [],
      "name": "renounceOwnership",
      "outputs": [],
      "stateMutability": "nonpayable",
      "type": "function"
    },
    {
      "inputs": [
        {
          "internalType": "address",
          "name": "_depository",
          "type": "address"
        },
        {
          "internalType": "bool",
          "name": "_canDeposit",
          "type": "bool"
        }
      ],
      "name": "setDepositary",
      "outputs": [],
      "stateMutability": "nonpayable",
      "type": "function"
    },
    {
      "inputs": [
        {
          "internalType": "address",
          "name": "newOwner",
          "type": "address"
        }
      ],
      "name": "transferOwnership",
      "outputs": [],
      "stateMutability": "nonpayable",
      "type": "function"
    }
  ],
  "bytecode": "0x608060405234801561001057600080fd5b50600061001b61006a565b600080546001600160a01b0319166001600160a01b0383169081178255604051929350917f8be0079c531659141344cd1fd0a4f28419497f9722a3daafe3b4186f6b6457e0908290a35061006e565b3390565b6104248061007d6000396000f3fe608060405234801561001057600080fd5b50600436106100575760003560e01c8063715018a61461005c5780638da5cb5b146100665780639be0e5771461008a578063cdc0e2e7146100b8578063f2fde38b146100f2575b600080fd5b610064610118565b005b61006e6101cc565b604080516001600160a01b039092168252519081900360200190f35b610064600480360360408110156100a057600080fd5b506001600160a01b03813516906020013515156101db565b6100de600480360360208110156100ce57600080fd5b50356001600160a01b0316610299565b604080519115158252519081900360200190f35b6100646004803603602081101561010857600080fd5b50356001600160a01b03166102ae565b610120610324565b6000546001600160a01b03908116911614610182576040805162461bcd60e51b815260206004820181905260248201527f4f776e61626c653a2063616c6c6572206973206e6f7420746865206f776e6572604482015290519081900360640190fd5b600080546040516001600160a01b03909116907f8be0079c531659141344cd1fd0a4f28419497f9722a3daafe3b4186f6b6457e0908390a3600080546001600160a01b0319169055565b6000546001600160a01b031690565b6101e3610324565b6000546001600160a01b03908116911614610245576040805162461bcd60e51b815260206004820181905260248201527f4f776e61626c653a2063616c6c6572206973206e6f7420746865206f776e6572604482015290519081900360640190fd5b8015610274576001600160a01b0382166000908152600160205260409020805460ff1916821515179055610295565b6001600160a01b0382166000908152600160205260409020805460ff191690555b5050565b60016020526000908152604090205460ff1681565b6102b6610324565b6000546001600160a01b03908116911614610318576040805162461bcd60e51b815260206004820181905260248201527f4f776e61626c653a2063616c6c6572206973206e6f7420746865206f776e6572604482015290519081900360640190fd5b61032181610328565b50565b3390565b6001600160a01b03811661036d5760405162461bcd60e51b81526004018080602001828103825260268152602001806103c96026913960400191505060405180910390fd5b600080546040516001600160a01b03808516939216917f8be0079c531659141344cd1fd0a4f28419497f9722a3daafe3b4186f6b6457e091a3600080546001600160a01b0319166001600160a01b039290921691909117905556fe4f776e61626c653a206e6577206f776e657220697320746865207a65726f2061646472657373a2646970667358221220400cd1d9608a3a2969017126f0ce76d5d635bef8c0720bf3a6e5b841cc8e2f1964736f6c634300060c0033",
  "linkReferences": {},
  "deployedLinkReferences": {}
}