{
  "_format": "hh-sol-artifact-1",
  "contractName": "WhitelistUpgradeable",
  "sourceName": "contracts/Modifiers/WhitelistUpgradeable.sol",
  "abi": [
    {
      "anonymous": false,
      "inputs": [],
      "name": "DisableWhitelist",
      "type": "event"
    },
    {
      "anonymous": false,
      "inputs": [],
      "name": "EnableWhitelist",
      "type": "event"
    },
    {
      "anonymous": false,
      "inputs": [
        {
          "indexed": true,
          "internalType": "address",
          "name": "previousOwner",
          "type": "address"
        },
        {
          "indexed": true,
          "internalType": "address",
          "name": "newOwner",
          "type": "address"
        }
      ],
      "name": "OwnershipTransferred",
      "type": "event"
    },
    {
      "anonymous": false,
      "inputs": [
        {
          "indexed": true,
          "internalType": "address",
          "name": "_address",
          "type": "address"
        },
        {
          "indexed": false,
          "internalType": "bool",
          "name": "whitelist",
          "type": "bool"
        }
      ],
      "name": "Whitelisted",
      "type": "event"
    },
    {
      "inputs": [
        {
          "internalType": "bool",
          "name": "disable",
          "type": "bool"
        }
      ],
      "name": "disableWhitelist",
      "outputs": [],
      "stateMutability": "nonpayable",
      "type": "function"
    },
    {
      "inputs": [
        {
          "internalType": "address",
          "name": "_address",
          "type": "address"
        }
      ],
      "name": "isWhitelist",
      "outputs": [
        {
          "internalType": "bool",
          "name": "",
          "type": "bool"
        }
      ],
      "stateMutability": "view",
      "type": "function"
    },
    {
      "inputs": [],
      "name": "owner",
      "outputs": [
        {
          "internalType": "address",
          "name": "",
          "type": "address"
        }
      ],
      "stateMutability": "view",
      "type": "function"
    },
    {
      "inputs": [],
      "name": "renounceOwnership",
      "outputs": [],
      "stateMutability": "nonpayable",
      "type": "function"
    },
    {
      "inputs": [
        {
          "internalType": "address",
          "name": "_address",
          "type": "address"
        },
        {
          "internalType": "bool",
          "name": "_on",
          "type": "bool"
        }
      ],
      "name": "setWhitelist",
      "outputs": [],
      "stateMutability": "nonpayable",
      "type": "function"
    },
    {
      "inputs": [
        {
          "internalType": "address",
          "name": "newOwner",
          "type": "address"
        }
      ],
      "name": "transferOwnership",
      "outputs": [],
      "stateMutability": "nonpayable",
      "type": "function"
    }
  ],
  "bytecode": "0x608060405234801561001057600080fd5b5061050c806100206000396000f3fe608060405234801561001057600080fd5b50600436106100625760003560e01c806349ba1b491461006757806353d6fd5914610088578063715018a6146100b65780638da5cb5b146100be578063c683630d146100e2578063f2fde38b1461011c575b600080fd5b6100866004803603602081101561007d57600080fd5b50351515610142565b005b6100866004803603604081101561009e57600080fd5b506001600160a01b038135169060200135151561020c565b6100866102c4565b6100c6610366565b604080516001600160a01b039092168252519081900360200190f35b610108600480360360208110156100f857600080fd5b50356001600160a01b0316610375565b604080519115158252519081900360200190f35b6100866004803603602081101561013257600080fd5b50356001600160a01b0316610393565b61014a61048c565b6033546001600160a01b0390811691161461019a576040805162461bcd60e51b815260206004820181905260248201526000805160206104b7833981519152604482015290519081900360640190fd5b6066805460ff191682158015919091179091556101df576040517f508560e15717a4e9058b9a19d806cb679004a1bd953376f71fda71c141e5dc5390600090a1610209565b6040517fa2927d972f7cfc5ff8b7ad79f9adf0bdb885d0e569f40d0037df2e1299616ae090600090a15b50565b61021461048c565b6033546001600160a01b03908116911614610264576040805162461bcd60e51b815260206004820181905260248201526000805160206104b7833981519152604482015290519081900360640190fd5b6001600160a01b038216600081815260656020908152604091829020805460ff1916851515908117909155825190815291517fa54714518c5d275fdcd3d2a461e4858e4e8cb04fb93cd0bca9d6d34115f264409281900390910190a25050565b6102cc61048c565b6033546001600160a01b0390811691161461031c576040805162461bcd60e51b815260206004820181905260248201526000805160206104b7833981519152604482015290519081900360640190fd5b6033546040516000916001600160a01b0316907f8be0079c531659141344cd1fd0a4f28419497f9722a3daafe3b4186f6b6457e0908390a3603380546001600160a01b0319169055565b6033546001600160a01b031690565b6001600160a01b031660009081526065602052604090205460ff1690565b61039b61048c565b6033546001600160a01b039081169116146103eb576040805162461bcd60e51b815260206004820181905260248201526000805160206104b7833981519152604482015290519081900360640190fd5b6001600160a01b0381166104305760405162461bcd60e51b81526004018080602001828103825260268152602001806104916026913960400191505060405180910390fd5b6033546040516001600160a01b038084169216907f8be0079c531659141344cd1fd0a4f28419497f9722a3daafe3b4186f6b6457e090600090a3603380546001600160a01b0319166001600160a01b0392909216919091179055565b339056fe4f776e61626c653a206e6577206f776e657220697320746865207a65726f20616464726573734f776e61626c653a2063616c6c6572206973206e6f7420746865206f776e6572a26469706673582212205aea1d3a76293ae41dae069f8dd9244ff3dc0c0b926544047ffec72eba335c5664736f6c634300060c0033",
  "linkReferences": {},
  "deployedLinkReferences": {}
}