{
  "_format": "hh-sol-artifact-1",
  "contractName": "NativeToken",
  "sourceName": "contracts/Tokens/NativeToken.sol",
  "abi": [
    {
      "inputs": [],
      "stateMutability": "nonpayable",
      "type": "constructor"
    },
    {
      "anonymous": false,
      "inputs": [
        {
          "indexed": true,
          "internalType": "address",
          "name": "owner",
          "type": "address"
        },
        {
          "indexed": true,
          "internalType": "address",
          "name": "spender",
          "type": "address"
        },
        {
          "indexed": false,
          "internalType": "uint256",
          "name": "value",
          "type": "uint256"
        }
      ],
      "name": "Approval",
      "type": "event"
    },
    {
      "anonymous": false,
      "inputs": [
        {
          "indexed": true,
          "internalType": "address",
          "name": "delegator",
          "type": "address"
        },
        {
          "indexed": true,
          "internalType": "address",
          "name": "fromDelegate",
          "type": "address"
        },
        {
          "indexed": true,
          "internalType": "address",
          "name": "toDelegate",
          "type": "address"
        }
      ],
      "name": "DelegateChanged",
      "type": "event"
    },
    {
      "anonymous": false,
      "inputs": [
        {
          "indexed": true,
          "internalType": "address",
          "name": "delegate",
          "type": "address"
        },
        {
          "indexed": false,
          "internalType": "uint256",
          "name": "previousBalance",
          "type": "uint256"
        },
        {
          "indexed": false,
          "internalType": "uint256",
          "name": "newBalance",
          "type": "uint256"
        }
      ],
      "name": "DelegateVotesChanged",
      "type": "event"
    },
    {
      "anonymous": false,
      "inputs": [
        {
          "indexed": true,
          "internalType": "address",
          "name": "previousDevPower",
          "type": "address"
        },
        {
          "indexed": true,
          "internalType": "address",
          "name": "newDevPower",
          "type": "address"
        }
      ],
      "name": "DevPowerTransferred",
      "type": "event"
    },
    {
      "anonymous": false,
      "inputs": [
        {
          "indexed": true,
          "internalType": "address",
          "name": "devPower",
          "type": "address"
        },
        {
          "indexed": false,
          "internalType": "uint256",
          "name": "oldAntiWhalePercent",
          "type": "uint256"
        },
        {
          "indexed": false,
          "internalType": "uint256",
          "name": "newAntiWhalePercent",
          "type": "uint256"
        }
      ],
      "name": "MaxTransferAntiWhale",
      "type": "event"
    },
    {
      "anonymous": false,
      "inputs": [
        {
          "indexed": true,
          "internalType": "address",
          "name": "previousOwner",
          "type": "address"
        },
        {
          "indexed": true,
          "internalType": "address",
          "name": "newOwner",
          "type": "address"
        }
      ],
      "name": "OwnershipTransferred",
      "type": "event"
    },
    {
      "anonymous": false,
      "inputs": [
        {
          "indexed": true,
          "internalType": "address",
          "name": "from",
          "type": "address"
        },
        {
          "indexed": true,
          "internalType": "address",
          "name": "to",
          "type": "address"
        },
        {
          "indexed": false,
          "internalType": "uint256",
          "name": "value",
          "type": "uint256"
        }
      ],
      "name": "Transfer",
      "type": "event"
    },
    {
      "inputs": [],
      "name": "BURN_ADDRESS",
      "outputs": [
        {
          "internalType": "address",
          "name": "",
          "type": "address"
        }
      ],
      "stateMutability": "view",
      "type": "function"
    },
    {
      "inputs": [],
      "name": "DELEGATION_TYPEHASH",
      "outputs": [
        {
          "internalType": "bytes32",
          "name": "",
          "type": "bytes32"
        }
      ],
      "stateMutability": "view",
      "type": "function"
    },
    {
      "inputs": [],
      "name": "DOMAIN_TYPEHASH",
      "outputs": [
        {
          "internalType": "bytes32",
          "name": "",
          "type": "bytes32"
        }
      ],
      "stateMutability": "view",
      "type": "function"
    },
    {
      "inputs": [],
      "name": "GetDevPowerAddress",
      "outputs": [
        {
          "internalType": "address",
          "name": "",
          "type": "address"
        }
      ],
      "stateMutability": "view",
      "type": "function"
    },
    {
      "inputs": [
        {
          "internalType": "address",
          "name": "addr",
          "type": "address"
        }
      ],
      "name": "GetIfExcludedFromAntiWhale",
      "outputs": [
        {
          "internalType": "bool",
          "name": "",
          "type": "bool"
        }
      ],
      "stateMutability": "view",
      "type": "function"
    },
    {
      "inputs": [],
      "name": "MAX_ANTIWHALE",
      "outputs": [
        {
          "internalType": "uint16",
          "name": "",
          "type": "uint16"
        }
      ],
      "stateMutability": "view",
      "type": "function"
    },
    {
      "inputs": [],
      "name": "_devPower",
      "outputs": [
        {
          "internalType": "address",
          "name": "",
          "type": "address"
        }
      ],
      "stateMutability": "view",
      "type": "function"
    },
    {
      "inputs": [
        {
          "internalType": "address",
          "name": "account",
          "type": "address"
        }
      ],
      "name": "addBlacklisted",
      "outputs": [],
      "stateMutability": "nonpayable",
      "type": "function"
    },
    {
      "inputs": [
        {
          "internalType": "address",
          "name": "owner",
          "type": "address"
        },
        {
          "internalType": "address",
          "name": "spender",
          "type": "address"
        }
      ],
      "name": "allowance",
      "outputs": [
        {
          "internalType": "uint256",
          "name": "",
          "type": "uint256"
        }
      ],
      "stateMutability": "view",
      "type": "function"
    },
    {
      "inputs": [],
      "name": "antiWhalePercent",
      "outputs": [
        {
          "internalType": "uint16",
          "name": "",
          "type": "uint16"
        }
      ],
      "stateMutability": "view",
      "type": "function"
    },
    {
      "inputs": [
        {
          "internalType": "address",
          "name": "spender",
          "type": "address"
        },
        {
          "internalType": "uint256",
          "name": "amount",
          "type": "uint256"
        }
      ],
      "name": "approve",
      "outputs": [
        {
          "internalType": "bool",
          "name": "",
          "type": "bool"
        }
      ],
      "stateMutability": "nonpayable",
      "type": "function"
    },
    {
      "inputs": [
        {
          "internalType": "address",
          "name": "account",
          "type": "address"
        }
      ],
      "name": "balanceOf",
      "outputs": [
        {
          "internalType": "uint256",
          "name": "",
          "type": "uint256"
        }
      ],
      "stateMutability": "view",
      "type": "function"
    },
    {
      "inputs": [
        {
          "internalType": "address",
          "name": "",
          "type": "address"
        },
        {
          "internalType": "uint32",
          "name": "",
          "type": "uint32"
        }
      ],
      "name": "checkpoints",
      "outputs": [
        {
          "internalType": "uint32",
          "name": "fromBlock",
          "type": "uint32"
        },
        {
          "internalType": "uint256",
          "name": "votes",
          "type": "uint256"
        }
      ],
      "stateMutability": "view",
      "type": "function"
    },
    {
      "inputs": [],
      "name": "closeTrading",
      "outputs": [],
      "stateMutability": "nonpayable",
      "type": "function"
    },
    {
      "inputs": [],
      "name": "decimals",
      "outputs": [
        {
          "internalType": "uint8",
          "name": "",
          "type": "uint8"
        }
      ],
      "stateMutability": "view",
      "type": "function"
    },
    {
      "inputs": [
        {
          "internalType": "address",
          "name": "spender",
          "type": "address"
        },
        {
          "internalType": "uint256",
          "name": "subtractedValue",
          "type": "uint256"
        }
      ],
      "name": "decreaseAllowance",
      "outputs": [
        {
          "internalType": "bool",
          "name": "",
          "type": "bool"
        }
      ],
      "stateMutability": "nonpayable",
      "type": "function"
    },
    {
      "inputs": [
        {
          "internalType": "address",
          "name": "delegatee",
          "type": "address"
        }
      ],
      "name": "delegate",
      "outputs": [],
      "stateMutability": "nonpayable",
      "type": "function"
    },
    {
      "inputs": [
        {
          "internalType": "address",
          "name": "delegatee",
          "type": "address"
        },
        {
          "internalType": "uint256",
          "name": "nonce",
          "type": "uint256"
        },
        {
          "internalType": "uint256",
          "name": "expiry",
          "type": "uint256"
        },
        {
          "internalType": "uint8",
          "name": "v",
          "type": "uint8"
        },
        {
          "internalType": "bytes32",
          "name": "r",
          "type": "bytes32"
        },
        {
          "internalType": "bytes32",
          "name": "s",
          "type": "bytes32"
        }
      ],
      "name": "delegateBySig",
      "outputs": [],
      "stateMutability": "nonpayable",
      "type": "function"
    },
    {
      "inputs": [
        {
          "internalType": "address",
          "name": "delegator",
          "type": "address"
        }
      ],
      "name": "delegates",
      "outputs": [
        {
          "internalType": "address",
          "name": "",
          "type": "address"
        }
      ],
      "stateMutability": "view",
      "type": "function"
    },
    {
      "inputs": [
        {
          "internalType": "address",
          "name": "account",
          "type": "address"
        }
      ],
      "name": "getCurrentVotes",
      "outputs": [
        {
          "internalType": "uint256",
          "name": "",
          "type": "uint256"
        }
      ],
      "stateMutability": "view",
      "type": "function"
    },
    {
      "inputs": [],
      "name": "getOwner",
      "outputs": [
        {
          "internalType": "address",
          "name": "",
          "type": "address"
        }
      ],
      "stateMutability": "view",
      "type": "function"
    },
    {
      "inputs": [
        {
          "internalType": "address",
          "name": "account",
          "type": "address"
        },
        {
          "internalType": "uint256",
          "name": "blockNumber",
          "type": "uint256"
        }
      ],
      "name": "getPriorVotes",
      "outputs": [
        {
          "internalType": "uint256",
          "name": "",
          "type": "uint256"
        }
      ],
      "stateMutability": "view",
      "type": "function"
    },
    {
      "inputs": [
        {
          "internalType": "address",
          "name": "spender",
          "type": "address"
        },
        {
          "internalType": "uint256",
          "name": "addedValue",
          "type": "uint256"
        }
      ],
      "name": "increaseAllowance",
      "outputs": [
        {
          "internalType": "bool",
          "name": "",
          "type": "bool"
        }
      ],
      "stateMutability": "nonpayable",
      "type": "function"
    },
    {
      "inputs": [
        {
          "internalType": "address",
          "name": "account",
          "type": "address"
        }
      ],
      "name": "isBlacklisted",
      "outputs": [
        {
          "internalType": "bool",
          "name": "",
          "type": "bool"
        }
      ],
      "stateMutability": "view",
      "type": "function"
    },
    {
      "inputs": [],
      "name": "maxTokensTransferAmountAntiWhaleMethod",
      "outputs": [
        {
          "internalType": "uint256",
          "name": "",
          "type": "uint256"
        }
      ],
      "stateMutability": "view",
      "type": "function"
    },
    {
      "inputs": [
        {
          "internalType": "uint256",
          "name": "amount",
          "type": "uint256"
        }
      ],
      "name": "mint",
      "outputs": [
        {
          "internalType": "bool",
          "name": "",
          "type": "bool"
        }
      ],
      "stateMutability": "nonpayable",
      "type": "function"
    },
    {
      "inputs": [
        {
          "internalType": "address",
          "name": "_to",
          "type": "address"
        },
        {
          "internalType": "uint256",
          "name": "_amount",
          "type": "uint256"
        }
      ],
      "name": "mints",
      "outputs": [],
      "stateMutability": "nonpayable",
      "type": "function"
    },
    {
      "inputs": [],
      "name": "name",
      "outputs": [
        {
          "internalType": "string",
          "name": "",
          "type": "string"
        }
      ],
      "stateMutability": "view",
      "type": "function"
    },
    {
      "inputs": [
        {
          "internalType": "address",
          "name": "",
          "type": "address"
        }
      ],
      "name": "nonces",
      "outputs": [
        {
          "internalType": "uint256",
          "name": "",
          "type": "uint256"
        }
      ],
      "stateMutability": "view",
      "type": "function"
    },
    {
      "inputs": [
        {
          "internalType": "address",
          "name": "",
          "type": "address"
        }
      ],
      "name": "numCheckpoints",
      "outputs": [
        {
          "internalType": "uint32",
          "name": "",
          "type": "uint32"
        }
      ],
      "stateMutability": "view",
      "type": "function"
    },
    {
      "inputs": [],
      "name": "openTrading",
      "outputs": [],
      "stateMutability": "nonpayable",
      "type": "function"
    },
    {
      "inputs": [],
      "name": "owner",
      "outputs": [
        {
          "internalType": "address",
          "name": "",
          "type": "address"
        }
      ],
      "stateMutability": "view",
      "type": "function"
    },
    {
      "inputs": [
        {
          "internalType": "address",
          "name": "account",
          "type": "address"
        }
      ],
      "name": "removeBlacklisted",
      "outputs": [],
      "stateMutability": "nonpayable",
      "type": "function"
    },
    {
      "inputs": [],
      "name": "renounceDevPower",
      "outputs": [],
      "stateMutability": "nonpayable",
      "type": "function"
    },
    {
      "inputs": [],
      "name": "renounceOwnership",
      "outputs": [],
      "stateMutability": "nonpayable",
      "type": "function"
    },
    {
      "inputs": [
        {
          "internalType": "address",
          "name": "addr",
          "type": "address"
        },
        {
          "internalType": "bool",
          "name": "_excluded",
          "type": "bool"
        }
      ],
      "name": "setExcludedFromAntiWhale",
      "outputs": [],
      "stateMutability": "nonpayable",
      "type": "function"
    },
    {
      "inputs": [],
      "name": "symbol",
      "outputs": [
        {
          "internalType": "string",
          "name": "",
          "type": "string"
        }
      ],
      "stateMutability": "view",
      "type": "function"
    },
    {
      "inputs": [],
      "name": "totalSupply",
      "outputs": [
        {
          "internalType": "uint256",
          "name": "",
          "type": "uint256"
        }
      ],
      "stateMutability": "view",
      "type": "function"
    },
    {
      "inputs": [
        {
          "internalType": "address",
          "name": "recipient",
          "type": "address"
        },
        {
          "internalType": "uint256",
          "name": "amount",
          "type": "uint256"
        }
      ],
      "name": "transfer",
      "outputs": [
        {
          "internalType": "bool",
          "name": "",
          "type": "bool"
        }
      ],
      "stateMutability": "nonpayable",
      "type": "function"
    },
    {
      "inputs": [
        {
          "internalType": "address",
          "name": "newDevPower",
          "type": "address"
        }
      ],
      "name": "transferDevPower",
      "outputs": [],
      "stateMutability": "nonpayable",
      "type": "function"
    },
    {
      "inputs": [
        {
          "internalType": "address",
          "name": "sender",
          "type": "address"
        },
        {
          "internalType": "address",
          "name": "recipient",
          "type": "address"
        },
        {
          "internalType": "uint256",
          "name": "amount",
          "type": "uint256"
        }
      ],
      "name": "transferFrom",
      "outputs": [
        {
          "internalType": "bool",
          "name": "",
          "type": "bool"
        }
      ],
      "stateMutability": "nonpayable",
      "type": "function"
    },
    {
      "inputs": [
        {
          "internalType": "address",
          "name": "newOwner",
          "type": "address"
        }
      ],
      "name": "transferOwnership",
      "outputs": [],
      "stateMutability": "nonpayable",
      "type": "function"
    },
    {
      "inputs": [
        {
          "internalType": "uint16",
          "name": "_newAntiWhalePercent",
          "type": "uint16"
        }
      ],
      "name": "updateMaxTransferAntiWhale",
      "outputs": [],
      "stateMutability": "nonpayable",
      "type": "function"
    }
  ],
  "bytecode": "0x60806040526009805460ff19169055600c805461ffff19166105dc1790553480156200002a57600080fd5b506040518060400160405280600681526020016511db1bd8985b60d21b8152506040518060400160405280600381526020016223a62160e91b815250600062000078620001df60201b60201c565b600080546001600160a01b0319166001600160a01b0383169081178255604051929350917f8be0079c531659141344cd1fd0a4f28419497f9722a3daafe3b4186f6b6457e0908290a3506000620000ce620001df565b600180546001600160a01b0319166001600160a01b038316908117909155604051919250906000907f7a6fa3fe09154b47b93710b30e5c7871c09ba0dd8d1cc6aea92508170157971f908290a350815162000131906005906020850190620001e3565b50805162000147906006906020840190620001e3565b50506007805460ff19908116601217909155336000908152600b602052604080822080548416600190811790915530835290822080548416821790557f44433eeeda1d04bdae79f62169cdb2ab0a6af287fa15706d3fafdbac5fac341580548416821790559080527fdf7de25b7f1fd6d0b5205f0e18f1f35bd7b8d84cce336588d184533ce43a6f768054909216179055506200027f565b3390565b828054600181600116156101000203166002900490600052602060002090601f016020900481019282601f106200022657805160ff191683800117855562000256565b8280016001018555821562000256579182015b828111156200025657825182559160200191906001019062000239565b506200026492915062000268565b5090565b5b8082111562000264576000815560010162000269565b61284d806200028f6000396000f3fe608060405234801561001057600080fd5b50600436106102695760003560e01c80638da5cb5b11610151578063c6a276c2116100c3578063e7a324dc11610087578063e7a324dc14610780578063f1127ed814610788578063f2fde38b146107da578063f8aebef014610800578063fccc281314610808578063fe575a871461081057610269565b8063c6a276c2146106ee578063c7f59a6714610714578063c9567bf914610742578063d479ddbf1461074a578063dd62ed3e1461075257610269565b8063a457c2d711610115578063a457c2d7146105fb578063a9059cbb14610627578063b481092d14610653578063b4b5ea571461065b578063c182b9ec14610681578063c3cda520146106a757610269565b80638da5cb5b146105a557806395d89b41146105ad57806397a98955146105b5578063a0712d68146105bd578063a2ad3e0c146105da57610269565b806339509351116101ea57806370a08231116101ae57806370a0823114610515578063715018a61461053b57806377e046e814610543578063782d6fe11461054b5780637ecebe0014610577578063893d20e81461059d57610269565b8063395093511461043a578063587cde1e146104665780635c19a95c146104a8578063621744a2146104ce5780636fcfff45146104d657610269565b8063188efc1611610231578063188efc161461039257806320606b70146103b857806323b872dd146103c05780632793fe41146103f6578063313ce5671461041c57610269565b806306fdde031461026e578063095ea7b3146102eb5780630bedd3a71461032b57806316437f461461035957806318160ddd14610378575b600080fd5b610276610836565b6040805160208082528351818301528351919283929083019185019080838360005b838110156102b0578181015183820152602001610298565b50505050905090810190601f1680156102dd5780820380516001836020036101000a031916815260200191505b509250505060405180910390f35b6103176004803603604081101561030157600080fd5b506001600160a01b0381351690602001356108cc565b604080519115158252519081900360200190f35b6103576004803603604081101561034157600080fd5b506001600160a01b0381351690602001356108ea565b005b610361610975565b6040805161ffff9092168252519081900360200190f35b61038061097f565b60408051918252519081900360200190f35b610357600480360360208110156103a857600080fd5b50356001600160a01b0316610985565b610380610a6f565b610317600480360360608110156103d657600080fd5b506001600160a01b03813581169160208101359091169060400135610a93565b6103576004803603602081101561040c57600080fd5b50356001600160a01b0316610b1a565b610424610b7a565b6040805160ff9092168252519081900360200190f35b6103176004803603604081101561045057600080fd5b506001600160a01b038135169060200135610b83565b61048c6004803603602081101561047c57600080fd5b50356001600160a01b0316610bd1565b604080516001600160a01b039092168252519081900360200190f35b610357600480360360208110156104be57600080fd5b50356001600160a01b0316610bef565b610357610bf9565b6104fc600480360360208110156104ec57600080fd5b50356001600160a01b0316610c97565b6040805163ffffffff9092168252519081900360200190f35b6103806004803603602081101561052b57600080fd5b50356001600160a01b0316610caf565b610357610cca565b61048c610d6c565b6103806004803603604081101561056157600080fd5b506001600160a01b038135169060200135610d7b565b6103806004803603602081101561058d57600080fd5b50356001600160a01b0316610f83565b61048c610f95565b61048c610fa4565b610276610fb3565b610357611014565b610317600480360360208110156105d357600080fd5b5035611078565b610357600480360360208110156105f057600080fd5b503561ffff166110eb565b6103176004803603604081101561061157600080fd5b506001600160a01b0381351690602001356111e0565b6103176004803603604081101561063d57600080fd5b506001600160a01b038135169060200135611248565b61048c61125c565b6103806004803603602081101561067157600080fd5b50356001600160a01b031661126b565b6103176004803603602081101561069757600080fd5b50356001600160a01b03166112cf565b610357600480360360c08110156106bd57600080fd5b506001600160a01b038135169060208101359060408101359060ff6060820135169060808101359060a001356112ed565b6103576004803603602081101561070457600080fd5b50356001600160a01b0316611560565b6103576004803603604081101561072a57600080fd5b506001600160a01b0381351690602001351515611646565b6103576116c5565b610380611730565b6103806004803603604081101561076857600080fd5b506001600160a01b038135811691602001351661175a565b610380611785565b6107ba6004803603604081101561079e57600080fd5b5080356001600160a01b0316906020013563ffffffff166117a9565b6040805163ffffffff909316835260208301919091528051918290030190f35b610357600480360360208110156107f057600080fd5b50356001600160a01b03166117d6565b610361611837565b61048c61183d565b6103176004803603602081101561082657600080fd5b50356001600160a01b0316611843565b60058054604080516020601f60026000196101006001881615020190951694909404938401819004810282018101909252828152606093909290918301828280156108c25780601f10610897576101008083540402835291602001916108c2565b820191906000526020600020905b8154815290600101906020018083116108a557829003601f168201915b5050505050905090565b60006108e06108d9611861565b8484611865565b5060015b92915050565b6108f2611861565b6000546001600160a01b03908116911614610942576040805162461bcd60e51b81526020600482018190526024820152600080516020612717833981519152604482015290519081900360640190fd5b61094c8282611951565b6001600160a01b038083166000908152600d6020526040812054610971921683611a37565b5050565b600c5461ffff1681565b60045490565b61098d611861565b6000546001600160a01b039081169116146109dd576040805162461bcd60e51b81526020600482018190526024820152600080516020612717833981519152604482015290519081900360640190fd5b6001600160a01b03811660009081526008602052604090205460ff1615610a4b576040805162461bcd60e51b815260206004820152601e60248201527f4163636f756e7420697320616c726561647920626c61636b6c69737465640000604482015290519081900360640190fd5b6001600160a01b03166000908152600860205260409020805460ff19166001179055565b7f8cad95687ba82c2ce50e74f7b754645e5117c3a5bec8151c0726d5857980a86681565b6000610aa0848484611b79565b610b1084610aac611861565b610b0b85604051806060016040528060288152602001612575602891396001600160a01b038a16600090815260036020526040812090610aea611861565b6001600160a01b031681526020810191909152604001600020549190611d93565b611865565b5060019392505050565b610b22611861565b6001546001600160a01b03908116911614610b6e5760405162461bcd60e51b815260040180806020018281038252602b81526020018061260c602b913960400191505060405180910390fd5b610b7781611e2a565b50565b60075460ff1690565b60006108e0610b90611861565b84610b0b8560036000610ba1611861565b6001600160a01b03908116825260208083019390935260409182016000908120918c168152925290205490611ecb565b6001600160a01b039081166000908152600d60205260409020541690565b610b773382611f25565b610c01611861565b6001546001600160a01b03908116911614610c4d5760405162461bcd60e51b815260040180806020018281038252602b81526020018061260c602b913960400191505060405180910390fd5b6001546040516000916001600160a01b0316907f7a6fa3fe09154b47b93710b30e5c7871c09ba0dd8d1cc6aea92508170157971f908390a3600180546001600160a01b0319169055565b600f6020526000908152604090205463ffffffff1681565b6001600160a01b031660009081526002602052604090205490565b610cd2611861565b6000546001600160a01b03908116911614610d22576040805162461bcd60e51b81526020600482018190526024820152600080516020612717833981519152604482015290519081900360640190fd5b600080546040516001600160a01b03909116907f8be0079c531659141344cd1fd0a4f28419497f9722a3daafe3b4186f6b6457e0908390a3600080546001600160a01b0319169055565b6001546001600160a01b031690565b6000438210610dbb5760405162461bcd60e51b815260040180806020018281038252602981526020018061275d6029913960400191505060405180910390fd5b6001600160a01b0383166000908152600f602052604090205463ffffffff1680610de95760009150506108e4565b6001600160a01b0384166000908152600e6020908152604080832063ffffffff600019860181168552925290912054168310610e58576001600160a01b0384166000908152600e602090815260408083206000199490940163ffffffff168352929052206001015490506108e4565b6001600160a01b0384166000908152600e6020908152604080832083805290915290205463ffffffff16831015610e935760009150506108e4565b600060001982015b8163ffffffff168163ffffffff161115610f4c57600282820363ffffffff16048103610ec5612490565b506001600160a01b0387166000908152600e6020908152604080832063ffffffff808616855290835292819020815180830190925280549093168082526001909301549181019190915290871415610f27576020015194506108e49350505050565b805163ffffffff16871115610f3e57819350610f45565b6001820392505b5050610e9b565b506001600160a01b0385166000908152600e6020908152604080832063ffffffff9094168352929052206001015491505092915050565b60106020526000908152604090205481565b6000610f9f610fa4565b905090565b6000546001600160a01b031690565b60068054604080516020601f60026000196101006001881615020190951694909404938401819004810282018101909252828152606093909290918301828280156108c25780601f10610897576101008083540402835291602001916108c2565b61101c611861565b6000546001600160a01b0390811691161461106c576040805162461bcd60e51b81526020600482018190526024820152600080516020612717833981519152604482015290519081900360640190fd5b6009805460ff19169055565b6000611082611861565b6000546001600160a01b039081169116146110d2576040805162461bcd60e51b81526020600482018190526024820152600080516020612717833981519152604482015290519081900360640190fd5b6110e36110dd611861565b83611951565b506001919050565b6110f3611861565b6001546001600160a01b0390811691161461113f5760405162461bcd60e51b815260040180806020018281038252602b81526020018061260c602b913960400191505060405180910390fd5b6105dc61ffff821611156111845760405162461bcd60e51b815260040180806020018281038252606a81526020018061268c606a913960800191505060405180910390fd5b600c546040805161ffff92831681529183166020830152805133927f305525e9095394f8a3c6898cac32e6654de1c7d0d8f4536c0a94ee96b5be5a2292908290030190a2600c805461ffff191661ffff92909216919091179055565b60006108e06111ed611861565b84610b0b856040518060600160405280602581526020016127d16025913960036000611217611861565b6001600160a01b03908116825260208083019390935260409182016000908120918d16815292529020549190611d93565b60006108e0611255611861565b8484611b79565b6001546001600160a01b031681565b6001600160a01b0381166000908152600f602052604081205463ffffffff16806112965760006112c8565b6001600160a01b0383166000908152600e6020908152604080832063ffffffff60001986011684529091529020600101545b9392505050565b6001600160a01b03166000908152600b602052604090205460ff1690565b60007f8cad95687ba82c2ce50e74f7b754645e5117c3a5bec8151c0726d5857980a866611318610836565b80519060200120611327611fba565b60408051602080820195909552808201939093526060830191909152306080808401919091528151808403909101815260a0830182528051908401207fe48329057bfd03d55e49b547132e39cffd9c1820ad7b9d4c5307691425d15adf60c08401526001600160a01b038b1660e084015261010083018a90526101208084018a9052825180850390910181526101408401835280519085012061190160f01b6101608501526101628401829052610182808501829052835180860390910181526101a285018085528151918701919091206000918290526101c2860180865281905260ff8b166101e287015261020286018a90526102228601899052935192965090949293909260019261024280840193601f198301929081900390910190855afa15801561145a573d6000803e3d6000fd5b5050604051601f1901519150506001600160a01b0381166114ac5760405162461bcd60e51b81526004018080602001828103825260288152602001806124f16028913960400191505060405180910390fd5b6001600160a01b0381166000908152601060205260409020805460018101909155891461150a5760405162461bcd60e51b81526004018080602001828103825260248152602001806126686024913960400191505060405180910390fd5b874211156115495760405162461bcd60e51b81526004018080602001828103825260288152602001806127a96028913960400191505060405180910390fd5b611553818b611f25565b505050505b505050505050565b611568611861565b6000546001600160a01b039081169116146115b8576040805162461bcd60e51b81526020600482018190526024820152600080516020612717833981519152604482015290519081900360640190fd5b6001600160a01b03811660009081526008602052604090205460ff16611625576040805162461bcd60e51b815260206004820152601a60248201527f4163636f756e74206973206e6f7420626c61636b6c6973746564000000000000604482015290519081900360640190fd5b6001600160a01b03166000908152600860205260409020805460ff19169055565b61164e611861565b6001546001600160a01b0390811691161461169a5760405162461bcd60e51b815260040180806020018281038252602b81526020018061260c602b913960400191505060405180910390fd5b6001600160a01b03919091166000908152600b60205260409020805460ff1916911515919091179055565b6116cd611861565b6000546001600160a01b0390811691161461171d576040805162461bcd60e51b81526020600482018190526024820152600080516020612717833981519152604482015290519081900360640190fd5b6009805460ff1916600117905542600a55565b600c54600090610f9f90612710906117549061ffff1661174e61097f565b90611fbe565b90612017565b6001600160a01b03918216600090815260036020908152604080832093909416825291909152205490565b7fe48329057bfd03d55e49b547132e39cffd9c1820ad7b9d4c5307691425d15adf81565b600e6020908152600092835260408084209091529082529020805460019091015463ffffffff9091169082565b6117de611861565b6000546001600160a01b0390811691161461182e576040805162461bcd60e51b81526020600482018190526024820152600080516020612717833981519152604482015290519081900360640190fd5b610b778161207e565b6105dc81565b61dead81565b6001600160a01b031660009081526008602052604090205460ff1690565b3390565b6001600160a01b0383166118aa5760405162461bcd60e51b81526004018080602001828103825260248152602001806124cd6024913960400191505060405180910390fd5b6001600160a01b0382166118ef5760405162461bcd60e51b81526004018080602001828103825260228152602001806127f66022913960400191505060405180910390fd5b6001600160a01b03808416600081815260036020908152604080832094871680845294825291829020859055815185815291517f8c5be1e5ebec7d5bd14f71427d1e84f3dd0314c0f7b2291e5b200ac8c7c3b9259281900390910190a3505050565b6001600160a01b0382166119ac576040805162461bcd60e51b815260206004820152601f60248201527f42455032303a206d696e7420746f20746865207a65726f206164647265737300604482015290519081900360640190fd5b6004546119b99082611ecb565b6004556001600160a01b0382166000908152600260205260409020546119df9082611ecb565b6001600160a01b03831660008181526002602090815260408083209490945583518581529351929391927fddf252ad1be2c89b69c2b068fc378daa952ba7f163c4a11628f55a4df523b3ef9281900390910190a35050565b816001600160a01b0316836001600160a01b031614158015611a595750600081115b15611b74576001600160a01b03831615611aeb576001600160a01b0383166000908152600f602052604081205463ffffffff169081611a99576000611acb565b6001600160a01b0385166000908152600e6020908152604080832063ffffffff60001987011684529091529020600101545b90506000611ad9828561211e565b9050611ae78684848461217b565b5050505b6001600160a01b03821615611b74576001600160a01b0382166000908152600f602052604081205463ffffffff169081611b26576000611b58565b6001600160a01b0384166000908152600e6020908152604080832063ffffffff60001987011684529091529020600101545b90506000611b668285611ecb565b90506115588584848461217b565b505050565b8282826000611b86611730565b1115611c19576001600160a01b0383166000908152600b602052604090205460ff16158015611bce57506001600160a01b0382166000908152600b602052604090205460ff16155b15611c1957611bdb611730565b811115611c195760405162461bcd60e51b815260040180806020018281038252606f81526020018061259d606f913960800191505060405180910390fd5b6001600160a01b03861660009081526008602052604090205460ff1615611c81576040805162461bcd60e51b8152602060048201526017602482015276596f752068617665206e6f20706f77657220686572652160481b604482015290519081900360640190fd5b6001600160a01b03851660009081526008602052604090205460ff1615611ce9576040805162461bcd60e51b8152602060048201526017602482015276596f752068617665206e6f20706f77657220686572652160481b604482015290519081900360640190fd5b600a54421415611d17576001600160a01b0385166000908152600860205260409020805460ff191660011790555b60095460ff1680611d405750611d2b610fa4565b6001600160a01b0316336001600160a01b0316145b611d88576040805162461bcd60e51b8152602060048201526014602482015273151a19481b585c9ad95d081a5cc818db1bdcd95960621b604482015290519081900360640190fd5b6115588686866122e0565b60008184841115611e225760405162461bcd60e51b81526004018080602001828103825283818151815260200191508051906020019080838360005b83811015611de7578181015183820152602001611dcf565b50505050905090810190601f168015611e145780820380516001836020036101000a031916815260200191505b509250505060405180910390fd5b505050900390565b6001600160a01b038116611e6f5760405162461bcd60e51b81526004018080602001828103825260318152602001806126376031913960400191505060405180910390fd5b6001546040516001600160a01b038084169216907f7a6fa3fe09154b47b93710b30e5c7871c09ba0dd8d1cc6aea92508170157971f90600090a3600180546001600160a01b0319166001600160a01b0392909216919091179055565b6000828201838110156112c8576040805162461bcd60e51b815260206004820152601b60248201527f536166654d6174683a206164646974696f6e206f766572666c6f770000000000604482015290519081900360640190fd5b6001600160a01b038083166000908152600d602052604081205490911690611f4c84610caf565b6001600160a01b038581166000818152600d602052604080822080546001600160a01b031916898616908117909155905194955093928616927f3134e8a2e6d97e929a7e54011ea5485d7d196dd5f0ba4d4ef95803e8e3fc257f9190a4611fb4828483611a37565b50505050565b4690565b600082611fcd575060006108e4565b82820282848281611fda57fe5b04146112c85760405162461bcd60e51b81526004018080602001828103825260218152602001806126f66021913960400191505060405180910390fd5b600080821161206d576040805162461bcd60e51b815260206004820152601a60248201527f536166654d6174683a206469766973696f6e206279207a65726f000000000000604482015290519081900360640190fd5b81838161207657fe5b049392505050565b6001600160a01b0381166120c35760405162461bcd60e51b81526004018080602001828103825260268152602001806125196026913960400191505060405180910390fd5b600080546040516001600160a01b03808516939216917f8be0079c531659141344cd1fd0a4f28419497f9722a3daafe3b4186f6b6457e091a3600080546001600160a01b0319166001600160a01b0392909216919091179055565b600082821115612175576040805162461bcd60e51b815260206004820152601e60248201527f536166654d6174683a207375627472616374696f6e206f766572666c6f770000604482015290519081900360640190fd5b50900390565b600061219f4360405180606001604052806036815260200161253f60369139612432565b905060008463ffffffff161180156121e857506001600160a01b0385166000908152600e6020908152604080832063ffffffff6000198901811685529252909120548282169116145b15612225576001600160a01b0385166000908152600e6020908152604080832063ffffffff60001989011684529091529020600101829055612296565b60408051808201825263ffffffff808416825260208083018681526001600160a01b038a166000818152600e84528681208b8616825284528681209551865490861663ffffffff199182161787559251600196870155908152600f9092529390208054928801909116919092161790555b604080518481526020810184905281516001600160a01b038816927fdec2bacdd2f05b59de34da9b523dff8be42e5e38e818c82fdb0bae774387a724928290030190a25050505050565b6001600160a01b0383166123255760405162461bcd60e51b81526004018080602001828103825260258152602001806124a86025913960400191505060405180910390fd5b6001600160a01b03821661236a5760405162461bcd60e51b81526004018080602001828103825260238152602001806127866023913960400191505060405180910390fd5b6123a781604051806060016040528060268152602001612737602691396001600160a01b0386166000908152600260205260409020549190611d93565b6001600160a01b0380851660009081526002602052604080822093909355908416815220546123d69082611ecb565b6001600160a01b0380841660008181526002602090815260409182902094909455805185815290519193928716927fddf252ad1be2c89b69c2b068fc378daa952ba7f163c4a11628f55a4df523b3ef92918290030190a3505050565b60008164010000000084106124885760405162461bcd60e51b8152602060048201818152835160248401528351909283926044909101919085019080838360008315611de7578181015183820152602001611dcf565b509192915050565b60408051808201909152600080825260208201529056fe42455032303a207472616e736665722066726f6d20746865207a65726f206164647265737342455032303a20617070726f76652066726f6d20746865207a65726f2061646472657373474c4f42414c3a3a64656c656761746542795369673a20696e76616c6964207369676e61747572654f776e61626c653a206e6577206f776e657220697320746865207a65726f2061646472657373474c4f42414c3a3a5f7772697465436865636b706f696e743a20626c6f636b206e756d6265722065786365656473203332206269747342455032303a207472616e7366657220616d6f756e74206578636565647320616c6c6f77616e63655b215d20416e74697768616c65206d6574686f64207472696767657265642e20596f752061726520747279696e6720746f207472616e7366657220746f6f206d616e7920746f6b656e732e2043616c6d20646f776e20616e6420646f6e27742070616e69632073656c6c2062726f2e446576506f7765723a2063616c6c6572206973206e6f742074686520646576207769746820706f77657273446576506f7765723a206e657720646576207769746820706f7765727320697320746865207a65726f2061646472657373474c4f42414c3a3a64656c656761746542795369673a20696e76616c6964206e6f6e63655b215d20416e74697768616c65206d6574686f64207472696767657265642e20596f752061726520747279696e6720746f207365742061202520776869636820697320746f6f206869676820436865636b204d41585f414e54495748414c4520696e207468652053432e536166654d6174683a206d756c7469706c69636174696f6e206f766572666c6f774f776e61626c653a2063616c6c6572206973206e6f7420746865206f776e657242455032303a207472616e7366657220616d6f756e7420657863656564732062616c616e6365474c4f42414c3a3a6765745072696f72566f7465733a206e6f74207965742064657465726d696e656442455032303a207472616e7366657220746f20746865207a65726f2061646472657373474c4f42414c3a3a64656c656761746542795369673a207369676e6174757265206578706972656442455032303a2064656372656173656420616c6c6f77616e63652062656c6f77207a65726f42455032303a20617070726f766520746f20746865207a65726f2061646472657373a264697066735822122081854a39221b4c7950602d555ecef8070bf6f503886eac08ec060e843af74b7164736f6c634300060c0033",
  "linkReferences": {},
  "deployedLinkReferences": {}
}