{
  "_format": "hh-sol-artifact-1",
  "contractName": "PathFinder",
  "sourceName": "contracts/Helpers/PathFinder.sol",
  "abi": [
    {
      "inputs": [
        {
          "internalType": "address",
          "name": "_tokenAddresses",
          "type": "address"
        }
      ],
      "stateMutability": "nonpayable",
      "type": "constructor"
    },
    {
      "anonymous": false,
      "inputs": [
        {
          "indexed": true,
          "internalType": "address",
          "name": "previousOwner",
          "type": "address"
        },
        {
          "indexed": true,
          "internalType": "address",
          "name": "newOwner",
          "type": "address"
        }
      ],
      "name": "OwnershipTransferred",
      "type": "event"
    },
    {
      "inputs": [
        {
          "internalType": "address",
          "name": "_token",
          "type": "address"
        },
        {
          "internalType": "address",
          "name": "_tokenRoute",
          "type": "address"
        },
        {
          "internalType": "bool",
          "name": "_directBNB",
          "type": "bool"
        }
      ],
      "name": "addRouteInfo",
      "outputs": [],
      "stateMutability": "nonpayable",
      "type": "function"
    },
    {
      "inputs": [
        {
          "internalType": "address",
          "name": "_token",
          "type": "address"
        }
      ],
      "name": "addRouteInfoDirect",
      "outputs": [],
      "stateMutability": "nonpayable",
      "type": "function"
    },
    {
      "inputs": [
        {
          "internalType": "address",
          "name": "_token",
          "type": "address"
        },
        {
          "internalType": "address",
          "name": "_tokenRoute",
          "type": "address"
        }
      ],
      "name": "addRouteInfoRoute",
      "outputs": [],
      "stateMutability": "nonpayable",
      "type": "function"
    },
    {
      "inputs": [
        {
          "internalType": "address",
          "name": "_tokenFrom",
          "type": "address"
        },
        {
          "internalType": "address",
          "name": "_tokenTo",
          "type": "address"
        }
      ],
      "name": "findPath",
      "outputs": [
        {
          "internalType": "address[]",
          "name": "",
          "type": "address[]"
        }
      ],
      "stateMutability": "view",
      "type": "function"
    },
    {
      "inputs": [
        {
          "internalType": "address",
          "name": "_token",
          "type": "address"
        }
      ],
      "name": "getRouteInfoDirectBNB",
      "outputs": [
        {
          "internalType": "bool",
          "name": "",
          "type": "bool"
        }
      ],
      "stateMutability": "view",
      "type": "function"
    },
    {
      "inputs": [
        {
          "internalType": "address",
          "name": "_token",
          "type": "address"
        }
      ],
      "name": "getRouteInfoTokenRoute",
      "outputs": [
        {
          "internalType": "address",
          "name": "",
          "type": "address"
        }
      ],
      "stateMutability": "view",
      "type": "function"
    },
    {
      "inputs": [
        {
          "internalType": "address",
          "name": "_token",
          "type": "address"
        }
      ],
      "name": "isTokenConnected",
      "outputs": [
        {
          "internalType": "bool",
          "name": "",
          "type": "bool"
        }
      ],
      "stateMutability": "view",
      "type": "function"
    },
    {
      "inputs": [],
      "name": "owner",
      "outputs": [
        {
          "internalType": "address",
          "name": "",
          "type": "address"
        }
      ],
      "stateMutability": "view",
      "type": "function"
    },
    {
      "inputs": [
        {
          "internalType": "address",
          "name": "_token",
          "type": "address"
        }
      ],
      "name": "removeRouteInfo",
      "outputs": [],
      "stateMutability": "nonpayable",
      "type": "function"
    },
    {
      "inputs": [],
      "name": "renounceOwnership",
      "outputs": [],
      "stateMutability": "nonpayable",
      "type": "function"
    },
    {
      "inputs": [
        {
          "internalType": "address",
          "name": "",
          "type": "address"
        }
      ],
      "name": "routeInfos",
      "outputs": [
        {
          "internalType": "bool",
          "name": "directBNB",
          "type": "bool"
        },
        {
          "internalType": "address",
          "name": "tokenRoute",
          "type": "address"
        }
      ],
      "stateMutability": "view",
      "type": "function"
    },
    {
      "inputs": [],
      "name": "tokenAddresses",
      "outputs": [
        {
          "internalType": "contract TokenAddresses",
          "name": "",
          "type": "address"
        }
      ],
      "stateMutability": "view",
      "type": "function"
    },
    {
      "inputs": [
        {
          "internalType": "address",
          "name": "newOwner",
          "type": "address"
        }
      ],
      "name": "transferOwnership",
      "outputs": [],
      "stateMutability": "nonpayable",
      "type": "function"
    }
  ],
  "bytecode": "0x608060405234801561001057600080fd5b506040516112633803806112638339818101604052602081101561003357600080fd5b5051600061003f6100ae565b600080546001600160a01b0319166001600160a01b0383169081178255604051929350917f8be0079c531659141344cd1fd0a4f28419497f9722a3daafe3b4186f6b6457e0908290a350600180546001600160a01b0319166001600160a01b03929092169190911790556100b2565b3390565b6111a2806100c16000396000f3fe608060405234801561001057600080fd5b50600436106100cf5760003560e01c806393ee23031161008c578063c734257511610066578063c73425751461026c578063cde832951461029a578063dede4797146102c0578063f2fde38b14610309576100cf565b806393ee2303146101ae578063a1c421cd146101e6578063a9989b9314610264576100cf565b80630f990d00146100d45780631fd885571461010e578063715018a61461013657806380cc92901461013e5780638c0077d1146101805780638da5cb5b146101a6575b600080fd5b6100fa600480360360208110156100ea57600080fd5b50356001600160a01b031661032f565b604080519115158252519081900360200190f35b6101346004803603602081101561012457600080fd5b50356001600160a01b031661037d565b005b6101346103f9565b6101646004803603602081101561015457600080fd5b50356001600160a01b031661049b565b604080516001600160a01b039092168252519081900360200190f35b6100fa6004803603602081101561019657600080fd5b50356001600160a01b03166104be565b6101646104dc565b610134600480360360608110156101c457600080fd5b506001600160a01b0381358116916020810135909116906040013515156104eb565b610214600480360360408110156101fc57600080fd5b506001600160a01b03813581169160200135166105d5565b60408051602080825283518183015283519192839290830191858101910280838360005b83811015610250578181015183820152602001610238565b505050509050019250505060405180910390f35b610164610de8565b6101346004803603604081101561028257600080fd5b506001600160a01b0381358116916020013516610df7565b610134600480360360208110156102b057600080fd5b50356001600160a01b0316610ecc565b6102e6600480360360208110156102d657600080fd5b50356001600160a01b0316610f4b565b6040805192151583526001600160a01b0390911660208301528051918290030190f35b6101346004803603602081101561031f57600080fd5b50356001600160a01b0316610f70565b6001600160a01b0381811660009081526002602052604081205490916101009091041615158061037757506001600160a01b03821660009081526002602052604090205460ff165b92915050565b610385610fd4565b6000546001600160a01b039081169116146103d5576040805162461bcd60e51b8152602060048201819052602482015260008051602061114d833981519152604482015290519081900360640190fd5b6001600160a01b03166000908152600260205260409020805460ff19166001179055565b610401610fd4565b6000546001600160a01b03908116911614610451576040805162461bcd60e51b8152602060048201819052602482015260008051602061114d833981519152604482015290519081900360640190fd5b600080546040516001600160a01b03909116907f8be0079c531659141344cd1fd0a4f28419497f9722a3daafe3b4186f6b6457e0908390a3600080546001600160a01b0319169055565b6001600160a01b0390811660009081526002602052604090205461010090041690565b6001600160a01b031660009081526002602052604090205460ff1690565b6000546001600160a01b031690565b6104f3610fd4565b6000546001600160a01b03908116911614610543576040805162461bcd60e51b8152602060048201819052602482015260008051602061114d833981519152604482015290519081900360640190fd5b6001600160a01b0382161515806105575750805b6105925760405162461bcd60e51b815260040180806020018281038252604e8152602001806110d9604e913960600191505060405180910390fd5b6001600160a01b039283166000908152600260205260409020805491151560ff199490931661010002610100600160a81b03199092169190911792909216179055565b60606105df6110c1565b6105e884610fd8565b90506105f26110c1565b6105fb84610fd8565b60015460408051632c7bfb6960e11b815290519293506000926001600160a01b0390921691634d9a31369183916358f7f6d2916004808201928892909190829003018186803b15801561064d57600080fd5b505afa158015610661573d6000803e3d6000fd5b505050506040513d6000823e601f3d908101601f19168201604052602081101561068a57600080fd5b81019080805160405193929190846401000000008211156106aa57600080fd5b9083019060208201858111156106bf57600080fd5b82516401000000008111828201881017156106d957600080fd5b82525081516020918201929091019080838360005b838110156107065781810151838201526020016106ee565b50505050905090810190601f1680156107335780820380516001836020036101000a031916815260200191505b506040525050506040518263ffffffff1660e01b81526004018080602001828103825283818151815260200191508051906020019080838360005b8381101561078657818101518382015260200161076e565b50505050905090810190601f1680156107b35780820380516001836020036101000a031916815260200191505b509250505060206040518083038186803b1580156107d057600080fd5b505afa1580156107e4573d6000803e3d6000fd5b505050506040513d60208110156107fa57600080fd5b5051905060606001600160a01b03878116908316148015610819575082515b8061083e5750816001600160a01b0316866001600160a01b031614801561083e575083515b156108d657600260005b50604051908082528060200260200182016040528015610872578160200160208202803683370190505b509050868160008151811061088357fe5b60200260200101906001600160a01b031690816001600160a01b03168152505085816001815181106108b157fe5b60200260200101906001600160a01b031690816001600160a01b031681525050610dde565b60208401516001600160a01b0316158015906109035750816001600160a01b0316866001600160a01b0316145b80610936575060208301516001600160a01b0316158015906109365750816001600160a01b0316876001600160a01b0316145b156109d757604080516003808252608082019092529060208201606080368337019050509050868160008151811061096a57fe5b6001600160a01b039283166020918202929092018101919091528501511661099657826020015161099c565b83602001515b816001815181106109a957fe5b60200260200101906001600160a01b031690816001600160a01b03168152505085816002815181106108b157fe5b82602001516001600160a01b0316876001600160a01b03161480610a10575083602001516001600160a01b0316866001600160a01b0316145b15610a1e5760026000610848565b60208401516001600160a01b031615801590610a53575082602001516001600160a01b031684602001516001600160a01b0316145b15610ab9576040805160038082526080820190925290602082016060803683370190505090508681600081518110610a8757fe5b60200260200101906001600160a01b031690816001600160a01b0316815250508360200151816001815181106109a957fe5b83518015610ac5575082515b15610b27576040805160038082526080820190925290602082016060803683370190505090508681600081518110610af957fe5b60200260200101906001600160a01b031690816001600160a01b03168152505081816001815181106109a957fe5b60208401516001600160a01b031615801590610b41575082515b15610c035760408051600480825260a0820190925290602082016080803683370190505090508681600081518110610b7557fe5b60200260200101906001600160a01b031690816001600160a01b031681525050836020015181600181518110610ba757fe5b60200260200101906001600160a01b031690816001600160a01b0316815250508181600281518110610bd557fe5b60200260200101906001600160a01b031690816001600160a01b03168152505085816003815181106108b157fe5b60208301516001600160a01b031615801590610c1d575083515b15610cb15760408051600480825260a0820190925290602082016080803683370190505090508681600081518110610c5157fe5b60200260200101906001600160a01b031690816001600160a01b0316815250508181600181518110610c7f57fe5b60200260200101906001600160a01b031690816001600160a01b031681525050826020015181600281518110610bd557fe5b60208401516001600160a01b031615801590610cd9575060208301516001600160a01b031615155b15610dcd5760408051600580825260c08201909252906020820160a0803683370190505090508681600081518110610d0d57fe5b60200260200101906001600160a01b031690816001600160a01b031681525050836020015181600181518110610d3f57fe5b60200260200101906001600160a01b031690816001600160a01b0316815250508181600281518110610d6d57fe5b60200260200101906001600160a01b031690816001600160a01b031681525050826020015181600381518110610d9f57fe5b60200260200101906001600160a01b031690816001600160a01b03168152505085816004815181106108b157fe5b506040805160008152602081019091525b9695505050505050565b6001546001600160a01b031681565b610dff610fd4565b6000546001600160a01b03908116911614610e4f576040805162461bcd60e51b8152602060048201819052602482015260008051602061114d833981519152604482015290519081900360640190fd5b6001600160a01b038116610e945760405162461bcd60e51b815260040180806020018281038252604e8152602001806110d9604e913960600191505060405180910390fd5b6001600160a01b03918216600090815260026020526040902080549290911661010002610100600160a81b0319909216919091179055565b610ed4610fd4565b6000546001600160a01b03908116911614610f24576040805162461bcd60e51b8152602060048201819052602482015260008051602061114d833981519152604482015290519081900360640190fd5b6001600160a01b0316600090815260026020526040902080546001600160a81b0319169055565b60026020526000908152604090205460ff81169061010090046001600160a01b031682565b610f78610fd4565b6000546001600160a01b03908116911614610fc8576040805162461bcd60e51b8152602060048201819052602482015260008051602061114d833981519152604482015290519081900360640190fd5b610fd181611021565b50565b3390565b610fe06110c1565b506001600160a01b0390811660009081526002602090815260409182902082518084019093525460ff81161515835261010090049092169181019190915290565b6001600160a01b0381166110665760405162461bcd60e51b81526004018080602001828103825260268152602001806111276026913960400191505060405180910390fd5b600080546040516001600160a01b03808516939216917f8be0079c531659141344cd1fd0a4f28419497f9722a3daafe3b4186f6b6457e091a3600080546001600160a01b0319166001600160a01b0392909216919091179055565b60408051808201909152600080825260208201529056fe5061746846696e6465723a20796f75206d75737420646566696e6520656974686572206120646972656374207061746820746f20424e42206f72206120726f757465546f6b656e20746f20424e424f776e61626c653a206e6577206f776e657220697320746865207a65726f20616464726573734f776e61626c653a2063616c6c6572206973206e6f7420746865206f776e6572a2646970667358221220190b40d1205e24e567df38080abea96d2e5f9f83c3d1750bc148ebe7241a891a64736f6c634300060c0033",
  "linkReferences": {},
  "deployedLinkReferences": {}
}