{
  "_format": "hh-sol-artifact-1",
  "contractName": "GlobalDAOBondDepository",
  "sourceName": "contracts/BondDepository.sol",
  "abi": [
    {
      "inputs": [
        {
          "internalType": "address",
          "name": "_GLBD",
          "type": "address"
        },
        {
          "internalType": "address",
          "name": "_principle",
          "type": "address"
        },
        {
          "internalType": "address",
          "name": "_treasury",
          "type": "address"
        },
        {
          "internalType": "address",
          "name": "_DAO",
          "type": "address"
        },
        {
          "internalType": "address",
          "name": "_bondCalculator",
          "type": "address"
        }
      ],
      "stateMutability": "nonpayable",
      "type": "constructor"
    },
    {
      "anonymous": false,
      "inputs": [
        {
          "indexed": false,
          "internalType": "uint256",
          "name": "deposit",
          "type": "uint256"
        },
        {
          "indexed": true,
          "internalType": "uint256",
          "name": "payout",
          "type": "uint256"
        },
        {
          "indexed": true,
          "internalType": "uint256",
          "name": "expires",
          "type": "uint256"
        },
        {
          "indexed": true,
          "internalType": "uint256",
          "name": "priceInUSD",
          "type": "uint256"
        }
      ],
      "name": "BondCreated",
      "type": "event"
    },
    {
      "anonymous": false,
      "inputs": [
        {
          "indexed": true,
          "internalType": "uint256",
          "name": "priceInUSD",
          "type": "uint256"
        },
        {
          "indexed": true,
          "internalType": "uint256",
          "name": "internalPrice",
          "type": "uint256"
        },
        {
          "indexed": true,
          "internalType": "uint256",
          "name": "debtRatio",
          "type": "uint256"
        }
      ],
      "name": "BondPriceChanged",
      "type": "event"
    },
    {
      "anonymous": false,
      "inputs": [
        {
          "indexed": true,
          "internalType": "address",
          "name": "recipient",
          "type": "address"
        },
        {
          "indexed": false,
          "internalType": "uint256",
          "name": "payout",
          "type": "uint256"
        },
        {
          "indexed": false,
          "internalType": "uint256",
          "name": "remaining",
          "type": "uint256"
        }
      ],
      "name": "BondRedeemed",
      "type": "event"
    },
    {
      "anonymous": false,
      "inputs": [
        {
          "indexed": false,
          "internalType": "uint256",
          "name": "initialBCV",
          "type": "uint256"
        },
        {
          "indexed": false,
          "internalType": "uint256",
          "name": "newBCV",
          "type": "uint256"
        },
        {
          "indexed": false,
          "internalType": "uint256",
          "name": "adjustment",
          "type": "uint256"
        },
        {
          "indexed": false,
          "internalType": "bool",
          "name": "addition",
          "type": "bool"
        }
      ],
      "name": "ControlVariableAdjustment",
      "type": "event"
    },
    {
      "anonymous": false,
      "inputs": [
        {
          "indexed": true,
          "internalType": "address",
          "name": "previousOwner",
          "type": "address"
        },
        {
          "indexed": true,
          "internalType": "address",
          "name": "newOwner",
          "type": "address"
        }
      ],
      "name": "OwnershipPulled",
      "type": "event"
    },
    {
      "anonymous": false,
      "inputs": [
        {
          "indexed": true,
          "internalType": "address",
          "name": "previousOwner",
          "type": "address"
        },
        {
          "indexed": true,
          "internalType": "address",
          "name": "newOwner",
          "type": "address"
        }
      ],
      "name": "OwnershipPushed",
      "type": "event"
    },
    {
      "inputs": [],
      "name": "DAO",
      "outputs": [
        {
          "internalType": "address",
          "name": "",
          "type": "address"
        }
      ],
      "stateMutability": "view",
      "type": "function"
    },
    {
      "inputs": [],
      "name": "GLBD",
      "outputs": [
        {
          "internalType": "address",
          "name": "",
          "type": "address"
        }
      ],
      "stateMutability": "view",
      "type": "function"
    },
    {
      "inputs": [],
      "name": "adjustment",
      "outputs": [
        {
          "internalType": "bool",
          "name": "add",
          "type": "bool"
        },
        {
          "internalType": "uint256",
          "name": "rate",
          "type": "uint256"
        },
        {
          "internalType": "uint256",
          "name": "target",
          "type": "uint256"
        },
        {
          "internalType": "uint256",
          "name": "buffer",
          "type": "uint256"
        },
        {
          "internalType": "uint256",
          "name": "lastBlock",
          "type": "uint256"
        }
      ],
      "stateMutability": "view",
      "type": "function"
    },
    {
      "inputs": [],
      "name": "bondCalculator",
      "outputs": [
        {
          "internalType": "address",
          "name": "",
          "type": "address"
        }
      ],
      "stateMutability": "view",
      "type": "function"
    },
    {
      "inputs": [
        {
          "internalType": "address",
          "name": "",
          "type": "address"
        }
      ],
      "name": "bondInfo",
      "outputs": [
        {
          "internalType": "uint256",
          "name": "payout",
          "type": "uint256"
        },
        {
          "internalType": "uint256",
          "name": "vesting",
          "type": "uint256"
        },
        {
          "internalType": "uint256",
          "name": "lastBlock",
          "type": "uint256"
        },
        {
          "internalType": "uint256",
          "name": "pricePaid",
          "type": "uint256"
        }
      ],
      "stateMutability": "view",
      "type": "function"
    },
    {
      "inputs": [],
      "name": "bondPrice",
      "outputs": [
        {
          "internalType": "uint256",
          "name": "price_",
          "type": "uint256"
        }
      ],
      "stateMutability": "view",
      "type": "function"
    },
    {
      "inputs": [],
      "name": "bondPriceInUSD",
      "outputs": [
        {
          "internalType": "uint256",
          "name": "price_",
          "type": "uint256"
        }
      ],
      "stateMutability": "view",
      "type": "function"
    },
    {
      "inputs": [],
      "name": "currentDebt",
      "outputs": [
        {
          "internalType": "uint256",
          "name": "",
          "type": "uint256"
        }
      ],
      "stateMutability": "view",
      "type": "function"
    },
    {
      "inputs": [],
      "name": "debtDecay",
      "outputs": [
        {
          "internalType": "uint256",
          "name": "decay_",
          "type": "uint256"
        }
      ],
      "stateMutability": "view",
      "type": "function"
    },
    {
      "inputs": [],
      "name": "debtRatio",
      "outputs": [
        {
          "internalType": "uint256",
          "name": "debtRatio_",
          "type": "uint256"
        }
      ],
      "stateMutability": "view",
      "type": "function"
    },
    {
      "inputs": [
        {
          "internalType": "uint256",
          "name": "_amount",
          "type": "uint256"
        },
        {
          "internalType": "uint256",
          "name": "_maxPrice",
          "type": "uint256"
        },
        {
          "internalType": "address",
          "name": "_depositor",
          "type": "address"
        }
      ],
      "name": "deposit",
      "outputs": [
        {
          "internalType": "uint256",
          "name": "",
          "type": "uint256"
        }
      ],
      "stateMutability": "nonpayable",
      "type": "function"
    },
    {
      "inputs": [
        {
          "internalType": "uint256",
          "name": "_controlVariable",
          "type": "uint256"
        },
        {
          "internalType": "uint256",
          "name": "_vestingTerm",
          "type": "uint256"
        },
        {
          "internalType": "uint256",
          "name": "_minimumPrice",
          "type": "uint256"
        },
        {
          "internalType": "uint256",
          "name": "_maxPayout",
          "type": "uint256"
        },
        {
          "internalType": "uint256",
          "name": "_fee",
          "type": "uint256"
        },
        {
          "internalType": "uint256",
          "name": "_maxDebt",
          "type": "uint256"
        },
        {
          "internalType": "uint256",
          "name": "_initialDebt",
          "type": "uint256"
        }
      ],
      "name": "initializeBondTerms",
      "outputs": [],
      "stateMutability": "nonpayable",
      "type": "function"
    },
    {
      "inputs": [],
      "name": "isLiquidityBond",
      "outputs": [
        {
          "internalType": "bool",
          "name": "",
          "type": "bool"
        }
      ],
      "stateMutability": "view",
      "type": "function"
    },
    {
      "inputs": [],
      "name": "lastDecay",
      "outputs": [
        {
          "internalType": "uint256",
          "name": "",
          "type": "uint256"
        }
      ],
      "stateMutability": "view",
      "type": "function"
    },
    {
      "inputs": [],
      "name": "maxPayout",
      "outputs": [
        {
          "internalType": "uint256",
          "name": "",
          "type": "uint256"
        }
      ],
      "stateMutability": "view",
      "type": "function"
    },
    {
      "inputs": [
        {
          "internalType": "uint256",
          "name": "_value",
          "type": "uint256"
        }
      ],
      "name": "payoutFor",
      "outputs": [
        {
          "internalType": "uint256",
          "name": "",
          "type": "uint256"
        }
      ],
      "stateMutability": "view",
      "type": "function"
    },
    {
      "inputs": [
        {
          "internalType": "address",
          "name": "_depositor",
          "type": "address"
        }
      ],
      "name": "pendingPayoutFor",
      "outputs": [
        {
          "internalType": "uint256",
          "name": "pendingPayout_",
          "type": "uint256"
        }
      ],
      "stateMutability": "view",
      "type": "function"
    },
    {
      "inputs": [
        {
          "internalType": "address",
          "name": "_depositor",
          "type": "address"
        }
      ],
      "name": "percentVestedFor",
      "outputs": [
        {
          "internalType": "uint256",
          "name": "percentVested_",
          "type": "uint256"
        }
      ],
      "stateMutability": "view",
      "type": "function"
    },
    {
      "inputs": [],
      "name": "policy",
      "outputs": [
        {
          "internalType": "address",
          "name": "",
          "type": "address"
        }
      ],
      "stateMutability": "view",
      "type": "function"
    },
    {
      "inputs": [],
      "name": "principle",
      "outputs": [
        {
          "internalType": "address",
          "name": "",
          "type": "address"
        }
      ],
      "stateMutability": "view",
      "type": "function"
    },
    {
      "inputs": [],
      "name": "pullManagement",
      "outputs": [],
      "stateMutability": "nonpayable",
      "type": "function"
    },
    {
      "inputs": [
        {
          "internalType": "address",
          "name": "newOwner_",
          "type": "address"
        }
      ],
      "name": "pushManagement",
      "outputs": [],
      "stateMutability": "nonpayable",
      "type": "function"
    },
    {
      "inputs": [
        {
          "internalType": "address",
          "name": "_token",
          "type": "address"
        }
      ],
      "name": "recoverLostToken",
      "outputs": [
        {
          "internalType": "bool",
          "name": "",
          "type": "bool"
        }
      ],
      "stateMutability": "nonpayable",
      "type": "function"
    },
    {
      "inputs": [
        {
          "internalType": "address",
          "name": "_recipient",
          "type": "address"
        },
        {
          "internalType": "bool",
          "name": "_stake",
          "type": "bool"
        }
      ],
      "name": "redeem",
      "outputs": [
        {
          "internalType": "uint256",
          "name": "",
          "type": "uint256"
        }
      ],
      "stateMutability": "nonpayable",
      "type": "function"
    },
    {
      "inputs": [],
      "name": "renounceManagement",
      "outputs": [],
      "stateMutability": "nonpayable",
      "type": "function"
    },
    {
      "inputs": [
        {
          "internalType": "bool",
          "name": "_addition",
          "type": "bool"
        },
        {
          "internalType": "uint256",
          "name": "_increment",
          "type": "uint256"
        },
        {
          "internalType": "uint256",
          "name": "_target",
          "type": "uint256"
        },
        {
          "internalType": "uint256",
          "name": "_buffer",
          "type": "uint256"
        }
      ],
      "name": "setAdjustment",
      "outputs": [],
      "stateMutability": "nonpayable",
      "type": "function"
    },
    {
      "inputs": [
        {
          "internalType": "enum GlobalDAOBondDepository.PARAMETER",
          "name": "_parameter",
          "type": "uint8"
        },
        {
          "internalType": "uint256",
          "name": "_input",
          "type": "uint256"
        }
      ],
      "name": "setBondTerms",
      "outputs": [],
      "stateMutability": "nonpayable",
      "type": "function"
    },
    {
      "inputs": [
        {
          "internalType": "address",
          "name": "_staking",
          "type": "address"
        },
        {
          "internalType": "bool",
          "name": "_helper",
          "type": "bool"
        }
      ],
      "name": "setStaking",
      "outputs": [],
      "stateMutability": "nonpayable",
      "type": "function"
    },
    {
      "inputs": [],
      "name": "staking",
      "outputs": [
        {
          "internalType": "address",
          "name": "",
          "type": "address"
        }
      ],
      "stateMutability": "view",
      "type": "function"
    },
    {
      "inputs": [],
      "name": "stakingHelper",
      "outputs": [
        {
          "internalType": "address",
          "name": "",
          "type": "address"
        }
      ],
      "stateMutability": "view",
      "type": "function"
    },
    {
      "inputs": [],
      "name": "standardizedDebtRatio",
      "outputs": [
        {
          "internalType": "uint256",
          "name": "",
          "type": "uint256"
        }
      ],
      "stateMutability": "view",
      "type": "function"
    },
    {
      "inputs": [],
      "name": "terms",
      "outputs": [
        {
          "internalType": "uint256",
          "name": "controlVariable",
          "type": "uint256"
        },
        {
          "internalType": "uint256",
          "name": "vestingTerm",
          "type": "uint256"
        },
        {
          "internalType": "uint256",
          "name": "minimumPrice",
          "type": "uint256"
        },
        {
          "internalType": "uint256",
          "name": "maxPayout",
          "type": "uint256"
        },
        {
          "internalType": "uint256",
          "name": "fee",
          "type": "uint256"
        },
        {
          "internalType": "uint256",
          "name": "maxDebt",
          "type": "uint256"
        }
      ],
      "stateMutability": "view",
      "type": "function"
    },
    {
      "inputs": [],
      "name": "totalDebt",
      "outputs": [
        {
          "internalType": "uint256",
          "name": "",
          "type": "uint256"
        }
      ],
      "stateMutability": "view",
      "type": "function"
    },
    {
      "inputs": [],
      "name": "treasury",
      "outputs": [
        {
          "internalType": "address",
          "name": "",
          "type": "address"
        }
      ],
      "stateMutability": "view",
      "type": "function"
    },
    {
      "inputs": [],
      "name": "useHelper",
      "outputs": [
        {
          "internalType": "bool",
          "name": "",
          "type": "bool"
        }
      ],
      "stateMutability": "view",
      "type": "function"
    }
  ],
  "bytecode": "0x6101406040523480156200001257600080fd5b5060405162002c3e38038062002c3e833981810160405260a08110156200003857600080fd5b50805160208201516040808401516060850151608090950151600080546001600160a01b031916331780825593519596949592949391926001600160a01b0392909216917fea8258f2d9ddb679928cf34b78cf645b7feda9acc828e4dd82d014eaae270eba908290a36001600160a01b038516620000b557600080fd5b6001600160601b0319606086901b166080526001600160a01b038416620000db57600080fd5b6001600160601b0319606085901b1660a0526001600160a01b0383166200010157600080fd5b6001600160601b0319606084901b1660c0526001600160a01b0382166200012757600080fd5b6001600160601b0319606092831b811660e0529181901b909116610120526001600160a01b0316151560f81b6101005250505060805160601c60a05160601c60c05160601c60e05160601c6101005160f81c6101205160601c612a106200022e60003980610f7c52806117015280611924525080610f4e52806116d05280611aff52508061157652806117ca5280611871525080610de452806111e552806113e852806114ca52508061059b5280610fab52806110525280611214528061138f52806113b952806114995280611730528061182f525080610628528061155452806117f052806119725280611b745280611cf95280611dde5280611ef35250612a106000f3fe608060405234801561001057600080fd5b50600436106102115760003560e01c806377b8189511610125578063cea55f57116100ad578063d7ccfb0b1161007c578063d7ccfb0b14610571578063e0176de814610579578063e392a26214610581578063f5c2ab5b14610589578063fc7b9c181461059157610211565b8063cea55f57146104f8578063d4d863ce14610500578063d50256251461052e578063d79690601461056957610211565b8063904b3ece116100f4578063904b3ece1461046e57806398fabd3a14610476578063b4abccba1461047e578063c5332b7c146104a4578063cd1234b3146104ac57610211565b806377b818951461040f5780637927ebf814610417578063844b5c7c146104345780638dbdbe6d1461043c57610211565b80632f3f470a116101a8578063507930ec11610177578063507930ec146103905780635a96ac0a146103b657806361d027b3146103be57806371535008146103c6578063759076e51461040757610211565b80632f3f470a14610311578063451ee4a11461032d57806346f68ee9146103625780634cf088d91461038857610211565b8063089208d8116101e4578063089208d8146102825780631a3d00681461028c5780631e321a0f146102bd5780631feed31f146102e357610211565b8063016a42841461021657806301b88ee81461023a5780630505c8c91461027257806305461a9b1461027a575b600080fd5b61021e610599565b604080516001600160a01b039092168252519081900360200190f35b6102606004803603602081101561025057600080fd5b50356001600160a01b03166105bd565b60408051918252519081900360200190f35b61021e610616565b61021e610626565b61028a61064a565b005b61028a600480360360808110156102a257600080fd5b508035151590602081013590604081013590606001356106e1565b61028a600480360360408110156102d357600080fd5b5060ff81351690602001356107d9565b610260600480360360408110156102f957600080fd5b506001600160a01b038135169060200135151561098d565b610319610b82565b604080519115158252519081900360200190f35b610335610b92565b60408051951515865260208601949094528484019290925260608401526080830152519081900360a00190f35b61028a6004803603602081101561037857600080fd5b50356001600160a01b0316610baa565b61021e610c97565b610260600480360360208110156103a657600080fd5b50356001600160a01b0316610ca6565b61028a610d38565b61021e610de2565b61028a600480360360e08110156103dc57600080fd5b5080359060208101359060408101359060608101359060808101359060a08101359060c00135610e06565b610260610efa565b61021e610f15565b6102606004803603602081101561042d57600080fd5b5035610f24565b610260610f4a565b6102606004803603606081101561045257600080fd5b50803590602081013590604001356001600160a01b03166110e3565b6102606116cc565b61021e6117c8565b6103196004803603602081101561049457600080fd5b50356001600160a01b03166117ec565b61021e611922565b6104d2600480360360208110156104c257600080fd5b50356001600160a01b0316611946565b604080519485526020850193909352838301919091526060830152519081900360800190f35b61026061196d565b61028a6004803603604081101561051657600080fd5b506001600160a01b0381351690602001351515611a25565b610536611ae8565b604080519687526020870195909552858501939093526060850191909152608084015260a0830152519081900360c00190f35b610319611afd565b610260611b21565b610260611b60565b610260611bfd565b610260611c42565b610260611c48565b7f000000000000000000000000000000000000000000000000000000000000000081565b6000806105c983610ca6565b6001600160a01b0384166000908152600f602052604090205490915061271082106105f65780925061060f565b61060c6127106106068385611c4e565b90611cae565b92505b5050919050565b6000546001600160a01b03165b90565b7f000000000000000000000000000000000000000000000000000000000000000081565b6000546001600160a01b03163314610697576040805162461bcd60e51b8152602060048201819052602482015260008051602061294a833981519152604482015290519081900360640190fd5b600080546040516001600160a01b03909116907fea8258f2d9ddb679928cf34b78cf645b7feda9acc828e4dd82d014eaae270eba908390a3600080546001600160a01b0319169055565b6000546001600160a01b0316331461072e576040805162461bcd60e51b8152602060048201819052602482015260008051602061294a833981519152604482015290519081900360640190fd5b600454610744906103e890610606906019611c4e565b83111561078e576040805162461bcd60e51b8152602060048201526013602482015272496e6372656d656e7420746f6f206c6172676560681b604482015290519081900360640190fd5b6040805160a0810182529415158086526020860185905290850183905260608501829052436080909501859052600a805460ff19169091179055600b92909255600c55600d55600e55565b6000546001600160a01b03163314610826576040805162461bcd60e51b8152602060048201819052602482015260008051602061294a833981519152604482015290519081900360640190fd5b600082600381111561083457fe5b14156108855761271081101561087b5760405162461bcd60e51b815260040180806020018281038252602481526020018061298d6024913960400191505060405180910390fd5b6005819055610989565b600182600381111561089357fe5b14156108fa576103e88111156108f0576040805162461bcd60e51b815260206004820181905260248201527f5061796f75742063616e6e6f742062652061626f766520312070657263656e74604482015290519081900360640190fd5b6007819055610989565b600282600381111561090857fe5b141561096f57612710811115610965576040805162461bcd60e51b815260206004820152601c60248201527f44414f206665652063616e6e6f7420657863656564207061796f757400000000604482015290519081900360640190fd5b6008819055610989565b600382600381111561097d57fe5b14156109895760098190555b5050565b6000610997612880565b506001600160a01b0383166000908152600f60209081526040808320815160808101835281548152600182015493810193909352600281015491830191909152600301546060820152906109ea85610ca6565b90506127108110610a7a576001600160a01b0385166000818152600f602090815260408083208381556001810184905560028101849055600301839055855181519081529182019290925281517f51c99f515c87b0d95ba97f616edd182e8f161c4932eac17c6fefe9dab58b77b1929181900390910190a2610a7185858460000151611cf0565b92505050610b7c565b8151600090610a9190612710906106069085611c4e565b90506040518060800160405280610ab5838660000151611ff490919063ffffffff16565b8152602001610adf610ad4866040015143611ff490919063ffffffff16565b602087015190611ff4565b8152436020808301919091526060808701516040938401526001600160a01b038a166000818152600f84528490208551808255868501516001830155868601516002830155959092015160039092019190915582518581529182019390935281517f51c99f515c87b0d95ba97f616edd182e8f161c4932eac17c6fefe9dab58b77b1929181900390910190a2610b76868683611cf0565b93505050505b92915050565b600354600160a01b900460ff1681565b600a54600b54600c54600d54600e5460ff9094169385565b6000546001600160a01b03163314610bf7576040805162461bcd60e51b8152602060048201819052602482015260008051602061294a833981519152604482015290519081900360640190fd5b6001600160a01b038116610c3c5760405162461bcd60e51b81526004018080602001828103825260268152602001806128bb6026913960400191505060405180910390fd5b600080546040516001600160a01b03808516939216917fea8258f2d9ddb679928cf34b78cf645b7feda9acc828e4dd82d014eaae270eba91a3600180546001600160a01b0319166001600160a01b0392909216919091179055565b6002546001600160a01b031681565b6000610cb0612880565b506001600160a01b0382166000908152600f602090815260408083208151608081018352815481526001820154938101939093526002810154918301829052600301546060830152909190610d06904390611ff4565b60208301519091508015610d2b57610d248161060684612710611c4e565b9350610d30565b600093505b505050919050565b6001546001600160a01b03163314610d815760405162461bcd60e51b81526004018080602001828103825260228152602001806128e16022913960400191505060405180910390fd5b600154600080546040516001600160a01b0393841693909116917faa151555690c956fc3ea32f106bb9f119b5237a061eaa8557cff3e51e3792c8d91a3600154600080546001600160a01b0319166001600160a01b03909216919091179055565b7f000000000000000000000000000000000000000000000000000000000000000081565b6000546001600160a01b03163314610e53576040805162461bcd60e51b8152602060048201819052602482015260008051602061294a833981519152604482015290519081900360640190fd5b60045415610ea8576040805162461bcd60e51b815260206004820181905260248201527f426f6e6473206d75737420626520696e697469616c697a65642066726f6d2030604482015290519081900360640190fd5b6040805160c08101825288815260208101889052908101869052606081018590526080810184905260a00182905260049690965560059490945560069290925560075560085560095560105543601155565b6000610f10610f07611bfd565b60105490611ff4565b905090565b6003546001600160a01b031681565b6000610b7c662386f26fc10000610606610f4585610f40611b21565b612036565b6121ad565b60007f0000000000000000000000000000000000000000000000000000000000000000156110485761104160646106067f00000000000000000000000000000000000000000000000000000000000000006001600160a01b03166332da80a37f00000000000000000000000000000000000000000000000000000000000000006040518263ffffffff1660e01b815260040180826001600160a01b0316815260200191505060206040518083038186803b15801561100757600080fd5b505afa15801561101b573d6000803e3d6000fd5b505050506040513d602081101561103157600080fd5b505161103b611b21565b90611c4e565b9050610623565b610f1060646106067f00000000000000000000000000000000000000000000000000000000000000006001600160a01b031663313ce5676040518163ffffffff1660e01b815260040160206040518083038186803b1580156110a957600080fd5b505afa1580156110bd573d6000803e3d6000fd5b505050506040513d60208110156110d357600080fd5b505160ff16600a0a61103b611b21565b60006001600160a01b038216611132576040805162461bcd60e51b815260206004820152600f60248201526e496e76616c6964206164647265737360881b604482015290519081900360640190fd5b61113a6121c5565b600954601054111561118a576040805162461bcd60e51b815260206004820152601460248201527313585e0818d85c1858da5d1e481c995858da195960621b604482015290519081900360640190fd5b6000611194610f4a565b905060006111a06121d9565b9050808510156111e15760405162461bcd60e51b815260040180806020018281038252602381526020018061296a6023913960400191505060405180910390fd5b60007f00000000000000000000000000000000000000000000000000000000000000006001600160a01b0316631eec5a9a7f0000000000000000000000000000000000000000000000000000000000000000896040518363ffffffff1660e01b815260040180836001600160a01b031681526020018281526020019250505060206040518083038186803b15801561127857600080fd5b505afa15801561128c573d6000803e3d6000fd5b505050506040513d60208110156112a257600080fd5b5051905060006112b182610f24565b9050629896808110156112fc576040805162461bcd60e51b815260206004820152600e60248201526d109bdb99081d1bdbc81cdb585b1b60921b604482015290519081900360640190fd5b611304611b60565b811115611349576040805162461bcd60e51b815260206004820152600e60248201526d426f6e6420746f6f206c6172676560901b604482015290519081900360640190fd5b6000611368612710610606600480015485611c4e90919063ffffffff16565b905060006113808261137a8686611ff4565b90611ff4565b90506113b76001600160a01b037f00000000000000000000000000000000000000000000000000000000000000001633308d61221b565b7f00000000000000000000000000000000000000000000000000000000000000006001600160a01b031663095ea7b37f00000000000000000000000000000000000000000000000000000000000000008c6040518363ffffffff1660e01b815260040180836001600160a01b0316815260200182815260200192505050602060405180830381600087803b15801561144e57600080fd5b505af1158015611462573d6000803e3d6000fd5b505050506040513d602081101561147857600080fd5b50506040805163bc157ac160e01b8152600481018c90526001600160a01b037f0000000000000000000000000000000000000000000000000000000000000000811660248301526044820184905291517f00000000000000000000000000000000000000000000000000000000000000009092169163bc157ac1916064808201926020929091908290030181600087803b15801561151557600080fd5b505af1158015611529573d6000803e3d6000fd5b505050506040513d602081101561153f57600080fd5b5050811561159b5761159b6001600160a01b037f0000000000000000000000000000000000000000000000000000000000000000167f00000000000000000000000000000000000000000000000000000000000000008461227b565b6010546115a890856122d2565b601055604080516080810182526001600160a01b038a166000908152600f602052919091205481906115da90866122d2565b81526005805460208084019190915243604080850182905260609485018c90526001600160a01b038e166000908152600f8452819020865181559286015160018401558501516002830155939092015160039092019190915554879161163f916122d2565b604080518d8152905186917f1fec6dc81f140574bf43f6b1e420ae1dd47928b9d57db8cbd7b8611063b85ae5919081900360200190a461167d61196d565b6116856121d9565b61168d610f4a565b6040517f375b221f40939bfd8f49723a17cf7bc6d576ebf72efe2cc3e991826f5b3f390a90600090a46116be61232c565b509098975050505050505050565b60007f0000000000000000000000000000000000000000000000000000000000000000156117c057611041633b9aca006106067f00000000000000000000000000000000000000000000000000000000000000006001600160a01b03166332da80a37f00000000000000000000000000000000000000000000000000000000000000006040518263ffffffff1660e01b815260040180826001600160a01b0316815260200191505060206040518083038186803b15801561178c57600080fd5b505afa1580156117a0573d6000803e3d6000fd5b505050506040513d60208110156117b657600080fd5b505161103b61196d565b61104161196d565b7f000000000000000000000000000000000000000000000000000000000000000081565b60007f00000000000000000000000000000000000000000000000000000000000000006001600160a01b0316826001600160a01b0316141561182d57600080fd5b7f00000000000000000000000000000000000000000000000000000000000000006001600160a01b0316826001600160a01b0316141561186c57600080fd5b61191a7f0000000000000000000000000000000000000000000000000000000000000000836001600160a01b03166370a08231306040518263ffffffff1660e01b815260040180826001600160a01b0316815260200191505060206040518083038186803b1580156118dd57600080fd5b505afa1580156118f1573d6000803e3d6000fd5b505050506040513d602081101561190757600080fd5b50516001600160a01b038516919061227b565b506001919050565b7f000000000000000000000000000000000000000000000000000000000000000081565b600f6020526000908152604090208054600182015460028301546003909301549192909184565b6000807f00000000000000000000000000000000000000000000000000000000000000006001600160a01b03166318160ddd6040518163ffffffff1660e01b815260040160206040518083038186803b1580156119c957600080fd5b505afa1580156119dd573d6000803e3d6000fd5b505050506040513d60208110156119f357600080fd5b50519050611a1f670de0b6b3a7640000610606610f45611a19633b9aca0061103b610efa565b85612036565b91505090565b6000546001600160a01b03163314611a72576040805162461bcd60e51b8152602060048201819052602482015260008051602061294a833981519152604482015290519081900360640190fd5b6001600160a01b038216611a8557600080fd5b8015611aba5760038054600160a01b60ff60a01b19909116176001600160a01b0319166001600160a01b038416179055610989565b6003805460ff60a01b19169055600280546001600160a01b0384166001600160a01b03199091161790555050565b60045460055460065460075460085460095486565b7f000000000000000000000000000000000000000000000000000000000000000081565b6000611b4c62989680610606633b9aca00611b46611b3d61196d565b60045490611c4e565b906122d2565b600654909150811015610623575060065490565b6000610f10620186a06106066004600301547f00000000000000000000000000000000000000000000000000000000000000006001600160a01b03166318160ddd6040518163ffffffff1660e01b815260040160206040518083038186803b158015611bcb57600080fd5b505afa158015611bdf573d6000803e3d6000fd5b505050506040513d6020811015611bf557600080fd5b505190611c4e565b600080611c1560115443611ff490919063ffffffff16565b600554601054919250611c2c916106069084611c4e565b9150601054821115611c3e5760105491505b5090565b60115481565b60105481565b600082611c5d57506000610b7c565b82820282848281611c6a57fe5b0414611ca75760405162461bcd60e51b81526004018080602001828103825260218152602001806129296021913960400191505060405180910390fd5b9392505050565b6000611ca783836040518060400160405280601a81526020017f536166654d6174683a206469766973696f6e206279207a65726f00000000000081525061240c565b600082611da0577f00000000000000000000000000000000000000000000000000000000000000006001600160a01b031663a9059cbb85846040518363ffffffff1660e01b815260040180836001600160a01b0316815260200182815260200192505050602060405180830381600087803b158015611d6e57600080fd5b505af1158015611d82573d6000803e3d6000fd5b505050506040513d6020811015611d9857600080fd5b50611fed9050565b600354600160a01b900460ff1615611ec7576003546040805163095ea7b360e01b81526001600160a01b0392831660048201526024810185905290517f00000000000000000000000000000000000000000000000000000000000000009092169163095ea7b3916044808201926020929091908290030181600087803b158015611e2957600080fd5b505af1158015611e3d573d6000803e3d6000fd5b505050506040513d6020811015611e5357600080fd5b505060035460408051637acb775760e01b8152600481018590526001600160a01b03878116602483015291519190921691637acb775791604480830192600092919082900301818387803b158015611eaa57600080fd5b505af1158015611ebe573d6000803e3d6000fd5b50505050611fed565b6002546040805163095ea7b360e01b81526001600160a01b0392831660048201526024810185905290517f00000000000000000000000000000000000000000000000000000000000000009092169163095ea7b3916044808201926020929091908290030181600087803b158015611f3e57600080fd5b505af1158015611f52573d6000803e3d6000fd5b505050506040513d6020811015611f6857600080fd5b505060025460408051637acb775760e01b8152600481018590526001600160a01b03878116602483015291519190921691637acb77579160448083019260209291908290030181600087803b158015611fc057600080fd5b505af1158015611fd4573d6000803e3d6000fd5b505050506040513d6020811015611fea57600080fd5b50505b5092915050565b6000611ca783836040518060400160405280601e81526020017f536166654d6174683a207375627472616374696f6e206f766572666c6f7700008152506124ae565b61203e6128a8565b6000821161207d5760405162461bcd60e51b81526004018080602001828103825260268152602001806129036026913960400191505060405180910390fd5b826120975750604080516020810190915260008152610b7c565b71ffffffffffffffffffffffffffffffffffff831161213e57600082607085901b816120bf57fe5b0490506001600160e01b0381111561211e576040805162461bcd60e51b815260206004820152601e60248201527f4669786564506f696e743a3a6672616374696f6e3a206f766572666c6f770000604482015290519081900360640190fd5b6040518060200160405280826001600160e01b0316815250915050610b7c565b600061214f84600160701b85612508565b90506001600160e01b0381111561211e576040805162461bcd60e51b815260206004820152601e60248201527f4669786564506f696e743a3a6672616374696f6e3a206f766572666c6f770000604482015290519081900360640190fd5b516612725dd1d243ab6001600160e01b039091160490565b6121d0610f07611bfd565b60105543601155565b60006121f562989680610606633b9aca00611b46611b3d61196d565b60065490915081101561220b5750600654610623565b6006541561062357600060065590565b604080516001600160a01b0380861660248301528416604482015260648082018490528251808303909101815260849091019091526020810180516001600160e01b03166323b872dd60e01b1790526122759085906125a8565b50505050565b604080516001600160a01b038416602482015260448082018490528251808303909101815260649091019091526020810180516001600160e01b031663a9059cbb60e01b1790526122cd9084906125a8565b505050565b600082820183811015611ca7576040805162461bcd60e51b815260206004820152601b60248201527f536166654d6174683a206164646974696f6e206f766572666c6f770000000000604482015290519081900360640190fd5b600d54600e5460009161233f91906122d2565b600b54909150158015906123535750804310155b1561240957600454600a5460ff161561238d57600b54600454612375916122d2565b6004819055600c5411612388576000600b555b6123af565b600b5460045461239c91611ff4565b6004819055600c54106123af576000600b555b43600e55600454600b54600a546040805185815260208101949094528381019290925260ff1615156060830152517fb923e581a0f83128e9e1d8297aa52b18d6744310476e0b54509c054cd7a93b2a9181900360800190a1505b50565b600081836124985760405162461bcd60e51b81526004018080602001828103825283818151815260200191508051906020019080838360005b8381101561245d578181015183820152602001612445565b50505050905090810190601f16801561248a5780820380516001836020036101000a031916815260200191505b509250505060405180910390fd5b5060008385816124a457fe5b0495945050505050565b600081848411156125005760405162461bcd60e51b815260206004820181815283516024840152835190928392604490910191908501908083836000831561245d578181015183820152602001612445565b505050900390565b60008060006125178686612659565b915091506000848061252557fe5b868809905082811115612539576001820391505b8083039250848210612592576040805162461bcd60e51b815260206004820152601a60248201527f46756c6c4d6174683a3a6d756c4469763a206f766572666c6f77000000000000604482015290519081900360640190fd5b61259d838387612686565b979650505050505050565b60606125fd826040518060400160405280602081526020017f5361666545524332303a206c6f772d6c6576656c2063616c6c206661696c6564815250856001600160a01b03166126f69092919063ffffffff16565b8051909150156122cd5780806020019051602081101561261c57600080fd5b50516122cd5760405162461bcd60e51b815260040180806020018281038252602a8152602001806129b1602a913960400191505060405180910390fd5b600080806000198486099050838502925082810391508281101561267e576001820391505b509250929050565b6000818103821680838161269657fe5b0492508085816126a257fe5b0494508081600003816126b157fe5b60028581038087028203028087028203028087028203028087028203028087028203028087028203029586029003909402930460010193909302939093010292915050565b6060612705848460008561270d565b949350505050565b60606127188561287a565b612769576040805162461bcd60e51b815260206004820152601d60248201527f416464726573733a2063616c6c20746f206e6f6e2d636f6e7472616374000000604482015290519081900360640190fd5b60006060866001600160a01b031685876040518082805190602001908083835b602083106127a85780518252601f199092019160209182019101612789565b6001836020036101000a03801982511681845116808217855250505050505090500191505060006040518083038185875af1925050503d806000811461280a576040519150601f19603f3d011682016040523d82523d6000602084013e61280f565b606091505b509150915081156128235791506127059050565b8051156128335780518082602001fd5b60405162461bcd60e51b815260206004820181815286516024840152865187939192839260440191908501908083836000831561245d578181015183820152602001612445565b3b151590565b6040518060800160405280600081526020016000815260200160008152602001600081525090565b6040805160208101909152600081529056fe4f776e61626c653a206e6577206f776e657220697320746865207a65726f20616464726573734f776e61626c653a206d757374206265206e6577206f776e657220746f2070756c6c4669786564506f696e743a3a6672616374696f6e3a206469766973696f6e206279207a65726f536166654d6174683a206d756c7469706c69636174696f6e206f766572666c6f774f776e61626c653a2063616c6c6572206973206e6f7420746865206f776e6572536c697070616765206c696d69743a206d6f7265207468616e206d617820707269636556657374696e67206d757374206265206c6f6e676572207468616e20333620686f7572735361666545524332303a204552433230206f7065726174696f6e20646964206e6f742073756363656564a2646970667358221220d5ae8095b2839468d062ce43840a5805d6625b727105d66fd5e236d442662caf64736f6c63430007050033",
  "linkReferences": {},
  "deployedLinkReferences": {}
}