{
  "_format": "hh-sol-artifact-1",
  "contractName": "Presale",
  "sourceName": "contracts/Tokens/Presale.sol",
  "abi": [
    {
      "inputs": [
        {
          "internalType": "address",
          "name": "_token",
          "type": "address"
        },
        {
          "internalType": "uint256",
          "name": "_whitelistBegins",
          "type": "uint256"
        },
        {
          "internalType": "uint256",
          "name": "_publicBegins",
          "type": "uint256"
        }
      ],
      "stateMutability": "nonpayable",
      "type": "constructor"
    },
    {
      "anonymous": false,
      "inputs": [
        {
          "indexed": false,
          "internalType": "address",
          "name": "tokenRecovered",
          "type": "address"
        },
        {
          "indexed": false,
          "internalType": "uint256",
          "name": "amount",
          "type": "uint256"
        }
      ],
      "name": "AdminTokenRecovery",
      "type": "event"
    },
    {
      "anonymous": false,
      "inputs": [
        {
          "indexed": true,
          "internalType": "address",
          "name": "previousOwner",
          "type": "address"
        },
        {
          "indexed": true,
          "internalType": "address",
          "name": "newOwner",
          "type": "address"
        }
      ],
      "name": "OwnershipTransferred",
      "type": "event"
    },
    {
      "anonymous": false,
      "inputs": [
        {
          "indexed": false,
          "internalType": "address",
          "name": "buyer",
          "type": "address"
        },
        {
          "indexed": false,
          "internalType": "uint256",
          "name": "amountBNB",
          "type": "uint256"
        },
        {
          "indexed": false,
          "internalType": "uint256",
          "name": "globalAmount",
          "type": "uint256"
        },
        {
          "indexed": false,
          "internalType": "uint256",
          "name": "bnb_Acc",
          "type": "uint256"
        }
      ],
      "name": "TokensBought",
      "type": "event"
    },
    {
      "anonymous": false,
      "inputs": [
        {
          "indexed": false,
          "internalType": "address",
          "name": "addr",
          "type": "address"
        }
      ],
      "name": "WhitelistedAddressAdded",
      "type": "event"
    },
    {
      "anonymous": false,
      "inputs": [
        {
          "indexed": false,
          "internalType": "address",
          "name": "addr",
          "type": "address"
        }
      ],
      "name": "WhitelistedAddressRemoved",
      "type": "event"
    },
    {
      "inputs": [
        {
          "internalType": "address",
          "name": "addr",
          "type": "address"
        }
      ],
      "name": "addAddressToWhitelist",
      "outputs": [
        {
          "internalType": "bool",
          "name": "success",
          "type": "bool"
        }
      ],
      "stateMutability": "nonpayable",
      "type": "function"
    },
    {
      "inputs": [
        {
          "internalType": "address[]",
          "name": "addrs",
          "type": "address[]"
        }
      ],
      "name": "addAddressesToWhitelist",
      "outputs": [
        {
          "internalType": "bool",
          "name": "success",
          "type": "bool"
        }
      ],
      "stateMutability": "nonpayable",
      "type": "function"
    },
    {
      "inputs": [],
      "name": "bnbacc",
      "outputs": [
        {
          "internalType": "uint256",
          "name": "",
          "type": "uint256"
        }
      ],
      "stateMutability": "view",
      "type": "function"
    },
    {
      "inputs": [
        {
          "internalType": "uint256",
          "name": "_publicBegins",
          "type": "uint256"
        }
      ],
      "name": "changePublicBegins",
      "outputs": [],
      "stateMutability": "nonpayable",
      "type": "function"
    },
    {
      "inputs": [
        {
          "internalType": "uint256",
          "name": "_whitelistBegins",
          "type": "uint256"
        }
      ],
      "name": "changeWhitelistBegins",
      "outputs": [],
      "stateMutability": "nonpayable",
      "type": "function"
    },
    {
      "inputs": [
        {
          "internalType": "uint256",
          "name": "position",
          "type": "uint256"
        }
      ],
      "name": "getBuyer",
      "outputs": [
        {
          "internalType": "address",
          "name": "",
          "type": "address"
        }
      ],
      "stateMutability": "view",
      "type": "function"
    },
    {
      "inputs": [],
      "name": "getBuyers",
      "outputs": [
        {
          "internalType": "address[]",
          "name": "",
          "type": "address[]"
        }
      ],
      "stateMutability": "view",
      "type": "function"
    },
    {
      "inputs": [],
      "name": "getQuantities",
      "outputs": [
        {
          "internalType": "uint256[]",
          "name": "",
          "type": "uint256[]"
        }
      ],
      "stateMutability": "view",
      "type": "function"
    },
    {
      "inputs": [
        {
          "internalType": "address",
          "name": "buyer",
          "type": "address"
        }
      ],
      "name": "getQuantityBought",
      "outputs": [
        {
          "internalType": "uint256",
          "name": "",
          "type": "uint256"
        }
      ],
      "stateMutability": "view",
      "type": "function"
    },
    {
      "inputs": [],
      "name": "getStatus",
      "outputs": [
        {
          "internalType": "uint256",
          "name": "whitelistStep",
          "type": "uint256"
        }
      ],
      "stateMutability": "view",
      "type": "function"
    },
    {
      "inputs": [
        {
          "internalType": "address",
          "name": "addr",
          "type": "address"
        }
      ],
      "name": "isAddressWhitelisted",
      "outputs": [
        {
          "internalType": "bool",
          "name": "success",
          "type": "bool"
        }
      ],
      "stateMutability": "view",
      "type": "function"
    },
    {
      "inputs": [],
      "name": "nativeToken",
      "outputs": [
        {
          "internalType": "contract NativeToken",
          "name": "",
          "type": "address"
        }
      ],
      "stateMutability": "view",
      "type": "function"
    },
    {
      "inputs": [],
      "name": "owner",
      "outputs": [
        {
          "internalType": "address",
          "name": "",
          "type": "address"
        }
      ],
      "stateMutability": "view",
      "type": "function"
    },
    {
      "inputs": [],
      "name": "publicBegins",
      "outputs": [
        {
          "internalType": "uint256",
          "name": "",
          "type": "uint256"
        }
      ],
      "stateMutability": "view",
      "type": "function"
    },
    {
      "inputs": [],
      "name": "publicEnds",
      "outputs": [
        {
          "internalType": "uint256",
          "name": "",
          "type": "uint256"
        }
      ],
      "stateMutability": "view",
      "type": "function"
    },
    {
      "inputs": [
        {
          "internalType": "address",
          "name": "_tokenAddress",
          "type": "address"
        },
        {
          "internalType": "uint256",
          "name": "_tokenAmount",
          "type": "uint256"
        }
      ],
      "name": "recoverWrongTokens",
      "outputs": [],
      "stateMutability": "nonpayable",
      "type": "function"
    },
    {
      "inputs": [
        {
          "internalType": "address",
          "name": "addr",
          "type": "address"
        }
      ],
      "name": "removeAddressFromWhitelist",
      "outputs": [
        {
          "internalType": "bool",
          "name": "success",
          "type": "bool"
        }
      ],
      "stateMutability": "nonpayable",
      "type": "function"
    },
    {
      "inputs": [
        {
          "internalType": "address[]",
          "name": "addrs",
          "type": "address[]"
        }
      ],
      "name": "removeAddressesFromWhitelist",
      "outputs": [
        {
          "internalType": "bool",
          "name": "success",
          "type": "bool"
        }
      ],
      "stateMutability": "nonpayable",
      "type": "function"
    },
    {
      "inputs": [],
      "name": "renounceOwnership",
      "outputs": [],
      "stateMutability": "nonpayable",
      "type": "function"
    },
    {
      "inputs": [
        {
          "internalType": "uint256",
          "name": "amount",
          "type": "uint256"
        }
      ],
      "name": "transferBNBsAcc",
      "outputs": [],
      "stateMutability": "nonpayable",
      "type": "function"
    },
    {
      "inputs": [
        {
          "internalType": "address",
          "name": "newOwner",
          "type": "address"
        }
      ],
      "name": "transferOwnership",
      "outputs": [],
      "stateMutability": "nonpayable",
      "type": "function"
    },
    {
      "inputs": [
        {
          "internalType": "address",
          "name": "_masterchef",
          "type": "address"
        }
      ],
      "name": "transferTokenOwnership",
      "outputs": [],
      "stateMutability": "nonpayable",
      "type": "function"
    },
    {
      "inputs": [
        {
          "internalType": "address",
          "name": "",
          "type": "address"
        }
      ],
      "name": "whitelist",
      "outputs": [
        {
          "internalType": "bool",
          "name": "",
          "type": "bool"
        }
      ],
      "stateMutability": "view",
      "type": "function"
    },
    {
      "inputs": [],
      "name": "whitelistBegins",
      "outputs": [
        {
          "internalType": "uint256",
          "name": "",
          "type": "uint256"
        }
      ],
      "stateMutability": "view",
      "type": "function"
    },
    {
      "inputs": [],
      "name": "whitelistEnds",
      "outputs": [
        {
          "internalType": "uint256",
          "name": "",
          "type": "uint256"
        }
      ],
      "stateMutability": "view",
      "type": "function"
    },
    {
      "stateMutability": "payable",
      "type": "receive"
    }
  ],
  "bytecode": "0x608060405269018e2c59f885ac24000060075560006008553480156200002457600080fd5b5060405162001bf138038062001bf1833981810160405260608110156200004a57600080fd5b50805160208201516040909201519091906000620000676200011c565b600080546001600160a01b0319166001600160a01b0383169081178255604051929350917f8be0079c531659141344cd1fd0a4f28419497f9722a3daafe3b4186f6b6457e0908290a350600280546001600160a01b0319166001600160a01b0385161790556003829055620000ec826206978062000120602090811b6200144a17901c565b60045560058190556200010f816202a30062000120602090811b6200144a17901c565b6006555062000182915050565b3390565b6000828201838110156200017b576040805162461bcd60e51b815260206004820152601b60248201527f536166654d6174683a206164646974696f6e206f766572666c6f770000000000604482015290519081900360640190fd5b9392505050565b611a5f80620001926000396000f3fe60806040526004361061016a5760003560e01c80638da5cb5b116100d1578063d03b0f221161008a578063e4b799c911610064578063e4b799c9146105b2578063f2fde38b146105c7578063f64bfaba146105fa578063f835886d1461060f5761017b565b8063d03b0f22146104f6578063e1758bd814610520578063e2ec6ec3146105355761017b565b80638da5cb5b146104455780639b19251a1461045a5780639bb31c341461048d578063b13ee3ad146104a2578063be7811a1146104cc578063c6481cda146104e15761017b565b80635bf608b8116101235780635bf608b81461030a578063715018a61461035057806373bfceef14610365578063792b1ed91461037a5780637b9417c8146103df5780637be92144146104125761017b565b806313f44d101461018057806321e6b53d146101c757806324953eaa146101fa578063286dd3f5146102775780633f138d4b146102aa5780634e69d560146102e35761017b565b3661017b576101793433610639565b005b600080fd5b34801561018c57600080fd5b506101b3600480360360208110156101a357600080fd5b50356001600160a01b0316610aee565b604080519115158252519081900360200190f35b3480156101d357600080fd5b50610179600480360360208110156101ea57600080fd5b50356001600160a01b0316610b67565b34801561020657600080fd5b506101b36004803603602081101561021d57600080fd5b81019060208101813564010000000081111561023857600080fd5b82018360208201111561024a57600080fd5b8035906020019184602083028401116401000000008311171561026c57600080fd5b509092509050610c28565b34801561028357600080fd5b506101b36004803603602081101561029a57600080fd5b50356001600160a01b0316610cca565b3480156102b657600080fd5b50610179600480360360408110156102cd57600080fd5b506001600160a01b038135169060200135610da3565b3480156102ef57600080fd5b506102f8610e57565b60408051918252519081900360200190f35b34801561031657600080fd5b506103346004803603602081101561032d57600080fd5b5035610ea8565b604080516001600160a01b039092168252519081900360200190f35b34801561035c57600080fd5b50610179610ed2565b34801561037157600080fd5b506102f8610f74565b34801561038657600080fd5b5061038f610f7a565b60408051602080825283518183015283519192839290830191858101910280838360005b838110156103cb5781810151838201526020016103b3565b505050509050019250505060405180910390f35b3480156103eb57600080fd5b506101b36004803603602081101561040257600080fd5b50356001600160a01b031661102f565b34801561041e57600080fd5b506102f86004803603602081101561043557600080fd5b50356001600160a01b031661110a565b34801561045157600080fd5b50610334611125565b34801561046657600080fd5b506101b36004803603602081101561047d57600080fd5b50356001600160a01b0316611134565b34801561049957600080fd5b506102f8611149565b3480156104ae57600080fd5b50610179600480360360208110156104c557600080fd5b503561114f565b3480156104d857600080fd5b506102f86111bf565b3480156104ed57600080fd5b506102f86111c5565b34801561050257600080fd5b506101796004803603602081101561051957600080fd5b50356111cb565b34801561052c57600080fd5b50610334611264565b34801561054157600080fd5b506101b36004803603602081101561055857600080fd5b81019060208101813564010000000081111561057357600080fd5b82018360208201111561058557600080fd5b803590602001918460208302840111640100000000831117156105a757600080fd5b509092509050611273565b3480156105be57600080fd5b506102f861130e565b3480156105d357600080fd5b50610179600480360360208110156105ea57600080fd5b50356001600160a01b0316611314565b34801561060657600080fd5b5061038f611378565b34801561061b57600080fd5b506101796004803603602081101561063257600080fd5b50356113da565b333214801561064e575061064c336114ad565b155b6106895760405162461bcd60e51b815260040180806020018281038252602681526020018061197a6026913960400191505060405180910390fd5b610691610e57565b1580156106b657506001600160a01b03811660009081526001602052604090205460ff165b80156106c55750600754600854105b806106e557506106d3610e57565b60011480156106e55750600754600854105b8061071057506106f3610e57565b60011480156107105750600554429061070e90611c2061144a565b115b61074b5760405162461bcd60e51b8152600401808060200182810382526023815260200180611a076023913960400191505060405180910390fd5b6000610755610e57565b15801561077a57506001600160a01b03821660009081526001602052604090205460ff165b80156107895750600754600854105b156109135761079a8361125c6114b3565b60025460408051630bedd3a760e01b81526001600160a01b038681166004830152602482018590529151939450911691630bedd3a79160448082019260009290919082900301818387803b1580156107f157600080fd5b505af1158015610805573d6000803e3d6000fd5b5050600854610817925090508461144a565b6008556001600160a01b03821660009081526009602052604090205461088357600a80546001810182556000919091527fc65a7bb8d6351c1cf70c95a316cc6a92839c986682d98bc35f958f4883f9d2a80180546001600160a01b0319166001600160a01b0384161790555b6001600160a01b0382166000908152600960205260409020546108a6908461144a565b6001600160a01b038316600081815260096020908152604091829020939093556008548151928352928201869052818101849052606082019290925290517f22f6af6e13430e3e7b6418d01e6a48c1fbce5e8cb1698901fc95134b4b1c58ad9181900360800190a1610ae9565b61091b610e57565b600114801561092d5750600754600854105b1561093e5761079a836110fe6114b3565b610946610e57565b60011480156109635750600554429061096190611c2061144a565b115b15610ae957610974836110046114b3565b60025460408051630bedd3a760e01b81526001600160a01b038681166004830152602482018590529151939450911691630bedd3a79160448082019260009290919082900301818387803b1580156109cb57600080fd5b505af11580156109df573d6000803e3d6000fd5b50506008546109f1925090508461144a565b6008556001600160a01b038216600090815260096020526040902054610a5d57600a80546001810182556000919091527fc65a7bb8d6351c1cf70c95a316cc6a92839c986682d98bc35f958f4883f9d2a80180546001600160a01b0319166001600160a01b0384161790555b6001600160a01b038216600090815260096020526040902054610a80908461144a565b6001600160a01b038316600081815260096020908152604091829020939093556008548151928352928201869052818101849052606082019290925290517f22f6af6e13430e3e7b6418d01e6a48c1fbce5e8cb1698901fc95134b4b1c58ad9181900360800190a15b505050565b6000610af861150c565b6000546001600160a01b03908116911614610b48576040805162461bcd60e51b815260206004820181905260248201526000805160206119e7833981519152604482015290519081900360640190fd5b506001600160a01b031660009081526001602052604090205460ff1690565b610b6f61150c565b6000546001600160a01b03908116911614610bbf576040805162461bcd60e51b815260206004820181905260248201526000805160206119e7833981519152604482015290519081900360640190fd5b6002546040805163f2fde38b60e01b81526001600160a01b0384811660048301529151919092169163f2fde38b91602480830192600092919082900301818387803b158015610c0d57600080fd5b505af1158015610c21573d6000803e3d6000fd5b5050505050565b6000610c3261150c565b6000546001600160a01b03908116911614610c82576040805162461bcd60e51b815260206004820181905260248201526000805160206119e7833981519152604482015290519081900360640190fd5b60005b82811015610cc357610cb1848483818110610c9c57fe5b905060200201356001600160a01b0316610cca565b15610cbb57600191505b600101610c85565b5092915050565b6000610cd461150c565b6000546001600160a01b03908116911614610d24576040805162461bcd60e51b815260206004820181905260248201526000805160206119e7833981519152604482015290519081900360640190fd5b6001600160a01b03821660009081526001602052604090205460ff1615610d9e576001600160a01b038216600081815260016020908152604091829020805460ff19169055815192835290517ff1abf01a1043b7c244d128e8595cf0c1d10743b022b03a02dffd8ca3bf729f5a9281900390910190a15060015b919050565b610dab61150c565b6000546001600160a01b03908116911614610dfb576040805162461bcd60e51b815260206004820181905260248201526000805160206119e7833981519152604482015290519081900360640190fd5b610e0f6001600160a01b0383163383611510565b604080516001600160a01b03841681526020810183905281517f74545154aac348a3eac92596bd1971957ca94795f4e954ec5f613b55fab78129929181900390910190a15050565b6000600354421015610e6b57506002610ea5565b600454421015610e7d57506000610ea5565b600554421015610e8f57506002610ea5565b600654421015610ea157506001610ea5565b5060025b90565b6000600a8281548110610eb757fe5b6000918252602090912001546001600160a01b031692915050565b610eda61150c565b6000546001600160a01b03908116911614610f2a576040805162461bcd60e51b815260206004820181905260248201526000805160206119e7833981519152604482015290519081900360640190fd5b600080546040516001600160a01b03909116907f8be0079c531659141344cd1fd0a4f28419497f9722a3daafe3b4186f6b6457e0908390a3600080546001600160a01b0319169055565b60065481565b600a54606090819067ffffffffffffffff81118015610f9857600080fd5b50604051908082528060200260200182016040528015610fc2578160200160208202803683370190505b50905060005b600a548110156110295760096000600a8381548110610fe357fe5b60009182526020808320909101546001600160a01b03168352820192909252604001902054825183908390811061101657fe5b6020908102919091010152600101610fc8565b50905090565b600061103961150c565b6000546001600160a01b03908116911614611089576040805162461bcd60e51b815260206004820181905260248201526000805160206119e7833981519152604482015290519081900360640190fd5b6001600160a01b03821660009081526001602052604090205460ff16610d9e576001600160a01b038216600081815260016020818152604092839020805460ff1916909217909155815192835290517fd1bba68c128cc3f427e5831b3c6f99f480b6efa6b9e80c757768f6124158cc3f9281900390910190a1506001919050565b6001600160a01b031660009081526009602052604090205490565b6000546001600160a01b031690565b60016020526000908152604090205460ff1681565b60045481565b61115761150c565b6000546001600160a01b039081169116146111a7576040805162461bcd60e51b815260206004820181905260248201526000805160206119e7833981519152604482015290519081900360640190fd5b60038190556111b9816206978061144a565b60045550565b60055481565b60035481565b6111d361150c565b6000546001600160a01b03908116911614611223576040805162461bcd60e51b815260206004820181905260248201526000805160206119e7833981519152604482015290519081900360640190fd5b604051339082156108fc029083906000818181858888f19350505050158015611250573d6000803e3d6000fd5b5060085461125e9082611562565b60085550565b6002546001600160a01b031681565b600061127d61150c565b6000546001600160a01b039081169116146112cd576040805162461bcd60e51b815260206004820181905260248201526000805160206119e7833981519152604482015290519081900360640190fd5b60005b82811015610cc3576112fc8484838181106112e757fe5b905060200201356001600160a01b031661102f565b1561130657600191505b6001016112d0565b60085481565b61131c61150c565b6000546001600160a01b0390811691161461136c576040805162461bcd60e51b815260206004820181905260248201526000805160206119e7833981519152604482015290519081900360640190fd5b611375816115bf565b50565b6060600a8054806020026020016040519081016040528092919081815260200182805480156113d057602002820191906000526020600020905b81546001600160a01b031681526001909101906020018083116113b2575b5050505050905090565b6113e261150c565b6000546001600160a01b03908116911614611432576040805162461bcd60e51b815260206004820181905260248201526000805160206119e7833981519152604482015290519081900360640190fd5b6005819055611444816202a30061144a565b60065550565b6000828201838110156114a4576040805162461bcd60e51b815260206004820152601b60248201527f536166654d6174683a206164646974696f6e206f766572666c6f770000000000604482015290519081900360640190fd5b90505b92915050565b3b151590565b6000826114c2575060006114a7565b828202828482816114cf57fe5b04146114a45760405162461bcd60e51b81526004018080602001828103825260218152602001806119c66021913960400191505060405180910390fd5b3390565b604080516001600160a01b038416602482015260448082018490528251808303909101815260649091019091526020810180516001600160e01b031663a9059cbb60e01b179052610ae990849061165f565b6000828211156115b9576040805162461bcd60e51b815260206004820152601e60248201527f536166654d6174683a207375627472616374696f6e206f766572666c6f770000604482015290519081900360640190fd5b50900390565b6001600160a01b0381166116045760405162461bcd60e51b81526004018080602001828103825260268152602001806119546026913960400191505060405180910390fd5b600080546040516001600160a01b03808516939216917f8be0079c531659141344cd1fd0a4f28419497f9722a3daafe3b4186f6b6457e091a3600080546001600160a01b0319166001600160a01b0392909216919091179055565b60606116b4826040518060400160405280602081526020017f5361666542455032303a206c6f772d6c6576656c2063616c6c206661696c6564815250856001600160a01b03166117109092919063ffffffff16565b805190915015610ae9578080602001905160208110156116d357600080fd5b5051610ae95760405162461bcd60e51b815260040180806020018281038252602a81526020018061192a602a913960400191505060405180910390fd5b606061171f8484600085611729565b90505b9392505050565b60608247101561176a5760405162461bcd60e51b81526004018080602001828103825260268152602001806119a06026913960400191505060405180910390fd5b611773856114ad565b6117c4576040805162461bcd60e51b815260206004820152601d60248201527f416464726573733a2063616c6c20746f206e6f6e2d636f6e7472616374000000604482015290519081900360640190fd5b60006060866001600160a01b031685876040518082805190602001908083835b602083106118035780518252601f1990920191602091820191016117e4565b6001836020036101000a03801982511681845116808217855250505050505090500191505060006040518083038185875af1925050503d8060008114611865576040519150601f19603f3d011682016040523d82523d6000602084013e61186a565b606091505b509150915061187a828286611885565b979650505050505050565b60608315611894575081611722565b8251156118a45782518084602001fd5b8160405162461bcd60e51b81526004018080602001828103825283818151815260200191508051906020019080838360005b838110156118ee5781810151838201526020016118d6565b50505050905090810190601f16801561191b5780820380516001836020036101000a031916815260200191505b509250505060405180910390fdfe5361666542455032303a204245503230206f7065726174696f6e20646964206e6f7420737563636565644f776e61626c653a206e6577206f776e657220697320746865207a65726f2061646472657373596f7520617265206e6f7420747275737465643a20796f7520617265206e6f742068756d616e416464726573733a20696e73756666696369656e742062616c616e636520666f722063616c6c536166654d6174683a206d756c7469706c69636174696f6e206f766572666c6f774f776e61626c653a2063616c6c6572206973206e6f7420746865206f776e65725b4552524f523a20594f5520415245204e4f5420414c4c4f57454420544f204255595da264697066735822122099dbddf9fe500935dab03dc8072e76acd45e593b79932d595739056d0ca529cb64736f6c634300060c0033",
  "linkReferences": {},
  "deployedLinkReferences": {}
}