{
  "_format": "hh-sol-artifact-1",
  "contractName": "BEP20",
  "sourceName": "contracts/Tokens/BEP20.sol",
  "abi": [
    {
      "inputs": [
        {
          "internalType": "string",
          "name": "name",
          "type": "string"
        },
        {
          "internalType": "string",
          "name": "symbol",
          "type": "string"
        }
      ],
      "stateMutability": "nonpayable",
      "type": "constructor"
    },
    {
      "anonymous": false,
      "inputs": [
        {
          "indexed": true,
          "internalType": "address",
          "name": "owner",
          "type": "address"
        },
        {
          "indexed": true,
          "internalType": "address",
          "name": "spender",
          "type": "address"
        },
        {
          "indexed": false,
          "internalType": "uint256",
          "name": "value",
          "type": "uint256"
        }
      ],
      "name": "Approval",
      "type": "event"
    },
    {
      "anonymous": false,
      "inputs": [
        {
          "indexed": true,
          "internalType": "address",
          "name": "previousDevPower",
          "type": "address"
        },
        {
          "indexed": true,
          "internalType": "address",
          "name": "newDevPower",
          "type": "address"
        }
      ],
      "name": "DevPowerTransferred",
      "type": "event"
    },
    {
      "anonymous": false,
      "inputs": [
        {
          "indexed": true,
          "internalType": "address",
          "name": "previousOwner",
          "type": "address"
        },
        {
          "indexed": true,
          "internalType": "address",
          "name": "newOwner",
          "type": "address"
        }
      ],
      "name": "OwnershipTransferred",
      "type": "event"
    },
    {
      "anonymous": false,
      "inputs": [
        {
          "indexed": true,
          "internalType": "address",
          "name": "from",
          "type": "address"
        },
        {
          "indexed": true,
          "internalType": "address",
          "name": "to",
          "type": "address"
        },
        {
          "indexed": false,
          "internalType": "uint256",
          "name": "value",
          "type": "uint256"
        }
      ],
      "name": "Transfer",
      "type": "event"
    },
    {
      "inputs": [],
      "name": "GetDevPowerAddress",
      "outputs": [
        {
          "internalType": "address",
          "name": "",
          "type": "address"
        }
      ],
      "stateMutability": "view",
      "type": "function"
    },
    {
      "inputs": [],
      "name": "_devPower",
      "outputs": [
        {
          "internalType": "address",
          "name": "",
          "type": "address"
        }
      ],
      "stateMutability": "view",
      "type": "function"
    },
    {
      "inputs": [
        {
          "internalType": "address",
          "name": "owner",
          "type": "address"
        },
        {
          "internalType": "address",
          "name": "spender",
          "type": "address"
        }
      ],
      "name": "allowance",
      "outputs": [
        {
          "internalType": "uint256",
          "name": "",
          "type": "uint256"
        }
      ],
      "stateMutability": "view",
      "type": "function"
    },
    {
      "inputs": [
        {
          "internalType": "address",
          "name": "spender",
          "type": "address"
        },
        {
          "internalType": "uint256",
          "name": "amount",
          "type": "uint256"
        }
      ],
      "name": "approve",
      "outputs": [
        {
          "internalType": "bool",
          "name": "",
          "type": "bool"
        }
      ],
      "stateMutability": "nonpayable",
      "type": "function"
    },
    {
      "inputs": [
        {
          "internalType": "address",
          "name": "account",
          "type": "address"
        }
      ],
      "name": "balanceOf",
      "outputs": [
        {
          "internalType": "uint256",
          "name": "",
          "type": "uint256"
        }
      ],
      "stateMutability": "view",
      "type": "function"
    },
    {
      "inputs": [],
      "name": "decimals",
      "outputs": [
        {
          "internalType": "uint8",
          "name": "",
          "type": "uint8"
        }
      ],
      "stateMutability": "view",
      "type": "function"
    },
    {
      "inputs": [
        {
          "internalType": "address",
          "name": "spender",
          "type": "address"
        },
        {
          "internalType": "uint256",
          "name": "subtractedValue",
          "type": "uint256"
        }
      ],
      "name": "decreaseAllowance",
      "outputs": [
        {
          "internalType": "bool",
          "name": "",
          "type": "bool"
        }
      ],
      "stateMutability": "nonpayable",
      "type": "function"
    },
    {
      "inputs": [],
      "name": "getOwner",
      "outputs": [
        {
          "internalType": "address",
          "name": "",
          "type": "address"
        }
      ],
      "stateMutability": "view",
      "type": "function"
    },
    {
      "inputs": [
        {
          "internalType": "address",
          "name": "spender",
          "type": "address"
        },
        {
          "internalType": "uint256",
          "name": "addedValue",
          "type": "uint256"
        }
      ],
      "name": "increaseAllowance",
      "outputs": [
        {
          "internalType": "bool",
          "name": "",
          "type": "bool"
        }
      ],
      "stateMutability": "nonpayable",
      "type": "function"
    },
    {
      "inputs": [
        {
          "internalType": "uint256",
          "name": "amount",
          "type": "uint256"
        }
      ],
      "name": "mint",
      "outputs": [
        {
          "internalType": "bool",
          "name": "",
          "type": "bool"
        }
      ],
      "stateMutability": "nonpayable",
      "type": "function"
    },
    {
      "inputs": [],
      "name": "name",
      "outputs": [
        {
          "internalType": "string",
          "name": "",
          "type": "string"
        }
      ],
      "stateMutability": "view",
      "type": "function"
    },
    {
      "inputs": [],
      "name": "owner",
      "outputs": [
        {
          "internalType": "address",
          "name": "",
          "type": "address"
        }
      ],
      "stateMutability": "view",
      "type": "function"
    },
    {
      "inputs": [],
      "name": "renounceDevPower",
      "outputs": [],
      "stateMutability": "nonpayable",
      "type": "function"
    },
    {
      "inputs": [],
      "name": "renounceOwnership",
      "outputs": [],
      "stateMutability": "nonpayable",
      "type": "function"
    },
    {
      "inputs": [],
      "name": "symbol",
      "outputs": [
        {
          "internalType": "string",
          "name": "",
          "type": "string"
        }
      ],
      "stateMutability": "view",
      "type": "function"
    },
    {
      "inputs": [],
      "name": "totalSupply",
      "outputs": [
        {
          "internalType": "uint256",
          "name": "",
          "type": "uint256"
        }
      ],
      "stateMutability": "view",
      "type": "function"
    },
    {
      "inputs": [
        {
          "internalType": "address",
          "name": "recipient",
          "type": "address"
        },
        {
          "internalType": "uint256",
          "name": "amount",
          "type": "uint256"
        }
      ],
      "name": "transfer",
      "outputs": [
        {
          "internalType": "bool",
          "name": "",
          "type": "bool"
        }
      ],
      "stateMutability": "nonpayable",
      "type": "function"
    },
    {
      "inputs": [
        {
          "internalType": "address",
          "name": "newDevPower",
          "type": "address"
        }
      ],
      "name": "transferDevPower",
      "outputs": [],
      "stateMutability": "nonpayable",
      "type": "function"
    },
    {
      "inputs": [
        {
          "internalType": "address",
          "name": "sender",
          "type": "address"
        },
        {
          "internalType": "address",
          "name": "recipient",
          "type": "address"
        },
        {
          "internalType": "uint256",
          "name": "amount",
          "type": "uint256"
        }
      ],
      "name": "transferFrom",
      "outputs": [
        {
          "internalType": "bool",
          "name": "",
          "type": "bool"
        }
      ],
      "stateMutability": "nonpayable",
      "type": "function"
    },
    {
      "inputs": [
        {
          "internalType": "address",
          "name": "newOwner",
          "type": "address"
        }
      ],
      "name": "transferOwnership",
      "outputs": [],
      "stateMutability": "nonpayable",
      "type": "function"
    }
  ],
  "bytecode": "0x60806040523480156200001157600080fd5b50604051620013f3380380620013f3833981810160405260408110156200003757600080fd5b81019080805160405193929190846401000000008211156200005857600080fd5b9083019060208201858111156200006e57600080fd5b82516401000000008111828201881017156200008957600080fd5b82525081516020918201929091019080838360005b83811015620000b85781810151838201526020016200009e565b50505050905090810190601f168015620000e65780820380516001836020036101000a031916815260200191505b50604052602001805160405193929190846401000000008211156200010a57600080fd5b9083019060208201858111156200012057600080fd5b82516401000000008111828201881017156200013b57600080fd5b82525081516020918201929091019080838360005b838110156200016a57818101518382015260200162000150565b50505050905090810190601f168015620001985780820380516001836020036101000a031916815260200191505b506040525050506000620001b16200029660201b60201c565b600080546001600160a01b0319166001600160a01b0383169081178255604051929350917f8be0079c531659141344cd1fd0a4f28419497f9722a3daafe3b4186f6b6457e0908290a35060006200020762000296565b600180546001600160a01b0319166001600160a01b038316908117909155604051919250906000907f7a6fa3fe09154b47b93710b30e5c7871c09ba0dd8d1cc6aea92508170157971f908290a35081516200026a9060059060208501906200029a565b508051620002809060069060208401906200029a565b50506007805460ff191660121790555062000336565b3390565b828054600181600116156101000203166002900490600052602060002090601f016020900481019282601f10620002dd57805160ff19168380011785556200030d565b828001600101855582156200030d579182015b828111156200030d578251825591602001919060010190620002f0565b506200031b9291506200031f565b5090565b5b808211156200031b576000815560010162000320565b6110ad80620003466000396000f3fe608060405234801561001057600080fd5b506004361061012c5760003560e01c806377e046e8116100ad578063a457c2d711610071578063a457c2d71461033f578063a9059cbb1461036b578063b481092d14610397578063dd62ed3e1461039f578063f2fde38b146103cd5761012c565b806377e046e8146102e6578063893d20e81461030a5780638da5cb5b1461031257806395d89b411461031a578063a0712d68146103225761012c565b8063313ce567116100f4578063313ce567146102665780633950935114610284578063621744a2146102b057806370a08231146102b8578063715018a6146102de5761012c565b806306fdde0314610131578063095ea7b3146101ae57806318160ddd146101ee57806323b872dd146102085780632793fe411461023e575b600080fd5b6101396103f3565b6040805160208082528351818301528351919283929083019185019080838360005b8381101561017357818101518382015260200161015b565b50505050905090810190601f1680156101a05780820380516001836020036101000a031916815260200191505b509250505060405180910390f35b6101da600480360360408110156101c457600080fd5b506001600160a01b038135169060200135610489565b604080519115158252519081900360200190f35b6101f66104a6565b60408051918252519081900360200190f35b6101da6004803603606081101561021e57600080fd5b506001600160a01b038135811691602081013590911690604001356104ac565b6102646004803603602081101561025457600080fd5b50356001600160a01b0316610533565b005b61026e610593565b6040805160ff9092168252519081900360200190f35b6101da6004803603604081101561029a57600080fd5b506001600160a01b03813516906020013561059c565b6102646105ea565b6101f6600480360360208110156102ce57600080fd5b50356001600160a01b0316610688565b6102646106a3565b6102ee610757565b604080516001600160a01b039092168252519081900360200190f35b6102ee610766565b6102ee610775565b610139610784565b6101da6004803603602081101561033857600080fd5b50356107e5565b6101da6004803603604081101561035557600080fd5b506001600160a01b03813516906020013561086a565b6101da6004803603604081101561038157600080fd5b506001600160a01b0381351690602001356108d2565b6102ee6108e6565b6101f6600480360360408110156103b557600080fd5b506001600160a01b03813581169160200135166108f5565b610264600480360360208110156103e357600080fd5b50356001600160a01b0316610920565b60058054604080516020601f600260001961010060018816150201909516949094049384018190048102820181019092528281526060939092909183018282801561047f5780601f106104545761010080835404028352916020019161047f565b820191906000526020600020905b81548152906001019060200180831161046257829003601f168201915b5050505050905090565b600061049d610496610993565b8484610997565b50600192915050565b60045490565b60006104b9848484610a83565b610529846104c5610993565b61052485604051806060016040528060288152602001610f64602891396001600160a01b038a16600090815260036020526040812090610503610993565b6001600160a01b031681526020810191909152604001600020549190610bd5565b610997565b5060019392505050565b61053b610993565b6001546001600160a01b039081169116146105875760405162461bcd60e51b815260040180806020018281038252602b815260200180610f8c602b913960400191505060405180910390fd5b61059081610c6c565b50565b60075460ff1690565b600061049d6105a9610993565b8461052485600360006105ba610993565b6001600160a01b03908116825260208083019390935260409182016000908120918c168152925290205490610d0d565b6105f2610993565b6001546001600160a01b0390811691161461063e5760405162461bcd60e51b815260040180806020018281038252602b815260200180610f8c602b913960400191505060405180910390fd5b6001546040516000916001600160a01b0316907f7a6fa3fe09154b47b93710b30e5c7871c09ba0dd8d1cc6aea92508170157971f908390a3600180546001600160a01b0319169055565b6001600160a01b031660009081526002602052604090205490565b6106ab610993565b6000546001600160a01b0390811691161461070d576040805162461bcd60e51b815260206004820181905260248201527f4f776e61626c653a2063616c6c6572206973206e6f7420746865206f776e6572604482015290519081900360640190fd5b600080546040516001600160a01b03909116907f8be0079c531659141344cd1fd0a4f28419497f9722a3daafe3b4186f6b6457e0908390a3600080546001600160a01b0319169055565b6001546001600160a01b031690565b6000610770610775565b905090565b6000546001600160a01b031690565b60068054604080516020601f600260001961010060018816150201909516949094049384018190048102820181019092528281526060939092909183018282801561047f5780601f106104545761010080835404028352916020019161047f565b60006107ef610993565b6000546001600160a01b03908116911614610851576040805162461bcd60e51b815260206004820181905260248201527f4f776e61626c653a2063616c6c6572206973206e6f7420746865206f776e6572604482015290519081900360640190fd5b61086261085c610993565b83610d6e565b506001919050565b600061049d610877610993565b846105248560405180606001604052806025815260200161103160259139600360006108a1610993565b6001600160a01b03908116825260208083019390935260409182016000908120918d16815292529020549190610bd5565b600061049d6108df610993565b8484610a83565b6001546001600160a01b031681565b6001600160a01b03918216600090815260036020908152604080832093909416825291909152205490565b610928610993565b6000546001600160a01b0390811691161461098a576040805162461bcd60e51b815260206004820181905260248201527f4f776e61626c653a2063616c6c6572206973206e6f7420746865206f776e6572604482015290519081900360640190fd5b61059081610e54565b3390565b6001600160a01b0383166109dc5760405162461bcd60e51b8152600401808060200182810382526024815260200180610f1a6024913960400191505060405180910390fd5b6001600160a01b038216610a215760405162461bcd60e51b81526004018080602001828103825260228152602001806110566022913960400191505060405180910390fd5b6001600160a01b03808416600081815260036020908152604080832094871680845294825291829020859055815185815291517f8c5be1e5ebec7d5bd14f71427d1e84f3dd0314c0f7b2291e5b200ac8c7c3b9259281900390910190a3505050565b6001600160a01b038316610ac85760405162461bcd60e51b8152600401808060200182810382526025815260200180610ef56025913960400191505060405180910390fd5b6001600160a01b038216610b0d5760405162461bcd60e51b815260040180806020018281038252602381526020018061100e6023913960400191505060405180910390fd5b610b4a81604051806060016040528060268152602001610fe8602691396001600160a01b0386166000908152600260205260409020549190610bd5565b6001600160a01b038085166000908152600260205260408082209390935590841681522054610b799082610d0d565b6001600160a01b0380841660008181526002602090815260409182902094909455805185815290519193928716927fddf252ad1be2c89b69c2b068fc378daa952ba7f163c4a11628f55a4df523b3ef92918290030190a3505050565b60008184841115610c645760405162461bcd60e51b81526004018080602001828103825283818151815260200191508051906020019080838360005b83811015610c29578181015183820152602001610c11565b50505050905090810190601f168015610c565780820380516001836020036101000a031916815260200191505b509250505060405180910390fd5b505050900390565b6001600160a01b038116610cb15760405162461bcd60e51b8152600401808060200182810382526031815260200180610fb76031913960400191505060405180910390fd5b6001546040516001600160a01b038084169216907f7a6fa3fe09154b47b93710b30e5c7871c09ba0dd8d1cc6aea92508170157971f90600090a3600180546001600160a01b0319166001600160a01b0392909216919091179055565b600082820183811015610d67576040805162461bcd60e51b815260206004820152601b60248201527f536166654d6174683a206164646974696f6e206f766572666c6f770000000000604482015290519081900360640190fd5b9392505050565b6001600160a01b038216610dc9576040805162461bcd60e51b815260206004820152601f60248201527f42455032303a206d696e7420746f20746865207a65726f206164647265737300604482015290519081900360640190fd5b600454610dd69082610d0d565b6004556001600160a01b038216600090815260026020526040902054610dfc9082610d0d565b6001600160a01b03831660008181526002602090815260408083209490945583518581529351929391927fddf252ad1be2c89b69c2b068fc378daa952ba7f163c4a11628f55a4df523b3ef9281900390910190a35050565b6001600160a01b038116610e995760405162461bcd60e51b8152600401808060200182810382526026815260200180610f3e6026913960400191505060405180910390fd5b600080546040516001600160a01b03808516939216917f8be0079c531659141344cd1fd0a4f28419497f9722a3daafe3b4186f6b6457e091a3600080546001600160a01b0319166001600160a01b039290921691909117905556fe42455032303a207472616e736665722066726f6d20746865207a65726f206164647265737342455032303a20617070726f76652066726f6d20746865207a65726f20616464726573734f776e61626c653a206e6577206f776e657220697320746865207a65726f206164647265737342455032303a207472616e7366657220616d6f756e74206578636565647320616c6c6f77616e6365446576506f7765723a2063616c6c6572206973206e6f742074686520646576207769746820706f77657273446576506f7765723a206e657720646576207769746820706f7765727320697320746865207a65726f206164647265737342455032303a207472616e7366657220616d6f756e7420657863656564732062616c616e636542455032303a207472616e7366657220746f20746865207a65726f206164647265737342455032303a2064656372656173656420616c6c6f77616e63652062656c6f77207a65726f42455032303a20617070726f766520746f20746865207a65726f2061646472657373a26469706673582212209713b50321499560aa9ef9f21f1c0f4f0c8267c0122d7364bbc2b41f550397f064736f6c634300060c0033",
  "linkReferences": {},
  "deployedLinkReferences": {}
}