{
  "_format": "hh-sol-artifact-1",
  "contractName": "Trusted",
  "sourceName": "contracts/Modifiers/Trusted.sol",
  "abi": [
    {
      "anonymous": false,
      "inputs": [
        {
          "indexed": true,
          "internalType": "address",
          "name": "previousOwner",
          "type": "address"
        },
        {
          "indexed": true,
          "internalType": "address",
          "name": "newOwner",
          "type": "address"
        }
      ],
      "name": "OwnershipTransferred",
      "type": "event"
    },
    {
      "anonymous": false,
      "inputs": [
        {
          "indexed": false,
          "internalType": "address",
          "name": "addr",
          "type": "address"
        }
      ],
      "name": "WhitelistedAddressAdded",
      "type": "event"
    },
    {
      "anonymous": false,
      "inputs": [
        {
          "indexed": false,
          "internalType": "address",
          "name": "addr",
          "type": "address"
        }
      ],
      "name": "WhitelistedAddressRemoved",
      "type": "event"
    },
    {
      "inputs": [
        {
          "internalType": "address",
          "name": "addr",
          "type": "address"
        }
      ],
      "name": "addAddressToWhitelist",
      "outputs": [
        {
          "internalType": "bool",
          "name": "success",
          "type": "bool"
        }
      ],
      "stateMutability": "nonpayable",
      "type": "function"
    },
    {
      "inputs": [
        {
          "internalType": "address[]",
          "name": "addrs",
          "type": "address[]"
        }
      ],
      "name": "addAddressesToWhitelist",
      "outputs": [
        {
          "internalType": "bool",
          "name": "success",
          "type": "bool"
        }
      ],
      "stateMutability": "nonpayable",
      "type": "function"
    },
    {
      "inputs": [
        {
          "internalType": "address",
          "name": "addr",
          "type": "address"
        }
      ],
      "name": "isAddressWhitelisted",
      "outputs": [
        {
          "internalType": "bool",
          "name": "success",
          "type": "bool"
        }
      ],
      "stateMutability": "view",
      "type": "function"
    },
    {
      "inputs": [],
      "name": "owner",
      "outputs": [
        {
          "internalType": "address",
          "name": "",
          "type": "address"
        }
      ],
      "stateMutability": "view",
      "type": "function"
    },
    {
      "inputs": [
        {
          "internalType": "address",
          "name": "addr",
          "type": "address"
        }
      ],
      "name": "removeAddressFromWhitelist",
      "outputs": [
        {
          "internalType": "bool",
          "name": "success",
          "type": "bool"
        }
      ],
      "stateMutability": "nonpayable",
      "type": "function"
    },
    {
      "inputs": [
        {
          "internalType": "address[]",
          "name": "addrs",
          "type": "address[]"
        }
      ],
      "name": "removeAddressesFromWhitelist",
      "outputs": [
        {
          "internalType": "bool",
          "name": "success",
          "type": "bool"
        }
      ],
      "stateMutability": "nonpayable",
      "type": "function"
    },
    {
      "inputs": [],
      "name": "renounceOwnership",
      "outputs": [],
      "stateMutability": "nonpayable",
      "type": "function"
    },
    {
      "inputs": [
        {
          "internalType": "address",
          "name": "newOwner",
          "type": "address"
        }
      ],
      "name": "transferOwnership",
      "outputs": [],
      "stateMutability": "nonpayable",
      "type": "function"
    },
    {
      "inputs": [
        {
          "internalType": "address",
          "name": "",
          "type": "address"
        }
      ],
      "name": "whitelist",
      "outputs": [
        {
          "internalType": "bool",
          "name": "",
          "type": "bool"
        }
      ],
      "stateMutability": "view",
      "type": "function"
    }
  ],
  "bytecode": "0x608060405234801561001057600080fd5b50600061001b61006a565b600080546001600160a01b0319166001600160a01b0383169081178255604051929350917f8be0079c531659141344cd1fd0a4f28419497f9722a3daafe3b4186f6b6457e0908290a35061006e565b3390565b61082c8061007d6000396000f3fe608060405234801561001057600080fd5b50600436106100935760003560e01c80637b9417c8116100665780637b9417c8146101725780638da5cb5b146101985780639b19251a146101bc578063e2ec6ec3146101e2578063f2fde38b1461025257610093565b806313f44d101461009857806324953eaa146100d2578063286dd3f514610142578063715018a614610168575b600080fd5b6100be600480360360208110156100ae57600080fd5b50356001600160a01b0316610278565b604080519115158252519081900360200190f35b6100be600480360360208110156100e857600080fd5b81019060208101813564010000000081111561010357600080fd5b82018360208201111561011557600080fd5b8035906020019184602083028401116401000000008311171561013757600080fd5b5090925090506102f1565b6100be6004803603602081101561015857600080fd5b50356001600160a01b0316610393565b61017061046c565b005b6100be6004803603602081101561018857600080fd5b50356001600160a01b031661050e565b6101a06105e9565b604080516001600160a01b039092168252519081900360200190f35b6100be600480360360208110156101d257600080fd5b50356001600160a01b03166105f8565b6100be600480360360208110156101f857600080fd5b81019060208101813564010000000081111561021357600080fd5b82018360208201111561022557600080fd5b8035906020019184602083028401116401000000008311171561024757600080fd5b50909250905061060d565b6101706004803603602081101561026857600080fd5b50356001600160a01b03166106a8565b600061028261070c565b6000546001600160a01b039081169116146102d2576040805162461bcd60e51b815260206004820181905260248201526000805160206107d7833981519152604482015290519081900360640190fd5b506001600160a01b031660009081526001602052604090205460ff1690565b60006102fb61070c565b6000546001600160a01b0390811691161461034b576040805162461bcd60e51b815260206004820181905260248201526000805160206107d7833981519152604482015290519081900360640190fd5b60005b8281101561038c5761037a84848381811061036557fe5b905060200201356001600160a01b0316610393565b1561038457600191505b60010161034e565b5092915050565b600061039d61070c565b6000546001600160a01b039081169116146103ed576040805162461bcd60e51b815260206004820181905260248201526000805160206107d7833981519152604482015290519081900360640190fd5b6001600160a01b03821660009081526001602052604090205460ff1615610467576001600160a01b038216600081815260016020908152604091829020805460ff19169055815192835290517ff1abf01a1043b7c244d128e8595cf0c1d10743b022b03a02dffd8ca3bf729f5a9281900390910190a15060015b919050565b61047461070c565b6000546001600160a01b039081169116146104c4576040805162461bcd60e51b815260206004820181905260248201526000805160206107d7833981519152604482015290519081900360640190fd5b600080546040516001600160a01b03909116907f8be0079c531659141344cd1fd0a4f28419497f9722a3daafe3b4186f6b6457e0908390a3600080546001600160a01b0319169055565b600061051861070c565b6000546001600160a01b03908116911614610568576040805162461bcd60e51b815260206004820181905260248201526000805160206107d7833981519152604482015290519081900360640190fd5b6001600160a01b03821660009081526001602052604090205460ff16610467576001600160a01b038216600081815260016020818152604092839020805460ff1916909217909155815192835290517fd1bba68c128cc3f427e5831b3c6f99f480b6efa6b9e80c757768f6124158cc3f9281900390910190a1506001919050565b6000546001600160a01b031690565b60016020526000908152604090205460ff1681565b600061061761070c565b6000546001600160a01b03908116911614610667576040805162461bcd60e51b815260206004820181905260248201526000805160206107d7833981519152604482015290519081900360640190fd5b60005b8281101561038c5761069684848381811061068157fe5b905060200201356001600160a01b031661050e565b156106a057600191505b60010161066a565b6106b061070c565b6000546001600160a01b03908116911614610700576040805162461bcd60e51b815260206004820181905260248201526000805160206107d7833981519152604482015290519081900360640190fd5b61070981610710565b50565b3390565b6001600160a01b0381166107555760405162461bcd60e51b81526004018080602001828103825260268152602001806107b16026913960400191505060405180910390fd5b600080546040516001600160a01b03808516939216917f8be0079c531659141344cd1fd0a4f28419497f9722a3daafe3b4186f6b6457e091a3600080546001600160a01b0319166001600160a01b039290921691909117905556fe4f776e61626c653a206e6577206f776e657220697320746865207a65726f20616464726573734f776e61626c653a2063616c6c6572206973206e6f7420746865206f776e6572a2646970667358221220b6856c85f5ebd5e0b14d0f64050af5e1c9ceac3b687f1304e49f654717404d4d64736f6c634300060c0033",
  "linkReferences": {},
  "deployedLinkReferences": {}
}